S00A00006164632E733337C2
S11300000010002021040000B9040000B90400001D
S1130010B9040000B9040000B9040000B9040000E8
S1130020B9040000B9040000B9040000B9040000D8
S1130030B9040000B9040000B9040000B9040000C8
S1130040B9040000B9040000B9040000B9040000B8
S1130050B9040000B9040000B9040000B9040000A8
S1130060B9040000B9040000B9040000B904000098
S1130070B9040000B9040000B9040000B904000088
S1130080B9040000B9040000B9040000B904000078
S1130090B9040000B9040000B9040000B904000068
S11300A0B9040000B9040000B9040000B904000058
S11300B0B9040000B9040000B9040000B904000048
S11300C0B9040000B9040000B9040000B904000038
S11300D0B9040000B9040000B9040000B904000028
S11300E0B9040000B9040000B9040000B904000018
S11300F0B9040000B9040000B9040000B904000008
S1130100B9040000B9040000B904000010B5054C9E
S1130110237833B9044B13B10448AFF300800123AF
S1130120237010BD80100020000000006C36000019
S113013008B5034B1BB103490348AFF3008008BD66
S113014000000000841000206C360000A3F5803A03
S1130150704700BF174B002B08BF134B9D46FFF79A
S1130160F5FF00218B460F461348144A121A03F078
S1130170F9F80E4B002B00D098470D4B002B00D004
S113018098470020002104000D000D48002802D0EB
S11301900C48AFF3008003F0C1F82000290000F000
S11301A0A1F803F0A7F800BF000008000000000059
S11301B0000000000010002080100020B01000207B
S11301C0000000000000000082B00190019B9B6CC5
S11301D0184602B0704782B001900B468DF8033088
S11301E09DF80320019B9A6000BF02B07047000095
S11301F000B587B00121234800F0C0FF00238DF82B
S1130200103000238DF811301F238DF81230002395
S11302108DF8133000238DF8143000238DF8153039
S113022001AB00221A605A609A60FF238DF80930EE
S11302300021154800F066FC03468DF813300023B6
S11302408DF80A3002238DF8063000238DF807302C
S113025003238DF805306C238DF80830002000F05E
S113026087FC03468DF8123004AB1946074800F0AA
S1130270EDFA01AB1946054800F08AFB00BF07B050
S11302805DF804FB00D204000024F40000200040C8
S113029008B5FFF7ADFF00BF08BD000008B5012198
S11302A00D48FFF798FF00BF0B4BDB6803F4803366
S11302B0002BF9D00848FFF787FF0346074A13606D
S11302C0064B1B6840F6E44202FB03F31B0B044A93
S11302D0136000BF08BD00BF002000409C10002038
S11302E0A010002008B502F0EDFFFFF7D1FF02F0E7
S11302F0F6FFFFF7D3FFFAE708B50421112001F058
S1130300DBFA0121084800F039FF0221074801F017
S1130310D3FA0221064801F0CFFA0221054801F080
S1130320CBFA0023184608BD30253E0002001E000B
S11303300300200005002400024BDB6C1B0EDBB223
S113034018467047B081E00F00B583B01D4B012201
S11303505A64FFF7F1FF03468DF807309DF8073024
S1130360002B0CD1184B4AF6E8521A60174B1B6845
S1130370164A43F004031360134B00221A609DF8DD
S11303800730012B05D8124B1B68114A43F4005364
S11303901360104B1B6A23F444130E4A43F488136E
S11303A01362084B1B68074A43F4807313600A4BBB
S11303B01B68094A43F4F843136000BF03B05DF8B7
S11303C004FB00BF00000E4090310E4098310E40F7
S11303D064310E4000400E40A4310E4008B5FFF7D2
S11303E0B3FF02F053FF02F08FFE02F0C1FE02F0F1
S11303F009FFFFF781FF02F099FE00BF08BD00BFAF
S1130400704700BF704700BF704700BF704700BF10
S1130410704700BF704700BF704700BF70470000BF
S113042000B585B000F0CAF81F4B039319E0002310
S113043002930EE0039B1A68029B9B001A44039BE1
S11304405968029B9B000B4412681A60029B01339B
S11304500293039B9B68029A9A42EBD3039B0C334F
S11304600393039B114A9342E1D3114B019314E08C
S11304700023009309E0019B1A68009B9B0013442E
S113048000221A60009B01330093019B5B68009A71
S11304909A42F0D3019B08330193019B054A93428E
S11304A0E6D3FFF757FE00BF743600008036000025
S11304B08036000080360000FEE7000000B583B0FF
S11304C000F020F801900A4BD3F808311B0AC3F35B
S11304D008030093009B0133019AB2FBF3F30193E9
S11304E0044A019B1360019B184603B05DF804FBAA
S11304F000400E4008100020014B1846704700BF12
S113050000F0490282B01A4BD3F8943003F0070389
S1130510023B032B1BD801A252F823F03D05000037
S1130520350500002D05000045050000114B1B6832
S1130530019310E04FF4004301930CE00E4B1B6851
S1130540019308E00D4B1B685B08019303E00B4B20
S11305501B68019300BF064BD3F800311B0A03F05C
S11305601F030133019AB2FBF3F3184602B070473C
S113057000400E4004100020001000200C10002049
S1130580014B1B68184670470010002000B583B06B
S11305900190084A019B1360074BD3F8943003F091
S11305A00703022B01D1FFF789FF00BF03B05DF8F9
S11305B004FB00BF0010002000400E40064B074A19
S11305C09A60054BD3F88830034A43F47003C2F8A9
S11305D0883000BF704700BF00ED00E0000000005D
S11305E04FF40043184670474FF47A731846704727
S11305F0014B1B68184670470410002082B001901C
S11306000091FEE700B587B0039002910192029B2E
S11306101F2B03D991210A48FFF7F0FF039B03F135
S1130620424303F58013DA00029B13449B000593B5
S1130630059B019A1A6000BF07B05DF804FB00BF78
S11306409033000000B587B003900291019201F04D
S113065011FE0590039B1A68029BDB431A40019923
S1130660029B0B401A43039B1A60059801F00EFE8F
S113067000BF07B05DF804FB88B001900B468DF80D
S1130680033013468DF802309DF80230002B04D05D
S113069010230593694B069303E000230593684BED
S11306A00693019B5B6B069A134004930023079304
S11306B0019B644A934240F0BD80634B03939DF8D1
S11306C00330062B16DC002BC0F2A980062B00F2A7
S11306D0A68001A252F823F0FB06000027070000C1
S11306E05D0700008F0700001F0800001F080000BE
S11306F0CB070000812B79D091E0039B1B6803F4A6
S1130700FE43079A13430793039B1B6803F00F03ED
S1130710079A13430793039B1B6803F0F003079A9C
S1130720134307937EE0039B1B681B0E1B0203F419
S1130730FE43079A13430793039B1B681B0C03F0A8
S11307400F03079A13430793039B1B681B0D1B019D
S113075003F0F003079A1343079363E0039B043306
S11307601B6803F4FE43079A13430793039B043364
S11307701B6803F00F03079A13430793039B043387
S11307801B6803F0F003079A134307934AE0039BA3
S113079004331B681B0E1B0203F4FE43079A134326
S11307A00793039B04331B681B0C03F00F03079A86
S11307B013430793039B04331B681B0D1B0103F0B6
S11307C0F003079A134307932CE0039B08331B6839
S11307D003F00F03079A13430793039B08331B6823
S11307E003F0F003079A134307931BE0039B0433BE
S11307F01B6803F4FE43079A13430793039B0433D4
S11308001B6803F00F03079A13430793039B0433F6
S11308101B6803F0F003079A1343079302E00023D5
S1130820079300BF079A059B9A40049B1A43019BB8
S11308305A6300E000BF08B0704700BFFFFF0080AC
S11308400080FFFF002000401082E00F00B589B057
S113085001900091009BDB788DF81B30019B474A87
S1130860934204D04FF4BD714548FFF7C7FE9DF88D
S11308701B30002B07D10021424800F043F9034606
S11308808DF81B3024E0019B1B6803F08003002BD0
S11308901ED100213B4800F035F903461A469DF865
S11308A01B30934204D240F285113548FFF7A6FE6F
S11308B000214FF4FA4000F025F903461A469DF84A
S11308C01B30934204D94FF4C3712D48FFF796FEB1
S11308D0019B0A229A60009B1B781A06009B9B7856
S11308E01B0403F4FE031A439DF81B301B0203F49C
S11308F0FE431343009A527813430793009B1B79DA
S1130900002B03D0079B43F010030793019B079A26
S11309101A600198009B5B791A46C021FFF792FE8A
S1130920019B1B6803F08003802B22D1164B049398
S113093000230593049800F08FFC0390019B0F4A59
S1130940934204D1114800F087FC059004E04FF471
S1130950DB710B48FFF752FE039A13465B00134406
S11309605B08059A9A4204D24FF4DC710448FFF7FD
S113097045FE00BF09B05DF804FB00BF0020004045
S1130980E03300000024F400B800320000D2040078
S113099000B585B001900091019B584A934204D060
S11309A04FF454715648FFF729FE019B02229A60C6
S11309B0009B9B78002219460198FFF75DFE009B7F
S11309C05B781A06009B1B791B021A43009B5B7918
S11309D01B041A43009BDB78DB0013430393009B47
S11309E0DB79002B03D0039B43F000530393009B5C
S11309F01B7A002B03D0039B43F004030393009B57
S1130A009B79002B03D0039B43F002030393009BC9
S1130A105B7A002B03D0039B43F001030393009BF9
S1130A201B79F32B0DD1009B9B78002B09D1009BE4
S1130A305B78032B05D8039B23F0706343F080633A
S1130A400393009B9B785BB2002B04DA039B43F077
S1130A50E003039305E0009B9B785B01039A134337
S1130A600393019B039A1A61019B5B6923F4F213BC
S1130A7023F007030393009B9B785BB2002B06DAF9
S1130A80009B9B7823F08003039A13430393009BFA
S1130A901B785B04039A13430393009BDB7A002BBC
S1130AA003D0039B43F480430393019B039A5A614D
S1130AB00198009B9B7A1A460221FFF7A3FD019B34
S1130AC0DB6F0393019BD3F88020039B1340002B1F
S1130AD004D04FF46E710A48FFF790FD019BDB6868
S1130AE003F44063002B04D040F2B9310448FFF70B
S1130AF085FD00BF05B05DF804FB00BF0020004089
S1130B00E033000000B585B001900091019B164AC6
S1130B10934202D9144B019306E0019BB3F5FA4FBB
S1130B2002D24FF4FA430193009B002B03D10F48E8
S1130B3000F092FB0090009A019B13445A1E019B03
S1130B40B2FBF3F30393039B002B02D0039B013B03
S1130B500393039B7F2B01D97F230393039BDBB276
S1130B60184605B05DF804FB0024F400404105007C
S1130B7000B583B00190019B002B08D10E4800F012
S1130B806BFB0190019B002B01D101230193019B7D
S1130B9003F5742303F23F230193019B074AA2FB4D
S1130BA003239B0C0193019BDBB2013BDBB2184690
S1130BB003B05DF804FB00BF4041050083DE1B4326
S1130BC000B583B00190019B1F2B04D94FF4B3717E
S1130BD00548FFF713FD0122019B02FA03F31846AF
S1130BE003B05DF804FB00BF3034000000B587B0EB
S1130BF0039002910192029B1F2B03D991210A4871
S1130C00FFF7FCFC039B03F1424303F58013DA0076
S1130C10029B13449B000593059B019A1A6000BF35
S1130C2007B05DF804FB00BF8434000084B0019079
S1130C300091019B03F1424303F58013DA00009B0A
S1130C4013449B000393039B1B68184604B070472E
S1130C50054B1B6803F04003002B01D1012300E086
S1130C6000231846704700BF3C300E4008B5FFF71C
S1130C70EFFF034683F00103DBB2002B08D100BF72
S1130C8012210448FFF7D2FF0346002BF8D100E0FD
S1130C9000BF08BD04300E4008B5FFF7E7FF044B62
S1130CA05B681B0C03F00303DBB2184608BD00BFEE
S1130CB000300E40054B1B6C9BB241F671329342DF
S1130CC014BF01230023DBB21846704700000E4016
S1130CD0024B00221A6400BF704700BF00000E40A0
S1130CE0024B41F671321A6400BF704700000E4097
S1130CF0014B5B681846704700000E4082B00190BB
S1130D00024A019B536000BF02B0704700000E40CE
S1130D1000B585B0019001230393019B124A9342CD
S1130D2004D8002303930023029308E0019B0F4A95
S1130D30934202D80123029301E002230293039A0F
S1130D4010210B48FFF752FF094BD3F8003123F071
S1130D508072029B1B0606491343C1F8003100BF91
S1130D6005B05DF804FB00BF0048E8010090D00323
S1130D7000400E4082B0034B1B680193019B184650
S1130D8002B070471010002000B583B0FFF7BAFB23
S1130D900190074BD3F800311B0A03F01F03013302
S1130DA0019A02FB03F3184603B05DF804FB00BF8D
S1130DB000400E4000B583B0104800F073FC0346B9
S1130DC08DF803309DF80330072B05D0092B07D18C
S1130DD0FFF798FB01900BE0FFF7CCFF019007E0D1
S1130DE00023019341F290410548FFF707FC00BF3F
S1130DF0019B184603B05DF804FB00BF06000E001B
S1130E002435000000B585B00190019B002B1FD153
S1130E10214800F047FC03468DF80B3000BF9DF8D5
S1130E200B30013B072B29D801A252F823F000BF55
S1130E305F0E00007D0E00007D0E00006D0E0000B0
S1130E407D0E00007D0E0000650E0000750E000092
S1130E5041F2B0411148FFF7D1FB002317E0002312
S1130E60039313E0FFF786FF03900FE0FFF788FB7F
S1130E7003900BE0FFF788FF039007E00023039340
S1130E8041F2C7410548FFF7B9FB00BF039B184671
S1130E9005B05DF804FB00BFB80032002435000043
S1130EA000B585B001900091FFF722FF034603F0DF
S1130EB0407303930023029312E01D4A029BDB005C
S1130EC013441A79009BDBB29A4206D1184A029B5A
S1130ED052F83330019A9A4206D9029B01330293A5
S1130EE0029B042BE9D900E000BF029B052B07D12C
S1130EF00323039341F2CE510E48FFF77FFB05E035
S1130F000B4A029BDB0013445B790393039B1B0690
S1130F100393FFF7EDFE034623F04073039A134354
S1130F2003930398FFF7EAFE00BF05B05DF804FBE6
S1130F30743500002435000000B583B0FFF7BAFE15
S1130F4003468DF80730FFF7CBFEFFF7D5FA0346CB
S1130F5000211846FFF7A4FF9DF80730002B01D0AD
S1130F60FFF7B6FE00BF03B05DF804FB00B585B023
S1130F7001900091FFF79EFE03468DF80F30FFF7B6
S1130F80AFFE00990198FFF78BFF9DF80F30002BFF
S1130F9001D0FFF79DFE00BF05B05DF804FB86B0ED
S1130FA001900F230593019B03330493059B039343
S1130FB0039A049B934228BF13460293029B1B0788
S1130FC00293029B184606B070470000034B5B6A0D
S1130FD01B0903F003031846704700BF00400E408E
S1130FE082B00190054B5B6A23F03002019B1B0128
S1130FF0024913434B6200BF02B0704700400E40E9
S113100010B584B0019000230293019B424A93429D
S113101011D0019B404A934207D8019B3F4A934217
S113102009D0019B3E4A934205D041F2CD613D482F
S1131030FFF7E4FA00E000BF019800F033FB034639
S11310400393019B344A93421AD0019B324A934240
S11310501DD8019B314A934204D0019B304A9342EC
S113106007D014E0304BD3F8803003F00703039328
S113107013E02D4BD3F8843003F0070303930CE003
S1131080294BD3F8883003F00703039305E041F2BA
S1131090FC612448FFF7B2FA00BF039B042B2ED84F
S11310A001A252F823F000BFF9100000BD100000A7
S11310B0C5100000D5100000CD100000FFF790FA15
S11310C0029024E0FFF794FA029020E0FFF78CFAF4
S11310D002901CE0FFF716FA0446134BD3F80031D4
S11310E01B0E03F0010301331846FFF769FD0346A5
S11310F0B4FBF3F302930AE00023029307E0002316
S1131100029341F24E710748FFF778FA00BF029B41
S1131110184604B010BD00BF0500240002001E00E4
S1131120030020002435000000400E4082B00190EE
S1131130094BD3F8443103F00103002B08D100BF5D
S1131140054BD3F84021019B1340002BF8D100E05C
S113115000BF02B0704700BF00400E4000BF7047A0
S113116000BF704700B583B00190019800F0BAF950
S113117003460133184603B05DF804FB00B587B09D
S113118001900B468DF8033000230493019B1B0A46
S113119003F00F03013B092B32D801A252F823F0CC
S11311A0C9110000D5110000011200000112000055
S11311B0CF110000DB110000E51100000112000056
S11311C0EF110000FB1100001B4B05931EE01B4BAD
S11311D005931BE01A4B059318E01A4B0593012362
S11311E0049313E0184B0593102304930EE0174B5C
S11311F005934FF48033049308E0154B059305E001
S113120041F66A311348FFF7F9F911E0019B1B0B12
S113121003F01F030393049B002B02D00498FFF7F1
S113122085FF9DF803301A4603990598FFF7DEFC05
S113123007B05DF804FB00BF00400E40B0400E4014
S1131240C0400E40E0400E40E8400E40F0400E40EA
S113125050410E402435000010B584B00190019B2C
S113126003F47813B3F5781F00F01B81B3F5781FEE
S113127000F22281B3F5481F00F00E81B3F5481F38
S113128000F21A81B3F5401F00F0E580B3F5401F6A
S113129000F21281B3F5381F00F0B680B3F5381FA1
S11312A000F20A81B3F5101F00F0E980B3F5101FB6
S11312B000F20281B3F5001F00F0B580B3F5001F02
S11312C000F2FA80B3F5F01F79D0B3F5F01F00F205
S11312D0F380B3F5D01F00F0AB80B3F5D01F00F25C
S11312E0EB80B3F5B01F7DD0B3F5B01F00F2E480FE
S11312F0B3F5A01F68D0B3F5A01F00F2DD80B3F5ED
S1131300801F00F0C580B3F5801F00F2D580B3F5CF
S1131310602F00F0B980B3F5602F00F2CD80B3F5F3
S1131320402F3DD0B3F5402F00F2C680B3F5202FF7
S113133023D0B3F5202F00F2BF80B3F5802F0DD05A
S1131340B3F5802F00F2B880002B03D0B3F5003F33
S113135017D0B1E0FFF7D6F80390B5E0FFF7D2F865
S113136003905B4BD3F80C311B0AC3F3080301331E
S1131370039AB2FBF3F30393A6E0FFF7C3F80390D9
S1131380A2E0FFF7BFF80390514BD3F808311B0AD2
S1131390C3F308030133039AB2FBF3F3039393E01B
S11313A0FFF7B0F803904A4BD3F814311B0A03F04B
S11313B01F030133039AB2FBF3F3039384E045481C
S11313C0FFF71EFE03907FE04348FFF719FE0390EA
S11313D03F4BD3F8303103F00303039A22FA03F3AB
S11313E0039371E03B48FFF70BFE0390384BD3F8AF
S11313F0203103F00F031846FFF7E2FB0246039B7C
S1131400B3FBF2F303935FE03248FFF7F9FD039077
S11314102F4BD3F820311B0903F00303039A22FA5C
S113142003F3039350E02D48FFF7EAFD03904BE0EC
S11314302A48FFF7E5FD0390254BD3F828311B0913
S113144003F003031846FFF7BBFB0246039BB3FB01
S1131450F2F3039338E02148FFF7D2FD03901C4BCD
S1131460D3F828311B0A03F0030304331846FFF7AB
S1131470A7FB0246039BB3FBF2F3039324E0164855
S1131480FFF7BEFD03901FE0FFF794FC03901BE001
S1131490FFF770FC039017E00020FFF7B3FC039004
S11314A012E0FFF72FF804460198FFF75BFE0346AE
S11314B0B4FBF3F3039307E00023039341F69A414B
S11314C00748FFF79BF800BF039B184604B010BD04
S11314D000400E4002001E0005002400030020000E
S11314E02435000000B585B00190019B1B0903F071
S11314F00F030293029B013B092B00F2B88001A267
S113150052F823F02D1500003D1500004D15000084
S11315106D1500006F1600006F1600007D150000A9
S11315208D150000E715000047160000564BD3F850
S113153000311B0A03F01F030393A0E0524BD3F8BE
S113154014311B0A03F01F03039398E04E4BD3F8A6
S113155000311B0E03F001030393039B0133184670
S1131560FFF72EFB0346013B039388E0464BD3F879
S11315700C311B0AC3F30803039380E0424BD3F8F6
S113158008311B0AC3F30803039378E0019B3F4A25
S1131590934204D0019B3E4A93420DD01AE03A4B49
S11315A0D3F8203103F00F0303930398FFF708FBEC
S11315B00346013B039315E0334BD3F820311B0959
S11315C003F0030303930398FFF7FAFA0346013B7E
S11315D0039307E00023039341F60E512D48FFF7D0
S11315E00DF800BF4BE0019B2B4A934204D0019BB2
S11315F02A4A93420ED01DE0234BD3F828311B090D
S113160003F0030303930398FFF7DAFA0346013B5D
S1131610039317E01C4BD3F828311B0A03F0030390
S11316200393039B04331846FFF7CAFA0346013BAE
S1131630039307E00023039341F632511548FEF764
S1131640DDFF00BF1BE0019B154A934206D10E4B00
S1131650D3F8303103F00303039307E0002303932B
S113166041F641510B48FEF7C9FF00BF07E00023D4
S1131670039341F666510748FEF7C0FF00BF039B82
S1131680184605B05DF804FB00400E4080061600C5
S113169080162E002435000090171A009027300081
S11316A0A009140000B585B0019001238DF80F3016
S11316B0019B03F00F030293029B013B072B00F2F3
S11316C0E78001A252F823F0E91600004B1700004E
S11316D08917000091180000DB170000191800009A
S11316E09118000043180000714BD3F8943003F0B4
S11316F00703023B052B23D801A252F823F000BFB5
S113170029170000211700001917000031170000E5
S1131710411700003917000002238DF80F3013E041
S113172003238DF80F300FE004238DF80F300BE006
S11317300B238DF80F3007E00C238DF80F3003E0F6
S113174005238DF80F3000BFABE0594BD3F8803040
S113175003F00703042B0ED0042B10D8012B02D066
S1131760022B04D00BE003238DF80F300BE002238F
S11317708DF80F3007E00A238DF80F3003E00123C2
S11317808DF80F3000BF8CE0494BD3F8843003F060
S11317900703013B032B1BD801A252F823F000BF1F
S11317A0B1170000B9170000C9170000C1170000E5
S11317B003238DF80F300FE002238DF80F300BE078
S11317C00A238DF80F3007E006238DF80F3003E06D
S11317D001238DF80F3000BF63E0354BD3F8883018
S11317E003F00703042B0ED0042B10D8012B02D0D6
S11317F0022B04D00BE003238DF80F300BE00223FF
S11318008DF80F3007E00A238DF80F3003E0012331
S11318108DF80F3000BF44E0254B1B6F03F001032C
S1131820002B05D0012B07D109238DF80F3007E0D9
S113183007238DF80F3003E001238DF80F3000BF2C
S11318402FE01B4BD3F85C3103F03003302B16D060
S1131850302B18D8202B0ED0202B14D8002B02D0DC
S1131860102B04D00FE001238DF80F300FE0072375
S11318708DF80F300BE004238DF80F3007E00823B8
S11318808DF80F3003E001238DF80F3000BF08E01E
S113189000238DF80F3042F2BA010648FEF7AEFE7F
S11318A000BF9DF80F30184605B05DF804FB00BF7B
S11318B000400E402435000000B58BB001900B466B
S11318C08DF803300323099303238DF82330002379
S11318D0069300230593019B112B1BD19DF8033024
S11318E0042B03D1FEF74CFE05900CE09DF8033069
S11318F0052B08D100F08CF90346BD4A934202D966
S113190000F086F90590059B002B03D00021059873
S113191000F098FD019B03F00F030493049B013B2B
S1131920072B00F25B8101A252F823F04D1900004D
S1131930571A00008D1A0000DD1B00006D1A00000C
S1131940311B0000DD1B00005D1B00009DF803300F
S1131950023B0A2B48D801A252F823F0891900004F
S113196095190000A1190000B3190000E91900003D
S1131970E9190000E9190000E9190000DD19000067
S1131980C5190000D11900000423099300238DF820
S113199023302FE00323099301238DF8233029E01A
S11319A00223099302238DF823309248FFF7B0F9FC
S11319B020E00123099303238DF823308D48FFF79A
S11319C0A7F917E00523099303238DF8233011E0C9
S11319D00723099306238DF823300BE042F27B1191
S11319E08548FEF70BFEFFE04FF406518248FEF7F0
S11319F005FEF9E09DF82330062B06D09DF8233030
S1131A0001220121184600F0D1F9FFF795FAFFF7FA
S1131A10A5FB059B002B01D0FFF728F9774A099B0A
S1131A205367FEF74BFD0390FEF76CFD0346184623
S1131A30FFF76EF9FFF730F9034619460398FFF7ED
S1131A4095FA059B002B03D10121002000F0FAFC3C
S1131A50FFF786FBC8E06A4B06939DF80330062B1C
S1131A6004D142F2BF116448FEF7C8FD069B002B67
S1131A7001D0069B00E0634B06939DF80330062BD0
S1131A8004D142F2CF115C48FEF7B8FD069B002B4F
S1131A9001D0069B00E05C4B06939DF80330013BAC
S1131AA0092B3BD801A252F823F000BFD51A00003D
S1131AB0DB1A0000EB1A00001D1B00001D1B0000B8
S1131AC0FB1A00001D1B00001D1B00001D1B000055
S1131AD0171B00000023079326E0012201210020A8
S1131AE000F064F9022307931EE001220121012082
S1131AF000F05CF90123079316E0FEF703FD0346AB
S1131B001846FFF705F9012202214048FFF76EF855
S1131B100323079308E00423079305E042F2FA1134
S1131B203548FEF76BFD5FE0069B079A1A605BE0A1
S1131B309DF80330072B02D0092B04D007E02F4B6C
S1131B4000221A6709E02D4B01221A6705E042F2D0
S1131B5084212948FEF752FD46E045E09DF8033014
S1131B60013B072B28D801A252F823F08D1B00005B
S1131B70B91B0000B91B0000A31B0000B91B000027
S1131B80B91B0000931B0000B31B00000023079344
S1131B9018E001220121042000F008F90123079331
S1131BA010E001220121022000F000F90223079332
S1131BB008E00323079305E042F2E2210E48FEF712
S1131BC01DFD11E00D4BD3F85C3123F03002079B6F
S1131BD01B010A491343C1F85C3105E042F2B931F3
S1131BE00548FEF70BFD00BF0BB05DF804FB00BF1A
S1131BF0002D31010148E8012435000000400E4069
S1131C0080400E4088400E4084400E40B0400E405C
S1131C10014B1B68184670470C10002010B584B0A7
S1131C2001901120FFF73EFD0346042B04D142F23C
S1131C30A4613748FEF7E2FC01220021022000F0F3
S1131C40B5F8019B5B78002B07D1019B9B78002B97
S1131C5003D1019BDB78002B04D042F2E0612C48D5
S1131C60FEF7CCFC00230393019B1B7C012B04D1C6
S1131C7042F2E7612648FEF7C1FC019B1B7C022B64
S1131C8001D101230393234B5B6A23F00102214911
S1131C90039B13434B62019B1B781A4608211E4881
S1131CA0FEF7A4FF019B9B88DB02019A527A11463E
S1131CB0184A0B43D362174B1B6B03F07F62019BE3
S1131CC0DB88DB021343019A927A1A43019B1B7A45
S1131CD0DB0142EA0304019B1B7A1846FFF75FF914
S1131CE003460C4A23431363019B5B7B1A03019B4A
S1131CF09B7B1B011343019AD27B1A43019B1B7BE1
S1131D001B04044913434B6300BF04B010BD00BF60
S1131D102435000000400E4024400E4000B585B03C
S1131D2001901120FFF7BEFC0346022B04D142F2BE
S1131D3062711448FEF762FC134B9A6B134B134009
S1131D40019A12781A43019B5B78DB021A43019BC8
S1131D509B781B061A43019BDB781B0213430393F6
S1131D60094B9B6B039A9A4207D001220021002061
S1131D7000F01CF8044A039B936300BF05B05DF8B0
S1131D8004FB00BF2435000000400E4080E4FFF84F
S1131D9082B00346ADF80630034ABDF8063013801E
S1131DA000BF02B0704700BF1410002000B589B016
S1131DB003468DF807300B468DF8063013468DF830
S1131DC005309DF80730042B3BD801A252F823F0CC
S1131DD02D1E00001B1E0000F71D0000E51D000065
S1131DE0091E000001230593022304930123079392
S1131DF0002306932BE00423059308230493032371
S1131E0007930223069322E01023059320230493CF
S1131E10052307930423069319E0402305938023A5
S1131E200493072307930623069310E04FF480736B
S1131E3005934FF40073049309230793082306932F
S1131E4005E042F609014948FEF7D8FB8BE09DF80E
S1131E500630002B6AD000238DF80F309DF8073030
S1131E60022B1BD1FFF7B2F80346002B16D1404BCF
S1131E70DB6B03F48063002B04D142F618013B486A
S1131E80FEF7BCFB01238DF80F303A4B5B6A03F07D
S1131E900103012B02D10120FFF7A2F8354A059B6B
S1131EA0136600BF06993448FEF7C0FE0346002BB4
S1131EB0F8D09DF80530002B55D000BF07992E4867
S1131EC0FEF7B4FE0346002BF8D09DF80730022B32
S1131ED049D19DF80F30002B45D0264B5B6A03F0A7
S1131EE00103012B05D101222021022000F08EF9EB
S1131EF003E00021022000F02DF9022000F03EF85A
S1131F000290012200210220FFF750FF02990220D3
S1131F1000F074F8174A059B136600BF079916482A
S1131F20FEF784FE0346002BF8D01CE0114A049B04
S1131F30136600BF0F4BD3F890300121069A01FAC3
S1131F4002F21340002BF5D19DF80530002B0AD086
S1131F5000BF084BD3F890300121079A01FA02F22E
S1131F601340002BF5D109B05DF804FB24350000C3
S1131F7000300E4000400E4090400E4000B585B049
S1131F8003468DF807309DF80730013B032B24D816
S1131F9001A252F823F000BFA91F0000CD1F0000CA
S1131FA0B51F0000C11F0000124B1B6AC3F30803D6
S1131FB003931AE00F4B1B6903F07F03039314E0B0
S1131FC00C4B9B6903F07F0303930EE0094BD3F89A
S1131FD09C30C3F30A03039307E00023039342F600
S1131FE095010548FEF70AFB00BF039B184605B0A0
S1131FF05DF804FB00400E402435000000B585B0B8
S1132000034600918DF807309DF80730013B032B00
S113201000F28D8001A252F823F000BF2D200000B1
S1132020E12000006D200000A7200000009BB3F514
S1132030007F04D342F6BA014248FEF7DFFA009B60
S1132040C3F30803009300BF1A213F48FEF7EEFDD7
S11320500346002BF8D13D4B1B6A23F4FF7323F096
S113206001033A49009A13430B6266E0009B7F2BFD
S113207004D942F6C7013348FEF7C0FA009B03F0C7
S11320807F03009300BF18212F48FEF7CFFD0346BE
S1132090002BF8D12D4B1B6923F07F022B49009BA9
S11320A013430B6149E0009B7F2B04D942F6E20104
S11320B02448FEF7A3FA009B03F07F03009300BFBC
S11320C019212148FEF7B2FD0346002BF8D11F4B1E
S11320D09B6923F07F021D49009B13438B612CE015
S11320E01A4BD3F8903003F00403002B04D042F6CB
S11320F0F2011448FEF782FA144B5B6A23F03003B2
S1132100124A43F010035362009BDB0903F00F03F0
S11321101846FEF744FF03900C4B1A6B0C4B13400C
S1132120009A1A430949039B13430B6305E042F6E3
S11321300C110448FEF762FA00BF00BF05B05DF859
S113214004FB00BF2435000040410E4000400E4017
S113215000F8FF0F00B585B0034600918DF80730F5
S11321609DF80730022B04D042F624112448FEF7D0
S113217045FAFEF72BFF0346002B03D14FF440032F
S113218003931FE0009B302B10D0009B302B11D801
S1132190009B002B06D0009B202B0BD14FF4000397
S11321A003930FE04FF4400303930BE04FF4400319
S11321B0039307E0134B039342F63F111048FEF7D5
S11321C01DFA00BF00BF104BD3F89020039B1340AF
S11321D0039A9A42F7D1039B03F48003002B0AD09D
S11321E0094BD3F8A03003F48063002B14BF012300
S11321F00023DBB200E00123184605B05DF804FBC0
S113220024350000FF33E10700400E4000B583B0E1
S1132210034600918DF8073013468DF806309DF87B
S11322200730022B16D1009B002B07D00F4B4FF425
S11322308062C3F8A8200D4A009B53669DF80630BF
S1132240002B0DD09DF8073000991846FFF782FF48
S1132250034607E042F675110548FEF7CFF900E0A2
S113226000BF0123184603B05DF804FB00400E4094
S11322702435000082B0EFF310830093009B019398
S113228072B600BF019B184602B0704782B001903D
S1132290019B002B01D162B600BF00BF02B07047A2
S11322A000B587B0039002910192029B1F2B03D9C2
S11322B091210A48FEF7A2F9039B03F1424303F577
S11322C08013DA00029B13449B000593059B019A3B
S11322D01A6000BF07B05DF804FB00BF9C35000026
S11322E084B001900091019B03F1424303F58013F4
S11322F0DA00009B13449B000393039B1B6818465E
S113230004B07047054B1B6803F04003002B01D158
S1132310012300E000231846704700BF3C300E4004
S113232008B5FFF7EFFF034683F00103DBB2002B90
S113233008D100BF12210448FFF7D2FF0346002B47
S1132340F8D100E000BF08BD04300E4008B5FFF727
S1132350E7FF044B5B681B0C03F00303DBB2184676
S113236008BD00BF00300E4082B00190024A019BBC
S1132370D36200BF02B0704700300E40014B5B6A6D
S11323801846704700300E40024B00225A6300BFCB
S1132390704700BF00300E40024B4AF6E8525A63C1
S11323A000BF704700300E4082B003468DF80730FE
S11323B09DF80730C3F10203102202FA03F3184612
S11323C002B0704784B001901D4B9B690393039B3B
S11323D023F03F030393019B1B78002B01D00422BD
S11323E000E00022019B5B78002B01D0022300E077
S11323F000231343019A9278002A01D0082200E0B6
S113240000221343019AD278012A01D1012200E06B
S113241000221343019A12791343039A134303933B
S1132420074A039B9361064B1B6823F44032019BCC
S11324305B791B04024913430B6000BF04B070476F
S113244000300E4000B585B001900B468DF8033086
S1132450FFF758FF034683F00103DBB2002B2AD1B8
S1132460019B002B0FD1164BD3F800311B0A03F04C
S11324701F0301330293FEF745F80246029B02FB59
S113248003F3039301E0019B03930E4B1B78002B92
S11324900AD0039B0C4A934206D89DF80330194690
S11324A0022000F013F807E09DF8033019460020DD
S11324B000F00CF800E000BF05B05DF804FB00BFBD
S11324C000400E40AC100020002D310110B586B044
S11324D003460A468DF8073013468DF80630FFF799
S11324E011FF034683F00103DBB2002B3FD1FFF75A
S11324F02DFF03461A469DF80730934239D01E4BF0
S1132500D3F800311B0A03F01F0301330593FDF7D1
S1132510F9FF0490049B059A02FB03F303939DF8CF
S11325200730022B0CD1039B144A934204D94FF475
S1132530E3611348FEF762F802210498FEF716FDE2
S1132540104C9DF807301846FFF72EFF0346236111
S11325509DF80630002B01D0FFF7E2FE9DF807300E
S1132560002B07D100210498FEF700FD02E000BF14
S113257000E000BF06B010BD00400E40002D310148
S1132580EC35000000300E4001231846704700006F
S113259000B583B00C4BDB6E0B4A43F08073D366FB
S11325A000210A48FFF79CFE0190019B002B03D0F9
S11325B0042000F075FD02E0002000F071FD00BF72
S11325C003B05DF804FB00BF00300E404C300E40F9
S11325D000B58BB001230993099B1B050893424B5B
S11325E0DB6C1B0A03F00F030793404B1B881A464E
S11325F03E4B1B8828335B08134403F12801079BD7
S11326005A1C13469B001344B1FBF3F3013B06939E
S1132610069B059307230493049A059B934228BFC2
S113262013460693069B1B060693069B23F0E06362
S1132630002B04D040F6ED012D48FDF7DFFF089B89
S113264023F4E003002B04D040F6EE012848FDF704
S1132650D5FF254BDB6C23F0EE620699089B0B43F8
S113266021491343CB64234BB3F90030002B36DBF1
S1132670204BB3F90030ADF80E30BDF80E20BDF894
S11326800E3028335B08134403F12802079B0133FF
S11326905900079B01335B080B44B2FBF3F302932D
S11326A0029B019307230093009A019B934228BF46
S11326B013460293029B1B010293029B23F07003B7
S11326C0002B04D040F606110948FDF797FF064B8E
S11326D01B6D23F070020449029B13430B6500BF7A
S11326E00BB05DF804FB00BF00300E40A4100020C6
S11326F0EC350000A810002082B001900B46ADF824
S11327000230019B9AB2044B1A80044ABDF802308D
S1132710138000BF02B07047A4100020A81000204E
S113272000B583B003468DF807309DF80730002BC1
S113273002D0012B04D007E0084B094A9A6509E04E
S1132740064B084A9A6505E040F632110648FDF743
S113275055FF00BF00BF03B05DF804FB00300E401E
S113276077402057372110B7EC35000000B585B00D
S113277003468DF807300B468DF8063013468DF866
S11327800530344BD3F8803103939DF80630032B86
S11327901CD801A252F823F0A9270000B127000099
S11327A0BB270000C5270000039BDBB2039314E0A2
S11327B0039B1B0ADBB203930FE0039B1B0CDBB2EE
S11327C003930AE0039B1B0E039306E040F6761185
S11327D02148FDF713FF002338E09DF80530002B56
S11327E016D1039B1B030393039B23F47043002B19
S11327F006D040F681111848FDF700FF002325E0BC
S1132800164BDB6E23F470421449039B1343CB66CF
S11328109DF80530012B18D1039B1B030393039BE5
S113282023F47043002B06D040F68D110A48FDF7BF
S1132830E5FE00230AE0094BD3F8EC3023F47042A0
S11328400649039B1343C1F8EC300123184605B035
S11328505DF804FBB081E00FEC35000000300E4061
S113286000B589B00390029111461A460B468DF8C3
S1132870073013468DF80630002307930023069390
S11328809DF806301B029DF80720002A01D0012282
S113289000E0002213430593059B40F2013293426A
S11328A05CD0059B40F20132934200F29380059B79
S11328B0B3F5407F00F08280059BB3F5407F00F2C2
S11328C08980059B40F2012293423BD0059B40F254
S11328D0012293427ED8059BB3F5007F62D0059B0D
S11328E0B3F5007F76D8059B40F2011293421DD0C8
S11328F0059BB3F5817F6DD2059BB3F5807F45D0F1
S1132900059BB3F5807F65D8059B002B32D0059BD2
S1132910012B5FD1374BD3F874310793079B1B0A04
S1132920DBB20693079BDBB2079359E0314BD3F834
S113293074310793079B1B0E0693079B1B0CDBB29A
S113294007934DE02B4BD3F878310793079B1B0A71
S1132950DBB20693079BDBB2079341E0254BD3F828
S113296078310793079B1B0E0693079B1B0CDBB266
S1132970079335E01F4BD3F86C310793079B1B0A71
S1132980DBB20693079BDBB2079329E0194BD3F81C
S11329906C310793079B1B0E0693079B1B0CDBB242
S11329A007931DE0134BD3F870310793079B1B0A61
S11329B0DBB20693079BDBB2079311E00D4BD3F810
S11329C070310793079B1B0E0693079B1B0CDBB20E
S11329D0079305E040F6F2110748FDF70FFE00BF2C
S11329E0039B079A1A60029B069A1A6000BF09B0FB
S11329F05DF804FBB081E00FEC35000000B585B054
S1132A0001906C4B02229A636A4B9B6B03F00F0399
S1132A10022B06D040F616216748FDF7EFFD002390
S1132A20C3E0FFF7B1FD019B1B89C82B04D94FF408
S1132A3022616148FDF7E2FD019B9A88019B1B8995
S1132A409A4204D940F621215B48FDF7D7FD019B4A
S1132A50B3F90C30C82B04DD40F622215648FDF7AB
S1132A60CDFD019B5B78012B09D1019B9B88C82B71
S1132A7012D940F626215048FDF7C0FD0CE0019B19
S1132A805B78022B08D1019B9B880A2B04D940F662
S1132A902B214948FDF7B2FD019BDB8842F21072FD
S1132AA0934204D940F633214348FDF7A7FD019B27
S1132AB0DB884A2B02D80023039315E0019BDB88B3
S1132AC0B3F5FA7F03D24FF0805303930CE0019BDC
S1132AD0DB8840F6C312934203D84FF000530393AC
S1132AE002E04FF040530393324BDB6C23F040532E
S1132AF023F00103019AB2F90C20002A01DB012121
S1132B0000E00021039A0A432A491343CB64294B6A
S1132B10D3F8EC30274A43F44073C2F8EC30019BFD
S1132B209A88264B1A80FFF733FD019B1B891A46AE
S1132B30019BB3F90C3019461046FFF7DDFD019BEC
S1132B409B88184600F03AFA019B9B7B1846FFF7D6
S1132B50E7FD019B5B8801220121184600F0C0F8C3
S1132B60034683F00103DBB2002B06D040F66A2152
S1132B701148FDF743FD002317E00E4BDB6B0D4AB4
S1132B8043F48063D363019B5B78184600F01AF822
S1132B90019B9B7A202B01D1012300E000231A46DC
S1132BA005210748FFF77CFB0123184605B05DF8B3
S1132BB004FB00BF00300E40EC350000A6100020DE
S1132BC03C300E4000B585B003468DF80730424BCB
S1132BD05B6B012B0CBF012300238DF80F30FFF733
S1132BE0DBFB00BF3C4B9B6F03F00103002BF9D1CF
S1132BF0394B1B6C03F003030293029B002B04D09C
S1132C0001220D213548FFF74BFB029BDBB29DF8F7
S1132C1007209A4209D19DF80730002B58D1002291
S1132C200D212E48FFF73CFB52E0029B032B02D000
S1132C30029B002B22D19DF80730022B03D09DF874
S1132C400730012B1AD14FF40020FFF78DFB00BF92
S1132C50214B9B6F03F00103002BF9D11E4B1B6C1E
S1132C6023F003031C4A43F00103136400BFFFF77E
S1132C7085FB034603F40023002BF8D000BF164B5A
S1132C809B6F03F00103002BF9D1134B1B6C23F052
S1132C9003029DF80730104913430B6400BF0E4B29
S1132CA09B6F03F00103002BF9D19DF80730002B33
S1132CB014BF01230023DBB21A460D210748FFF796
S1132CC0EFFA9DF80F30002B03D0FFF75DFB00E017
S1132CD000BF05B05DF804FB00300E4054300E40D8
S1132CE010B594B001900B468DF8033013468DF85F
S1132CF00230002313930023119309AB00221A60BE
S1132D005A609A6006AB00221A605A609A6003AB5C
S1132D1000221A605A609A60A44B1B88ADF80830F0
S1132D2000238DF80A30019BB3F5E16F06D3019BB4
S1132D3040F6B832934201D8012300E000238DF815
S1132D4043309DF8433003F001038DF843309DF880
S1132D50433083F00103DBB2002B06D040F67B3115
S1132D609348FDF74BFC00231DE1019BB3F5E16F94
S1132D708CBF012300238DF842309DF84230002B94
S1132D800AD04FF4E163139340F6B8331193119AC8
S1132D90139BD31A129309E04FF4966313934FF4E1
S1132DA0E1631193119A139BD31A12939DF8423045
S1132DB0002B0BD07F4BD3F868310893089B1B0E74
S1132DC00593089B1B0CDBB208930AE0794BD3F8FC
S1132DD068310893089B1B0ADBB20593089BDBB29E
S1132DE00893754BDB6C1B0FDBB203F00303DBB200
S1132DF08DF808309DF808309DF8422003A906A8F4
S1132E00FFF72EFD6C4BD3F8EC301B0ADBB203F05A
S1132E100303DBB28DF809309DF809409DF8422088
S1132E2003AB191D06AB181D2346FFF719FD019AC4
S1132E30139BD31A0599089A8A1A03FB02F2129B70
S1132E40B2FBF3F30B930B9A089B13440B93019A75
S1132E50139BD31A0399069A8A1A03FB02F2129B54
S1132E60B2FBF3F30993099A069B13440993019A5D
S1132E70139BD31A0499079A8A1A03FB02F2129B32
S1132E80B2FBF3F30A930A9A079B13440A930B9A2F
S1132E90059B9A4213D80B9A089B9A420FD30A9A1D
S1132EA0049B9A420BD80A9A079B9A4207D3099A21
S1132EB0039B9A4203D8099A069B9A4206D240F68B
S1132EC0C9313B48FDF79AFB00236CE09DF80230C2
S1132ED0002B12D0384BDB6D23F4FE4323F00203A6
S1132EE00B9A120213439DF84220002A01D00222B9
S1132EF000E0002230491343CB659DF80330002BDA
S1132F0050D09DF808109DF8423000221846FFF773
S1132F102DFC034683F00103DBB2002B06D040F600
S1132F20D8312348FDF76AFB00233CE09DF80910E3
S1132F309DF8423001221846FFF718FC034683F03F
S1132F400103DBB2002B06D04FF43E611848FDF7B5
S1132F5055FB002327E0099B0F930A9B0E930E9ABF
S1132F600F9B934238BF13460993099B0D93E723A4
S1132F700C930C9A0D9B934228BF134609930E4B56
S1132F805B6E23F4FF7323F00103099A5200134389
S1132F909DF84220002A01D0012200E000220649C7
S1132FA013434B660123184614B010BD3C36000091
S1132FB0EC350000B081E00F00300E4000B585B064
S1132FC0019000230393344B1B6F03F00703029318
S1132FD0314BDB6C03F00103002B14D0029B012B5B
S1132FE011D9019B132B02D8042303933DE0019BC9
S1132FF0132B05D9019B272B02D80823039334E014
S11330001023039331E0244BDB6C03F00103002B0A
S113301014D1029B012B11D8019B092B02D8042344
S1133020039322E0019B092B05D9019B132B02D8A2
S11330300823039319E01023039316E0164BDB6C6B
S113304003F00103002B0BD0029B012B08D8019B3A
S1133050272B02D80823039307E01023039304E0EB
S113306040F61E410D48FDF7C9FA039B013B03934B
S1133070039B1A02039B1B0313430393064BDB6C52
S113308023F47F420449039B1343CB64FFF7A0FA64
S113309000BF05B05DF804FB00300E40EC350000C5
S11330A000B585B003468DF8073000211248FFF7BC
S11330B017F90390039B002B03D19DF80730012BD4
S11330C007D9039B002B04D140F63C410B48FDF784
S11330D095FA0B4B1B6F23F007029DF80730084944
S11330E013430B67074B1B881846FFF767FF00BFA6
S11330F005B05DF804FB00BF4C300E40EC35000019
S113310000300E40A610002010B584B0064B6C466B
S11331100FCB84E80F006B461846FFF76FFC0023C3
S1133120184604B010BD00BF4036000000B583B09F
S11331306B4600221A609A8000238DF80030002329
S11331408DF8013000238DF8023000238DF8033010
S113315000238DF8043002238DF805306B461846A1
S1133160FFF730F90023184603B05DF804FB0000B4
S113317030B58DB01F4B06AC1D460FCD0FC42B6868
S1133180238000238DF828304FF0FF330B931A4B24
S11331905B6803F40023002B04D1174B9B68C3F333
S11331A008030B930B9BB3F1FF3F08D1134B1B8810
S11331B04FF6FF72934202D0104B1B880B930B9B6C
S11331C0B3F1FF3F02D14FF4B4730B930B9BB3F1F4
S11331D0FF3F03D00B9B9BB2ADF81E300848FDF7B0
S11331E0D5F906AB1846FEF719FD002318460DB0B5
S11331F030BD00BF50360000B081E00F0001E00F89
S113320000F0490200B583B00B4B1B680193002307
S11332108DF807303F238DF8043007238DF80630EE
S113322001AB1846FEF77AFD1420FEF7B1FD00232A
S1133230184603B05DF804FB6436000082B0034610
S113324000918DF807309DF90730002B0ADB009BB5
S1133250DAB20C499DF907305201D2B20B4483F81B
S113326000230BE0009BDAB207499DF8073003F016
S11332700F03043B5201D2B20B441A7600BF02B0D2
S1133280704700BF00E100E000ED00E000B583B04E
S1133290FB238DF807300CE09DF907300521184613
S11332A0FFF7CCFF9DF90730DBB20133DBB28DF8B9
S11332B007309DF90730322BEEDD0023184603B0AA
S11332C05DF804FB08B5FDF789F8FDF798F8FDF7FC
S11332D098F8FDF798F8FDF798F800BF08BD08B511
S11332E0FDF795F8FDF795F8FDF795F8FDF795F8D6
S11332F000BF08BD08B5074B044613B10021AFF366
S11333000080054B1868836A03B19847204600F093
S113331031F800BF000000006836000070B50D4DA4
S11333200D4C641BA4100026A64209D10B4D0C4C75
S113333000F022F8641BA4100026A64205D170BD3B
S113334055F8043B98470136EEE755F8043B984797
S11333500136F2E778100020781000207810002061
S11333607C10002002440346934200D1704703F8C6
S1133370011BF9E7FEE700BFF8B500BFF8BC08BCC5
S11333809E467047F8B500BFF8BC08BC9E4670471F
S1133390633A5C75736572735C6669726D776172AA
S11333A0652D315C73696D706C69636974797374CC
S11333B07564696F5C73646B735C6765636B6F5F83
S11333C073646B5C706C6174666F726D5C656D6C5C
S11333D069625C696E635C656D5F6275732E68001B
S11333E0433A2F55736572732F6669726D776172F4
S11333F0652D312F53696D706C69636974795374E9
S11334007564696F2F53444B732F6765636B6F5FEC
S113341073646B2F706C6174666F726D2F656D6C65
S113342069622F7372632F656D5F6164632E63003D
S1133430633A5C75736572735C6669726D77617209
S1133440652D315C73696D706C696369747973742B
S11334507564696F5C73646B735C6765636B6F5FE2
S113346073646B5C706C6174666F726D5C636F6DBA
S11334706D6F6E5C696E635C736C5F636F6D6D6FB3
S11334806E2E6800633A5C75736572735C6669726C
S11334906D776172652D315C73696D706C696369F8
S11334A0747973747564696F5C73646B735C67655A
S11334B0636B6F5F73646B5C706C6174666F726D69
S11334C05C656D6C69625C696E635C656D5F627599
S11334D0732E6800633A5C75736572735C66697217
S11334E06D776172652D315C73696D706C696369A8
S11334F0747973747564696F5C73646B735C67650A
S1133500636B6F5F73646B5C706C6174666F726D18
S11335105C656D6C69625C696E635C656D5F636D4F
S1133520752E6800433A2F55736572732F6669725E
S11335306D776172652D312F53696D706C696369A4
S1133540747953747564696F2F53444B732F676593
S1133550636B6F5F73646B2F706C6174666F726DF5
S11335602F656D6C69622F7372632F656D5F636D78
S1133570752E630040787D0100000000005A62024D
S113358000010000C0CF6A0002000000809FD50047
S113359002010000002D310102020000633A5C7553
S11335A0736572735C6669726D776172652D315CE7
S11335B073696D706C696369747973747564696F28
S11335C05C73646B735C6765636B6F5F73646B5C84
S11335D0706C6174666F726D5C656D6C69625C6958
S11335E06E635C656D5F6275732E6800433A2F5598
S11335F0736572732F6669726D776172652D312FF1
S113360053696D706C696369747953747564696F17
S11336102F53444B732F6765636B6F5F73646B2F1A
S1133620706C6174666F726D2F656D6C69622F7357
S113363072632F656D5F656D752E63000000000079
S1133640000108070F000A00C8002000A0000100C4
S113365000000000A00068010A200706020A04070F
S10F366000000000000207001810002009
S10B366CE0CAFF7F0100000029
S10F367480360000001000202000000040
S113368000F0490200800000C0EA2101C0EA2101E3
S1133690C0EA2101FFFF000000000000000000005C
S11336A00000000000000000000000000000000016
S11336B00000000000000000000000000000000006
S11336C000000000000000000000000000000000F6
S11336D000000000000000000000000000000000E6
S11336E000000000000000000000000000000000D6
S11336F00000000000000000310100000D01000086
S9030421D7
