:10000000001000200905000005050000050500009E
:1000100005050000050500000505000005050000B8
:1000200005050000050500000505000005050000A8
:100030000505000005050000050500000505000098
:100040000505000005050000050500000505000088
:100050000505000005050000050500000505000078
:100060000505000005050000050500000505000068
:100070000505000005050000050500000505000058
:100080000505000005050000050500000505000048
:100090000505000005050000050500000505000038
:1000A0000505000005050000050500000505000028
:1000B0000505000005050000050500000505000018
:1000C0000505000005050000050500000505000008
:1000D00005050000050500000505000005050000F8
:1000E00005050000050500000505000005050000E8
:1000F00005050000050500000505000005050000D8
:1001000005050000050500000505000010B5054CBB
:10011000237833B9044B13B10448AFF300800123B3
:10012000237010BDB4100020000000004425000022
:1001300008B5034B1BB103490348AFF3008008BD6A
:1001400000000000B810002044250000A3F5803A0C
:10015000704700BF174B002B08BF134B9D46FFF79E
:10016000F5FF00218B460F461348144A121A02F07D
:1001700063F80E4B002B00D098470D4B002B00D09E
:1001800098470020002104000D000D48002802D0EF
:100190000C48AFF3008002F02BF82000290000F09B
:1001A0007AF802F011F800BF00000800000000001B
:1001B0000000000000100020B410002030110020CA
:1001C000000000000000000080B52A482A4D2B4C9A
:1001D0002B4E012100F040FB2A48012100F03CFB9E
:1001E000002301221146184601F000FD00210123E1
:1001F0000422084601F0FAFC2349284601F03EFE9D
:100200000022AA676B6F43F003036B6722602368C9
:10021000F15CF1B9184D1D4F0023236026684E2E66
:1002200007DC284601F0E2FE2368B855FA5C0D2A87
:1002300016D1174E0023336033682268934211DBD6
:1002400028460D2101F0E2FE0C21284601F0DEFED9
:10025000E2E7284601F0DAFE236801332360D6E79F
:100260000133DAE7F95C284601F0D0FE3368013348
:10027000E1E700BF00350A00000001402011002026
:100280001C1000200042040000100020D0100020AC
:1002900024110020704708B501F04AFFFFF794FFD2
:1002A00001F053FFFFF7F6FFFAE700F080B8000017
:1002B00008B50421112000F0AFFE0948012100F02B
:1002C000CBFA0848022100F0A7FE0748022100F0FF
:1002D000A3FE0648022100F09FFE002008BD00BFDB
:1002E00030253E0002001E0003002000050024000F
:1002F00008B5224B01225A64214BD3F8FC20214B34
:10030000120E12D14AF6E851C3F89011D3F89811A1
:1003100041F00401C3F89811C3F89021D3F8642187
:1003200042F40052C3F8642101E0012AF6D0164AD3
:10033000136A23F4441343F488131362A2F5804232
:10034000136843F48073136002F54052D2F8A4316D
:1003500043F4F843C2F8A43101F0CCFE00F03EF8BB
:1003600001F05AFE01F07CFE01F0B0FEFFF7A0FFA5
:1003700001F068FEBDE8084000F022B800000E4021
:100380000081E00F00300E4000400E4008B500F044
:100390005DF9BDE8084000F027B800F006B87047E6
:1003A000704770477047704770470F20704708B517
:1003B000002318460422052101F018FC002008BD86
:1003C00008B50548012100F047FAFFF76EFFBDE8C8
:1003D000084000F019B800BF00350A0001480121AB
:1003E00000F03ABA00350A00082000F087B9000092
:1003F000014B1022DA60704700A00046014B10222A
:10040000DA60704700A0004470B5384D384E0FCD0B
:1004100088B001AC0FC495E8070084E80700354CAC
:100420003548012100F018FA3046012100F014FA95
:100430000125324B039301A920468DF8125001F09B
:1004400075FD2B4604220621022001F0CFFB2A462F
:1004500000230721022001F0C9FB2B4604220821BA
:10046000022001F0C3FB042211462B46002001F0BC
:10047000BDFB234BA3670B2363674FF4487001F068
:100480006FFE1420FFF7BAFF01F06AFE2320FFF78A
:10049000AFFF01F065FEB9212046FFF7AFFF01F085
:1004A000ABFDFFF7A5FF00231A460621022001F04D
:1004B0009DFB00231A460721022001F097FB2B46E3
:1004C00000220821022001F091FB002210462B4659
:1004D000042101F08BFB204601F088FC0021A1677C
:1004E0003046616700F0B8F908B070BD64220000C2
:1004F000005204000004014000350A0000127A0096
:100500000B0B000BFEE7000008B500F083F8124B60
:1005100012498B4212D3124B124900208B4218D33E
:10052000FFF718FE186850F82240586840F822403B
:10053000013298688242F5D30C33EAE70022F8E7EB
:100540001C6844F8220001325C68A242F8D30833E8
:10055000E4E70022F8E700BF4C2500005825000022
:1005600058250000582500000048704700F0490257
:10057000104AD2F8943003F00703023B032B13D840
:10058000DFE803F00C14020E0B4B1B68D2F80001DD
:10059000C0F304200130B3FBF0F07047074BF4E7E1
:1005A000074B1B685B08F1E7054BEEE74FF4004390
:1005B000ECE700BF00400E40401000203810002043
:1005C0003C10002008B5FFF7D3FF054BD3F80831E6
:1005D000C3F308230133B0FBF3F0024B186008BDEE
:1005E00000400E4034100020014B1868704700BFD7
:1005F00038100020054B1860054BD3F8943003F0F9
:100600000703022B01D1FFF7DDBF70473810002030
:1006100000400E40044B054A9A60D3F8882042F40B
:100620007002C3F88820704700ED00E00000000071
:100630004FF4004070474FF47A707047014B1868D0
:10064000704700BF40100020FEE7000008B52248B8
:10065000012100F001F9012304220221052001F00B
:10066000C5FA002001F0ACFA1C4B0122C3F8102897
:100670001146042000F03EFC194800F07BFA194BAB
:10068000D3F8F02042F00102C3F8F020D3F8FC20A8
:1006900042F08072C3F8FC20A3F55D43124A1A6051
:1006A00000F5D520114B00F2FC40B0FBF3F0104BED
:1006B000013802221861C3F8F0204FF48072C3F8A9
:1006C00004234FF060430B4AC3F8B02F0A4AC3F823
:1006D000802E002008BD00BF00350A0000801442B3
:1006E00006000E0000ED00E0FF030040F8590D0089
:1006F000000004E055CEACC5090001004FF0604297
:100700000123D2F8001E03FA00F00843C2F8000EDD
:10071000002070470C4B984210D90C4B984210D9CE
:10072000022201230A490B640A49D1F8003123F05F
:10073000807343EA0263C1F8003170470022134618
:10074000F0E70122FBE700BF0048E8010090D0037A
:100750000000C84300400E4038B5114B5B68114B98
:1007600000221C46C9B21D798D4202D11D68854206
:1007700012D20132052A03F10803F4D10A4841F2EA
:10078000CE51FFF761FF032205494B6823F0407308
:1007900043EA02634B6038BD04EBC2025279F3E7CF
:1007A00000000E4050230000802200001F2810B5DA
:1007B000044604D903484FF4B371FFF745FF012005
:1007C000A04010BDD022000070B5084C41F6713633
:1007D000256C2664FFF7C8FE0021FFF7BDFFADB210
:1007E000B5421CBF0023236470BD00BF00000E4053
:1007F000044BDB6B5B0604D4034AD2F8C830002BF1
:10080000FBD1704700300E400000C64308B5FFF72B
:10081000EFFF024B5868C0F3014008BD00300E40A6
:10082000044BD3F84421D20703D4D3F8402110421B
:10083000FBD1704700400E4070B5064C41F6713652
:10084000256C2664FFF788FFADB2B5421CBF0023BC
:10085000236470BD00000E4038B5C0F30323013B94
:10086000092B24D8DFE803F02A2D232305161923AA
:100870001C20154C0023C0F3043513B11846FFF7B4
:10088000CFFF04F1424404F5801405EBC404A40036
:10089000216038BD0D4C0123EDE70D4C1023EAE734
:1008A0000C4C4FF48033E6E70B4C0023E3E7BDE844
:1008B00038400A4841F66A31FFF7C6BE084C0023AB
:1008C000D9E7084C0023D6E7B0400E40E0400E4088
:1008D000E8400E40F0400E4050410E4080220000A3
:1008E00000400E40C0400E4008B5C0F30313013B6A
:1008F000092B60D8DFE803F0050B0F195F5F1F239A
:100900003C532E4BD3F80001C0F3042008BD2B4B01
:10091000D3F81401F8E7294BD3F80001C0F30060C5
:100920000130FFF743FF0138F0E7244BD3F80C0107
:10093000C0F30820EAE7214BD3F80801F8E7204B81
:10094000984209D01F4B98420CD041F60E511E48D8
:10095000FFF77AFE0020D9E7184BD3F8200100F00A
:100960000F00DEE7154BD3F82001C0F30110D8E7E4
:10097000164B984208D003F5B01303F58053984204
:1009800006D041F63251E2E70C4BD3F82801ECE7F0
:100990000A4BD3F82801C0F301200430C1E70C4B07
:1009A000984205D1054BD3F8300100F00300ADE7C4
:1009B00041F64151CBE741F66651C8E700400E4091
:1009C0008006160080162E008022000090171A0064
:1009D000A009140008B5FFF787FF013008BD00002B
:1009E00000F00F00013808B5072844D8DFE800F010
:1009F000040F1943232D4335264BD3F8943003F0CD
:100A00000703023B052B3DD8234AD05C08BD214B90
:100A1000D3F8803003F00703013B032B34D81F4A7F
:100A2000F3E71C4BD3F8843003F00703013B032B9F
:100A30002AD81B4AE9E7174BD3F8883003F007039D
:100A4000013B032B20D8174ADFE7124B1B6F13F033
:100A5000010F0CBF07200920D8E70E4BD3F85C31FB
:100A600003F03003202B11D0302B11D0102B14BFEA
:100A700001200720CAE70C4842F2BA01FFF7E4FD63
:100A80000020C3E70520C1E70120BFE70420BDE740
:100A90000820BBE700400E40242300002A2300006A
:100AA0002E2300002A2300008022000038B52C4BA2
:100AB000984205460AD02B4B984207D02A4B9842C1
:100AC00004D02A4841F2CD61FFF7BEFD2846FFF76A
:100AD00087FF234B9D42044611D0224B9D4212D0EA
:100AE000214B9D4213D1224BD3F8804004F00704E0
:100AF000042C2DD8DFE804F02A11151D19001C4B19
:100B0000D3F88440F2E71A4BD3F88840EEE7174851
:100B100041F2FC61FFF798FDEAE7BDE83840FFF7D6
:100B200087BDBDE83840FFF789BDBDE83840FFF715
:100B300082BDFFF71DFD0E4B0446D3F80001C0F344
:100B400000600130FFF732FEB4FBF0F4204638BD00
:100B5000064841F24E71FFF777FD0024F6E700BF2B
:100B6000030020000500240002001E008022000077
:100B700000400E4038B500F47813B3F5B01F0546B9
:100B80007FD02ED8B3F5402F69D011D8B3F5802F80
:100B900054D006D843B1B3F5003F5AD041F69A413C
:100BA0001AE0B3F5202FF9D1BDE83840FFF7E0BCDB
:100BB000B3F5801F00F0A280B3F5A01F57D0B3F5A6
:100BC000602FEBD15B48FFF70BFF072800F0968002
:100BD0000928E9D041F290415748FFF735FD002040
:100BE00036E0B3F5381F5AD013D8B3F5001F5FD0E5
:100BF0000AD8B3F5D01F5DD0B3F5F01FCED14F4862
:100C0000BDE83840FFF752BFB3F5101FC6D14C48BE
:100C1000F6E7B3F5481F57D0B3F5781F00F0828090
:100C2000B3F5401FBAD14748FFF740FF464B044693
:100C3000D3F82801C0F3012004302BE0FFF798FC23
:100C4000414BD3F80C31C3F308230133B0FBF3F06D
:100C500038BDFFF78DFC3C4BD3F80831F3E7FFF7C5
:100C600087FC394BD3F81431C3F30423EDE7344840
:100C7000FFF71CFF344BD3F8303103F00303D840A7
:100C8000E6E72E48FFF712FF2F4B0446D3F820016A
:100C900000F00F00FFF78AFDB4FBF0F0D8E727481B
:100CA000FFF704FF284BD3F82031C3F30113E6E725
:100CB0002448A5E72348FFF7F9FE234B0446D3F861
:100CC0002801C0F30110E5E72048FFF789FE01384D
:100CD000072824D801A353F820F000BFDF0B000041
:100CE0001F0D00001F0D0000030D00001F0D000070
:100CF0001F0D0000FD0C00000B0D0000144B1868C8
:100D0000A6E7BDE83840FFF76FBCFFF731FC0E4B9C
:100D1000D3F80031C3F3042303FB000098E741F24A
:100D2000C74159E7FFF724FC04462846FFF752FE67
:100D3000B2E700BF06000E008022000002001E0085
:100D4000050024000300200000400E40B8003200DF
:100D500044100020014B1880704700BF481000204D
:100D6000013838B50C46032864D8DFE800F00244A7
:100D70001A2FB1F5007F04D3324842F6BA01FFF7CB
:100D800063FC314AC4F30804D2F86838002BFBD165
:100D90002E4A136A23F4FF7323F0010323431362E3
:100DA00038BD7F2904D9274842F6C701FFF74CFC1C
:100DB000254A04F07F01D2F86038002BFBD1234B89
:100DC0001C6924F07F040C431C61E9E77F2904D9E6
:100DD0001C4842F6E201FFF737FC1B4A04F07F0192
:100DE000D2F86438002BFBD1184B9C6924F07F04A7
:100DF0000C439C61D4E7154DD5F890305B0704D5C2
:100E0000104842F6F201FFF71FFC6B6A23F0300333
:100E100043F010036B62C4F3C311CB1C2A6B0C4963
:100E20000F2B01EA020128BF0F23214341EA03717E
:100E30002963B5E7BDE83840024842F60C11FFF7D8
:100E400003BC00BF802200000020C84300400E40C9
:100E500000F8FF0F022810B50C4604D0144842F6E3
:100E60002411FFF7F1FB134B5B6A13F0300F1BD01B
:100E7000202C16D0302C17D0B4B10D4842F63F11BB
:100E8000FFF7E2FB0C4B0B4AD2F8901033EA01015A
:100E9000FAD15B024ABFD2F8A0000120C0F3802043
:100EA00010BD4FF40003EEE74FF44003EBE700BF43
:100EB0008022000000400E40FF33E107022808B501
:100EC0000CD129B1094B4FF48060C3F8A8005966D2
:100ED0004AB1BDE808400220FFF7BCBF044842F613
:100EE0007511FFF7B1FB012008BD00BF00400E40A7
:100EF0008022000004282DE9F04704460F46914661
:100F00001FD83D4B3D4A13F800A03D4B13F800801D
:100F1000F1B93C4B33F810301366012303FA08F89B
:100F2000D2F8903013EA080FFAD1B9F1000F5AD075
:100F30000125324A05FA0AF5D2F890302B42FBD14E
:100F400051E0BDE8F047304842F60901FFF77CBBAD
:100F50002E4B022833F8106047D1536A13F0300F3C
:100F600043D12B4BDB6B5A0504D4274842F61801BA
:100F7000FFF76AFB214A536ADB0705D5536A23F062
:100F8000300343F010035362224D1C4BA8441E66ED
:100F90004FEA8808D8F80030002BFBD0B9F1000FD9
:100FA00021D05544AD002B68002BFCD0022C1AD167
:100FB000CFB1124F796A11F0010118D0012220211E
:100FC0002046FFF77BFFD7F89C400122002102203A
:100FD000FFF790FFC4F30A010220FFF7C1FE3E664F
:100FE0002B68002BFCD0BDE8F0870027CCE720461B
:100FF000FFF730FFE7E700BF3223000000400E405C
:101000003723000046230000802200003C2300001C
:1010100000300E408004F210112838B50C460FD075
:1010200000F00F000138072800F2EB80DFE810F035
:10103000240066009A00E9007D00B400E900C200C7
:10104000042912D1FFF7D0FA0546A8B1002128469D
:1010500000F08CFA023C0A2C45D8DFE804F04A473D
:101060003137444444443D0F4D00052904D1664BBB
:101070001D68664B9D42E9D80025EBE70320052457
:1010800001221146FFF736FFFFF79EFB0DB1FFF778
:10109000AFFB5F4B5C67FFF795FA0446FFF768FA12
:1010A000FFF738FBFFF7B2FB01462046FFF7C4FB12
:1010B000002D5DD128460121BDE8384000F056BA28
:1010C0005448FFF727FB02200446D9E75148FFF7B1
:1010D00021FB01240320D3E742F27B11BDE8384015
:1010E0004D48FFF7B1BA4FF40651F7E7012003244A
:1010F000C6E700200424C3E70724C5E7062933D147
:101100004548464D42F2BF11FFF79EFA424842F26F
:10111000CF11FFF799FAFFF72BFAFFF7FBFA404BD5
:101120000122C3F80826032321E006293D4DEDD016
:10113000013C092C2BD801A353F824F09511000091
:1011400073110000811100008F1100008F11000049
:10115000171100008F1100008F1100008F11000087
:101160006D110000304DE3E72C4DE1E704232B60C7
:1011700038BD012211460020FFF7BCFE0223F6E72E
:10118000012211461046FFF7B5FE0123EFE742F2B8
:10119000FA11A3E70023EAE7072904D0092906D0BA
:1011A00042F284219AE71A4B00221A67E0E7184BB3
:1011B0000122FAE74C1E072C1ED8DFE804F0201DA0
:1011C0001D161D1D0F0403221149D1F85C3123F0B7
:1011D000300343EA0213C1F85C31C9E7012211462A
:1011E0000420FFF787FE0122EEE7012211460220CC
:1011F000FFF780FE0222E7E742F2E2216EE70022DB
:10120000E2E742F2B93169E73C100020002D3101DC
:1012100000400E400148E8018022000080400E405E
:101220000010C84388400E4084400E4010B504466C
:101230001120FFF7D5FB042804D1274842F2A4610E
:10124000FFF702FA012200210220FFF753FE637824
:101250001BB9A3780BB9E37823B11F4842F2E061D0
:10126000FFF7F2F9237C012B04D11B4842F2E7611E
:10127000FFF7EAF9194A217C536A23F00103022996
:1012800008BF43F001035362154B2178C3F8A01443
:10129000637AA18843EAC123D362136BA07A217ACF
:1012A00003F07F630343E08843EAC02343EAC113AA
:1012B00003310F2928BF0F2143EA01731363A37B76
:1012C000617B1B0143EA0133E17B0B43217B43EA52
:1012D0000143536310BD00BF8022000000400E4058
:1012E0000000C84370B505461120FFF779FB0228BE
:1012F00004D10F4842F26271FFF7A6F90D4E0E4B72
:10130000B26B2C7813401C436B7844EAC324AB784F
:1013100044EA0364EB7844EA0324B36BA34205D0A8
:10132000002101220846FFF7E5FDB46370BD00BF50
:101330008022000000400E4080E4FFF8EFF31080B0
:1013400072B6704700B962B670470000034BD86BA5
:1013500080F04000C0F38010704700BF00300E40A6
:1013600038B542EA0323B3F5007F05460C463ED06C
:1013700019D8B3F5807F36D00AD883B3012B21D09A
:101380001F4840F6F211FFF75FF9002213461FE0F5
:1013900040F201129342F3D11A4BD3F824321A0EC1
:1013A000C3F3074314E0B3F5407F24D040F2013289
:1013B000934210D040F201229342E1D1114BD3F875
:1013C000283202E00F4BD3F82432C3F30722DBB2FA
:1013D0002B60226038BD0B4BD3F82832DFE7094B76
:1013E000D3F81C32F1E7074BD3F81C32D7E7054B93
:1013F000D3F82032E9E7034BD3F82032CFE700BF20
:10140000782300000081E00F08B5FFF79FFF20B1AF
:10141000024AD2F8C830002BFBD108BD0000C643F9
:101420001A4B022810B5D3F830320C4612D00328DC
:1014300013D0012814BFDBB2C3F307231B0323F42B
:101440007042ECB95AB140F681111148FFF7FCF82F
:10145000002010BDC3F30743F0E71B0EEEE70D4974
:10146000CA6E22F470421343CB660120F1E70949AA
:10147000D1F8EC2022F470421343C1F8EC30F4E7C9
:10148000002AF4D040F68D11DFE700BF0081E00FA5
:101490007823000000300E400378134A002B437875
:1014A00070B514BF04260026002B8378946914BFFE
:1014B00002250025002B037924F03F0443EA0403AE
:1014C000C47814BF08210021012C08BF43F0010398
:1014D00033432B430B4393611368417923F4403327
:1014E00043EA0143136070BD00300E40F8B5044676
:1014F0000F46FFF72BFF78B3FFF786FF174B5B68AC
:10150000C3F301439C4227D0154BD3F80061FFF78A
:101510002FF8022C05460FD1124BC6F3042606FB0A
:1015200000069E4204D910484FF4E361FFF78CF89F
:1015300002212846FFF780F9C4F1020210239340EC
:10154000064A13610FB1FFF75FFF2CB92146284609
:10155000BDE8F840FFF770B9F8BD00BF00300E409D
:1015600000400E40002D31017823000013B50246E3
:10157000FFF7ECFEC8B152B90D4B0191D3F8004111
:10158000FEF7F6FFC4F30422019902FB0002094BA7
:101590001B7843B1084B9A4205D8022002B0BDE83F
:1015A0001040FFF7A3BF0020F8E702B010BD00BF56
:1015B00000400E402E110020002D3101224B4AF632
:1015C000E85210B5596B5A639A6FD207FCD41B6C62
:1015D00013F003031EBF1D4A0124C2F8B44A83421C
:1015E00004D110B9194BC3F8B40A10BD032B00D0B5
:1015F0009BB9431E012B10D8134A4FF40023D3622A
:10160000936FDB07FCD4136C23F0030343F0010357
:1016100013640D4A536A1C03FCD50B4B9A6FD20717
:10162000FCD41A6C22F0030202431A649A6F12F07F
:101630000102FBD10038054C18BF01200129C4F874
:10164000B40A08BF5A63D0E700300E400000C6431A
:101650002DE9F04FA0F5E16389B00024B3F5966F52
:10166000CDE90244CDE90444CDE9064406468A4664
:10167000934605D940F67B315548FEF7E5FFA3E0D8
:10168000B0F5E16F534B8CBF0122002249D1D3F852
:101690001832C3F30721DBB2079104934FF4167598
:1016A0004FF4966748E0BBF1000F0ED0D9F85C20EC
:1016B00022F4FE4222F00202B6F5E16F42EA012274
:1016C00018BF02200243C9F85C20BAF1000F26D0EF
:1016D00020460021FFF7A4FE044610B940F6D83199
:1016E000CAE701214046FFF79BFE044610B94FF4BC
:1016F0003E61C1E7384A536EBD4238BF3D4623F4D0
:10170000FF73E72D23F0010328BFE725B6F5E16F4E
:1017100018BF43F0010343EA4503536654E0012434
:1017200052E0D3F81832190EC3F30743079104931C
:101730004FF496654FF4E167DFF89C90D9F84C4080
:101740000192C4F30174234605A902A8FFF708FE1D
:10175000D9F8EC30019AC3F30128434606A903A83F
:10176000FFF7FEFD049BF01B079FF91A4143B1FBF5
:10177000F5F299182CBF012300238F421ED3EBB939
:10178000069A039FD31B4343B3FBF5F3FF182CBF0B
:1017900001230023BA4211D383B9059B029AA3EB1C
:1017A000020C00FB0CF0B0FBF5F555192CBF012025
:1017B0000020AB4202D300283FF475AF044840F646
:1017C000C931FEF741FF0024204609B0BDE8F08F83
:1017D000782300000081E00F00300E40334A08B546
:1017E000136FD16C11F0010F03F0060344D0002BEE
:1017F00042D0132857D9143813288CBF102308233C
:101800002A49013BCA6C180322F47F4240EA0323B1
:101810001343CB64264BCA6C1B88C2F303222833C4
:10182000013202EB820003EB5303B3FBF0F3C86C0D
:10183000013B072B28BF072320F0EE6040EA03633B
:1018400043F48013CB641B4BB3F90030002B12DB45
:1018500003F12800C0F34E030344500800EB42029A
:10186000B3FBF2F20B6D072A28BF072223F07003A7
:1018700043EA02120A6508BDD16C01F00101194367
:1018800004D109280FD90A380928B6E7D26CD20743
:1018900002D50BB92728B0E7074840F61E41FEF7EE
:1018A000D3FE0023ACE70423AAE700BF00300E40BC
:1018B0002A1100202C110020782300000C4BD3F8B3
:1018C000803910B5044633B9012804D9094840F6D7
:1018D0003C41FEF7B9FE084A136F23F00703234388
:1018E0001367064BBDE810401888FFF777BF00BFAD
:1018F0000000C6437823000000300E40281100206D
:1019000038B55A4B02229A639B6B03F00F03934244
:10191000044607D0564840F61621FEF795FE0025EE
:10192000284638BD0389C82B04D951484FF4226199
:10193000FEF78AFEA28823899A4204D94C4840F6D1
:101940002121FEF781FEB4F90C30C82B04DD484894
:1019500040F62221FEF778FE6378012B55D1A3884B
:10196000C82B04D940F626214148FEF76DFEE288D7
:1019700042F210739A4204D93D4840F63321FEF7F3
:1019800063FEE3884A2B48D9B3F5FA7F47D340F684
:10199000C312934294BF4FF000524FF0405233496C
:1019A000B4F90C00CB6C23F0405323F00103002862
:1019B000A8BF43F001031343CB64D1F8EC30A288F5
:1019C00043F44073C1F8EC302A4B1A80CB6E43F0DD
:1019D0008073CB66284BD3F8800900B10420FFF751
:1019E0006DFF264B21891980254BB4F90C20A08866
:1019F0001A80FFF7F3FEA37BA3B1012B22D01C4872
:101A000040F63211FEF720FE0FE0022BAFD1A38883
:101A10000A2BACD940F62B21A6E70022BFE74FF0F6
:101A20008052BCE7114B174A9A6501226088114623
:101A3000FFF70EFE054640B90D4840F66A21FEF755
:101A400003FE6DE7094B104AEEE7084AD36B43F4F7
:101A50008063D3636078FFF7B1FDA37AA3F120021E
:101A600053425341044AC2F8943759E700300E40BC
:101A700078230000281100200000C6432A1100200E
:101A80002C11002077402057372110B738B50D466C
:101A9000044640B3012829D002282AD003282BD09D
:101AA00004280ED005282AD0831F012B09D9082825
:101AB00028D0092828D00A2803D10723EB40DB07C8
:101AC00004D4134840F22D41FEF7BEFD30200C2314
:101AD00010FB043404F18C44012104F5204401FA84
:101AE00005F5256038BD40F2FF33E7E74FF6C073D8
:101AF000E4E740F6FF73E1E74FF47F43DEE74FF69C
:101B0000FF73DBE70F23D9E74FF44043D6E700BF6D
:101B1000C823000038B50D46044640B3012829D03B
:101B200002282AD003282BD004280ED005282AD03A
:101B3000831F012B09D9082828D0092828D00A2872
:101B400003D10723EB40DB0704D4134840F2FE31F6
:101B5000FEF77AFD30200C2310FB043404F1884496
:101B6000012104F5204401FA05F5256038BD40F255
:101B7000FF33E7E74FF6C073E4E740F6FF73E1E7B2
:101B80004FF47F43DEE74FF6FF73DBE70F23D9E720
:101B90004FF44043D6E700BFC823000070B50546A8
:101BA0000E461446FFF7CAFB296881EA040202EADE
:101BB00006044C402C60BDE87040FFF7C3BB00003A
:101BC0001F2810B5044603D906485221FEF73CFDF4
:101BD000054AD2F8443423F003032343C2F84434C3
:101BE00010BD00BF1924000000A00040F8B50D464C
:101BF00016461F460446C8B301283AD002283BD0F7
:101C000003283CD004280ED005283BD0831F012B8D
:101C100009D9082839D0092839D00A2803D1072141
:101C2000E940CB0704D423484FF4B071FEF70CFD14
:101C300026B1294620466FB3FFF728FF04EB440383
:101C4000072D4FEA03134FF00F0126D8A80006FA1C
:101C500000F2814018481844FFF7A0FF4EBB294608
:101C6000204617B3BDE8F840FFF710BF40F2FF3140
:101C7000D6E74FF6C071D3E740F6FF71D0E74FF4D7
:101C80007F41CDE74FF6FF71CAE70F21C8E74FF458
:101C90004041C5E7FFF73EFFD0E7A5F1080080000F
:101CA00006FA00F281400548D5E7BDE8F840FFF7A5
:101CB00031BFF8BD1924000004A0004008A0004076
:101CC0002DE9F04180460E461F46154622B931489F
:101CD0004FF4A171FEF7B8FC1EB92F48FEF74AFF7A
:101CE0000646402F2AD009D8A7B1202F1CD0BDE826
:101CF000F041284840F28911FEF7A6BC602FF6D1CA
:101D0000B5EB960F04D9234840F28311FEF79CFCF3
:101D100004241DE0B5EB161F04D91E484FF4BA7118
:101D2000FEF792FC102413E0B5EBD60F04D9194846
:101D300040F27911FEF788FC082409E00624B6FB7E
:101D4000F4F3AB4204D213484FF4BF71FEF77CFCAE
:101D50006C43610801EB4616B6FBF4F40F4E203CD1
:101D6000B6EBC40F4FEAC40504D20A484FF4D07151
:101D7000FEF76AFCD8F8003023F06003C8F80030A2
:101D8000D8F8003035401F43C8F80070C8F8145028
:101D9000BDE8F0816A24000040410500F8FF7F00A3
:101DA00070B506460C46154622B90D4840F28E2104
:101DB000FEF74AFC1CB90B48FEF7DCFE04460A4B52
:101DC0006D00013CB4FBF5F413EA04234FEA04254B
:101DD00004D0034840F2B321FEF736FC756170BDB4
:101DE0006A24000040410500070080FF38B51E4B03
:101DF0001E4D984204460ED0A8420CD003F5006355
:101E0000984208D003F58063984204D0184840F205
:101E10004241FEF719FC40F6AA63E36041F2050275
:101E2000002323606260134AA3606361E364A264D9
:101E300023666367A367E3670B4B9C4209D0AC4200
:101E400007D003F500639C4203D003F580639C42F6
:101E500001D1002323650023AC42A36502D0064ACA
:101E6000944200D1E36538BD000001400004014008
:101E70006A240000F9FF0100000C014038B5294B2D
:101E8000984204460D4610D003F5806398420CD06A
:101E900003F58063984208D003F58063984204D02C
:101EA000214840F2FD21FEF7CFFB2046FFF79EFFC1
:101EB000AB7C1BB1236843F080432360EB7C1BB1F8
:101EC0002B7D43F08003A3652A8A6B7B1343EA8949
:101ED000134363602B7BD5E901122046FFF7F0FE28
:101EE0006B7D1BB1236843F480332360AB7D1BB152
:101EF000236843F400432360EB7D2A7E1B07120511
:101F000002F4E00203F0E04313432366636F23F01F
:101F100030036367626F6B7E134363672B78E36004
:101F200038BD00BF000001406A24000038B52D4BC9
:101F3000984204460D4610D003F5806398420CD0B9
:101F400003F58063984208D003F58063984204D07B
:101F5000254840F26931FEF777FB2046FFF746FF40
:101F6000A97B2A8A2368002942F0010214BF4FF49A
:101F70008061002113430B432A7D23602368002ADC
:101F800014BF4FF00052002213432360AB7C1BB1FF
:101F9000EB7C43F08003A3652B7B43F480536360A9
:101FA000D5E901122046FFF7FBFE6B7B0BB1102336
:101FB000E3606B7D1BB1236843F480332360AB7D0A
:101FC0001BB1236843F400432360EB7D2A7E1B078B
:101FD000120503F0E04302F4E002134323662B787A
:101FE000E36038BD000001406A24000003691B065D
:101FF000FCD5C069C0B2704703695A06FCD541637D
:1020000003699B06FCD5C069C0B2704703695B06D3
:10201000FCD54163704700007FB5094B6A4603F168
:102020001006154618685968144603C40833B342AD
:102030002246F7D12846FFF763FC002004B070BDAC
:10204000BC24000013B502230024684600948DF8D8
:1020500004408DF80530FFF71FFA204602B010BD8E
:1020600070B5164B86B001AA03F110061546186824
:102070005968144603C40833B3422246F7D11B887B
:1020800023800F4BD3F8B42012030ED4D3F8B8300A
:10209000C3F308030B48ADF80A30FEF7ABFA284645
:1020A000FFF7C4F8002006B070BD074B1B884FF641
:1020B000FF72934208BF4FF4AA73EBE7CC240000F1
:1020C0000081E00F00F049020001E00F07B5084B66
:1020D00018680190202301A88DF80430FFF702F959
:1020E0006420FEF737FE002003B05DF804FB00BF5C
:1020F000DE24000010B50C480C4C6FF00402A02147
:1021000012F0800FD3B21BBF03F00F03043BA318E0
:102110001B1802F101020CBF83F800131976332A51
:10212000EED1002010BD00BF00ED00E000E100E0B6
:1021300008B5FEF7DDF8FEF729F9FEF72EF9FEF7F0
:102140002EF9BDE80840FEF72BB908B5FEF729F9CE
:10215000FEF728F9FEF727F9BDE80840FEF724B995
:1021600010B50446FEF72EFA4FF47A729042B0FB97
:10217000F2F105D23621BDE810400B48FEF764BAF3
:102180000A4BB3FBF1F30A49884201D93C21F2E73B
:1021900002FB04F0B0FBF3F0032804D9BDE81040C3
:1021A000800800F00DB810BDE224000040420F008E
:1021B000E7CD9A3B00000000000000000000000096
:1021C000013800D0FCE7704708B5074B044613B14F
:1021D0000021AFF30080054B1868836A03B198476C
:1021E000204600F031F800BF00000000402500004C
:1021F00070B50D4D0D4C641BA4100026A64209D1EC
:102200000B4D0C4C00F022F8641BA4100026A642D3
:1022100005D170BD55F8043B98470136EEE755F8F7
:10222000043B98470136F2E7AC100020AC100020C8
:10223000AC100020B010002002440346934200D1AD
:10224000704703F8011BF9E7FEE700BFF8B500BFD0
:10225000F8BC08BC9E467047F8B500BFF8BC08BC87
:102260009E467047050000000000000040420F003D
:102270000501000000000000000000000000000058
:10228000433A2F55736572732F6669726D77617269
:10229000652D312F53696D706C696369747953745E
:1022A0007564696F2F53444B732F6765636B6F5F62
:1022B00073646B2F706C6174666F726D2F656D6CDB
:1022C00069622F7372632F656D5F636D752E630096
:1022D000633A5C75736572735C6669726D7761727F
:1022E000652D315C73696D706C69636974797374A1
:1022F0007564696F5C73646B735C6765636B6F5F58
:1023000073646B5C706C6174666F726D5C636F6D2F
:102310006D6F6E5C696E635C736C5F636F6D6D6F28
:102320006E2E68000403020B050C0302010A03026F
:10233000060A09070301050806020004000140001F
:1023400004000100100000028000080002002000CC
:1023500040787D0100000000005A62020001000088
:10236000C0CF6A0002000000809FD500020100007B
:10237000002D310102020000433A2F55736572733C
:102380002F6669726D776172652D312F53696D709B
:102390006C696369747953747564696F2F53444B26
:1023A000732F6765636B6F5F73646B2F706C617401
:1023B000666F726D2F656D6C69622F7372632F6526
:1023C0006D5F656D752E6300633A5C75736572733E
:1023D0005C6669726D776172652D315C73696D70D1
:1023E0006C696369747973747564696F5C73646B29
:1023F000735C6765636B6F5F73646B5C706C617457
:10240000666F726D5C656D6C69625C696E635C655C
:102410006D5F6770696F2E6800433A2F5573657260
:10242000732F6669726D776172652D312F53696DF7
:10243000706C696369747953747564696F2F534460
:102440004B732F6765636B6F5F73646B2F706C6189
:1024500074666F726D2F656D6C69622F7372632F76
:10246000656D5F6770696F2E6300433A2F55736522
:1024700072732F6669726D776172652D312F5369A2
:102480006D706C696369747953747564696F2F53E7
:10249000444B732F6765636B6F5F73646B2F706C56
:1024A0006174666F726D2F656D6C69622F737263F4
:1024B0002F656D5F75736172742E630000010807EC
:1024C0000F000A00C8002000A0000100000000006A
:1024D000A00068010A200706020A040700000002A3
:1024E0000700433A2F55736572732F6669726D77D3
:1024F0006172652D312F53696D706C6963697479F0
:1025000053747564696F2F53444B732F6765636B06
:102510006F5F73646B2F706C6174666F726D2F7375
:102520006572766963652F7564656C61792F737266
:10253000632F736C5F7564656C61792E63000000B6
:042540004C1000201B
:0825440008DCFF7F010000002C
:0C254C0058250000001000202D000000A9
:10255800050000000000000000C2010000050000A6
:102568000010000000000000000000004F6CC3A134
:102578002120417269656C6C692061717569203C24
:10258800330D0C00C0EA210100F04902C0EA210124
:1025980000800000C0EA2101FFFF000000000000E9
:1025A8000000000000000000000000000000000023
:1025B8000000000000000000000000000000000013
:1025C8000000000000000000000000000000000003
:1025D80000000000000000000000000000000000F3
:1025E80000000000000000000000000000000000E3
:1025F80000000000000000000000000031010000A1
:042608000D010000C0
:0400000300000509EB
:00000001FF
