S014000074696D65722D696E742D70776D2E733337C6
S113000000100020DD0500007506000075060000E4
S113001075060000750600007506000075060000F0
S113002075060000750600007506000075060000E0
S113003075060000750600007506000075060000D0
S113004075060000750600007506000075060000C0
S113005075060000750600007506000075060000B0
S113006075060000750600007506000021030000F7
S11300707506000075060000750600007506000090
S11300807506000075060000750600007506000080
S11300907506000075060000750600007506000070
S11300A07506000075060000750600007506000060
S11300B07506000075060000750600007506000050
S11300C07506000075060000750600007506000040
S11300D07506000075060000750600007506000030
S11300E07506000075060000750600007506000020
S11300F07506000075060000750600007506000010
S113010075060000750600007506000010B5054C64
S1130110237833B9044B13B10448AFF300800123AF
S1130120237010BD8410002000000000703A00000D
S113013008B5034B1BB103490348AFF3008008BD66
S11301400000000088100020703A0000A3F5803AF7
S1130150704700BF174B002B08BF134B9D46FFF79A
S1130160F5FF00218B460F461348144A121A03F078
S11301701BFA0E4B002B00D098470D4B002B00D0E0
S113018098470020002104000D000D48002802D0EB
S11301900C48AFF3008003F0E3F92000290000F0DD
S11301A07FF903F0C9F900BF000008000000000057
S11301B0000000000010002084100020B010002077
S11301C0000000000000000082B003468DF80730F4
S11301D09DF90730002B0CDB9DF8073003F01F025C
S11301E005499DF907305B09012000FA02F241F844
S11301F0232000BF02B0704700E100E082B001900C
S1130200019B074A934203D0019B064A934202D1C1
S11302104FF0FF3301E04FF6FF73184602B070470A
S113022000A0014000A4014000B585B003900291F4
S113023001920398FFF7E2FF0246019B934204D91F
S113024040F2FA21064800F0B7FA039A029B1B0118
S113025013446C33019A1A6000BF05B05DF804FBC7
S1130260D435000000B585B0039002910192039843
S1130270FFF7C4FF0246019B934204D940F21531B3
S1130280074800F099FA039A029B06331B011344B2
S11302900433019A1A6000BF05B05DF804FB00BF87
S11302A0D435000082B001900091019B009A5A61FC
S11302B000BF02B0704782B001900091019B9A691F
S11302C0009B1A43019B9A6100BF02B0704782B041
S11302D00190019BDB68184602B0704782B0019020
S11302E0019BDB69184602B07047000000B583B07B
S11302F0019000910198FFF781FF0246009B934211
S113030004D940F28941054800F056FA019B009A4D
S1130310DA6100BF03B05DF804FB00BFD435000010
S113032000B583B0194B1A68194B1B681344174A5C
S113033013601848FFF7CBFF019001991548FFF7A8
S1130340B1FF1448FFF7CAFF0346104A126802FBC4
S113035003F3114AA2FB03235B091A4600210D484B
S1130360FFF762FF094B1B68642B03DC074B1B6818
S1130370042B04DC064B1B685B42054A13600748E8
S113038003F096F800BF03B05DF804FBA010002052
S113039000100020008001401F85EB51A086010061
S11303A000B589B00121294800F0E8FC05AB002222
S11303B01A605A609A6003238DF81A3005AB1A4606
S11303C00021234802F01CFF214B5B6B204A43F0C1
S11303D01C0353631E4B1B6B1D4A43F00103136341
S11303E01A4800F039FD03461A4AA2FB03239B096D
S11303F019461748FFF77AFF1548FFF76FFF0346C2
S1130400154A126802FB03F3144AA2FB03235B0997
S11304101A4600210E48FFF725FF01AB00221A609F
S11304205A609A601A7301238DF8043001AB19469F
S1130430074802F069FE10210548FFF73CFF0B2036
S1130440FFF7C2FE00BF09B05DF804FB0002040020
S113045000800140D34D6210A01000201F85EB5195
S113046010B584B00B4B6C460FCB84E80F006B4681
S1130470184602F0C3F80121074800F07FFC00236E
S113048004220421052002F05BFDFFF789FF00BF71
S113049004B010BD2836000000350A0000BF7047C4
S11304A008B502F0EDFFFFF7DBFF02F0F6FFFFF700
S11304B0F5FFFAE708B50421112000F0FDFF012142
S11304C0084800F05BFC0221074800F0F5FF022118
S11304D0064800F0F1FF0221054800F0EDFF00237B
S11304E0184608BD30253E0002001E00030020000F
S11304F005002400024BDB6C1B0EDBB21846704770
S1130500B081E00F00B583B01D4B01225A64FFF7A0
S1130510F1FF03468DF807309DF80730002B0CD10E
S1130520184B4AF6E8521A60174B1B68164A43F0F8
S113053004031360134B00221A609DF80730012B4B
S113054005D8124B1B68114A43F400531360104B37
S11305501B6A23F444130E4A43F488131362084BB2
S11305601B68074A43F4807313600A4B1B68094AEB
S113057043F4F843136000BF03B05DF804FB00BF0D
S113058000000E4090310E4098310E4064310E4010
S113059000400E40A4310E4008B5FFF7B3FF02F04F
S11305A053FF02F08FFE02F0C1FE02F009FFFFF7D5
S11305B081FF02F099FE00BF08BD00BF704700BF75
S11305C0704700BF704700BF704700BF704700BF4F
S11305D0704700BF704700BF7047000000B585B08A
S11305E000F0CAF81F4B039319E0002302930EE0B6
S11305F0039B1A68029B9B001A44039B5968029B45
S11306009B000B4412681A60029B01330293039B04
S11306109B68029A9A42EBD3039B0C330393039B8C
S1130620114A9342E1D3114B019314E00023009348
S113063009E0019B1A68009B9B00134400221A6086
S1130640009B01330093019B5B68009A9A42F0D3AC
S1130650019B08330193019B054A9342E6D3FFF7BC
S113066079FD00BF783A0000843A0000843A000023
S1130670843A0000FEE7000000B583B000F020F8E3
S113068001900A4BD3F808311B0AC3F30803009303
S1130690009B0133019AB2FBF3F30193044A019BDB
S11306A01360019B184603B05DF804FB00400E4044
S11306B00C100020014B1846704700BF00F049029F
S11306C082B01A4BD3F8943003F00703023B032B98
S11306D01BD801A252F823F0F9060000F10600002D
S11306E0E906000001070000114B1B68019310E0AC
S11306F04FF4004301930CE00E4B1B68019308E098
S11307000D4B1B685B08019303E00B4B1B680193C3
S113071000BF064BD3F800311B0A03F01F0301335B
S1130720019AB2FBF3F3184602B0704700400E4042
S1130730081000200410002010100020014B1B683A
S1130740184670470410002000B583B00190084A91
S1130750019B1360074BD3F8943003F00703022B7B
S113076001D1FFF789FF00BF03B05DF804FB00BFB0
S11307700410002000400E40064B074A9A60054BC7
S1130780D3F88830034A43F47003C2F8883000BFBA
S1130790704700BF00ED00E0000000004FF400438C
S11307A0184670474FF47A7318467047014B1B681C
S11307B0184670470810002082B001900091FEE7AF
S11307C000B583B00190019B1F2B04D94FF4B37182
S11307D00548FFF7F1FF0122019B02FA03F31846D3
S11307E003B05DF804FB00BF3836000000B587B0E5
S11307F0039002910192029B1F2B03D991210A4875
S1130800FFF7DAFF039B03F1424303F58013DA0099
S1130810029B13449B000593059B019A1A6000BF39
S113082007B05DF804FB00BF8C36000084B0019073
S11308300091019B03F1424303F58013DA00009B0E
S113084013449B000393039B1B68184604B0704732
S1130850054B1B6803F04003002B01D1012300E08A
S113086000231846704700BF3C300E4008B5FFF720
S1130870EFFF034683F00103DBB2002B08D100BF76
S113088012210448FFF7D2FF0346002BF8D100E001
S113089000BF08BD04300E4008B5FFF7E7FF044B66
S11308A05B681B0C03F00303DBB2184608BD00BFF2
S11308B000300E40054B1B6C9BB241F671329342E3
S11308C014BF01230023DBB21846704700000E401A
S11308D0024B00221A6400BF704700BF00000E40A4
S11308E0024B41F671321A6400BF704700000E409B
S11308F0014B5B681846704700000E4082B00190BF
S1130900024A019B536000BF02B0704700000E40D2
S113091000B585B0019001230393019B124A9342D1
S113092004D8002303930023029308E0019B0F4A99
S1130930934202D80123029301E002230293039A13
S113094010210B48FFF752FF094BD3F8003123F075
S11309508072029B1B0606491343C1F8003100BF95
S113096005B05DF804FB00BF0048E8010090D00327
S113097000400E4082B0034B1B680193019B184654
S113098002B070471410002000B583B0FFF798FE42
S11309900190074BD3F800311B0A03F01F03013306
S11309A0019A02FB03F3184603B05DF804FB00BF91
S11309B000400E4000B583B0104800F073FC0346BD
S11309C08DF803309DF80330072B05D0092B07D190
S11309D0FFF776FE01900BE0FFF7CCFF019007E0F4
S11309E00023019341F290410548FFF7E5FE00BF63
S11309F0019B184603B05DF804FB00BF06000E001F
S1130A002C37000000B585B00190019B002B1FD14D
S1130A10214800F047FC03468DF80B3000BF9DF8D9
S1130A200B30013B072B29D801A252F823F000BF59
S1130A305F0A00007D0A00007D0A00006D0A0000C4
S1130A407D0A00007D0A0000650A0000750A0000A6
S1130A5041F2B0411148FFF7AFFE002317E0002335
S1130A60039313E0FFF786FF03900FE0FFF766FEA2
S1130A7003900BE0FFF788FF039007E00023039344
S1130A8041F2C7410548FFF797FE00BF039B184694
S1130A9005B05DF804FB00BFB80032002C3700003D
S1130AA000B585B001900091FFF722FF034603F0E3
S1130AB0407303930023029312E01D4A029BDB0060
S1130AC013441A79009BDBB29A4206D1184A029B5E
S1130AD052F83330019A9A4206D9029B01330293A9
S1130AE0029B042BE9D900E000BF029B052B07D130
S1130AF00323039341F2CE510E48FFF75DFE05E058
S1130B000B4A029BDB0013445B790393039B1B0694
S1130B100393FFF7EDFE034623F04073039A134358
S1130B2003930398FFF7EAFE00BF05B05DF804FBEA
S1130B307C3700002C37000000B583B0FFF7BAFE05
S1130B4003468DF80730FFF7CBFEFFF7B3FD0346EE
S1130B5000211846FFF7A4FF9DF80730002B01D0B1
S1130B60FFF7B6FE00BF03B05DF804FB00B585B027
S1130B7001900091FFF79EFE03468DF80F30FFF7BA
S1130B80AFFE00990198FFF78BFF9DF80F30002B03
S1130B9001D0FFF79DFE00BF05B05DF804FB86B0F1
S1130BA001900F230593019B03330493059B039347
S1130BB0039A049B934228BF13460293029B1B078C
S1130BC00293029B184606B070470000034B5B6A11
S1130BD01B0903F003031846704700BF00400E4092
S1130BE082B00190054B5B6A23F03002019B1B012C
S1130BF0024913434B6200BF02B0704700400E40ED
S1130C0010B584B0019000230293019B424A9342A1
S1130C1011D0019B404A934207D8019B3F4A93421B
S1130C2009D0019B3E4A934205D041F2CD613D4833
S1130C30FFF7C2FD00E000BF019800F033FB03465C
S1130C400393019B344A93421AD0019B324A934244
S1130C501DD8019B314A934204D0019B304A9342F0
S1130C6007D014E0304BD3F8803003F0070303932C
S1130C7013E02D4BD3F8843003F0070303930CE007
S1130C80294BD3F8883003F00703039305E041F2BE
S1130C90FC612448FFF790FD00BF039B042B2ED872
S1130CA001A252F823F000BFF90C0000BD0C0000B3
S1130CB0C50C0000D50C0000CD0C0000FFF76EFD44
S1130CC0029024E0FFF772FD029020E0FFF76AFD36
S1130CD002901CE0FFF7F4FC0446134BD3F80031F8
S1130CE01B0E03F0010301331846FFF769FD0346A9
S1130CF0B4FBF3F302930AE00023029307E000231A
S1130D00029341F24E710748FFF756FD00BF029B64
S1130D10184604B010BD00BF0500240002001E00E8
S1130D20030020002C37000000400E4082B00190E8
S1130D30094BD3F8443103F00103002B08D100BF61
S1130D40054BD3F84021019B1340002BF8D100E060
S1130D5000BF02B0704700BF00400E4000BF7047A4
S1130D6000BF704700B583B00190019800F0BAF954
S1130D7003460133184603B05DF804FB00B587B0A1
S1130D8001900B468DF8033000230493019B1B0A4A
S1130D9003F00F03013B092B32D801A252F823F0D0
S1130DA0C90D0000D50D0000010E0000010E000069
S1130DB0CF0D0000DB0D0000E50D0000010E00006A
S1130DC0EF0D0000FB0D00001B4B05931EE01B4BB9
S1130DD005931BE01A4B059318E01A4B0593012366
S1130DE0049313E0184B0593102304930EE0174B60
S1130DF005934FF48033049308E0154B059305E005
S1130E0041F66A311348FFF7D7FC11E0019B1B0B35
S1130E1003F01F030393049B002B02D00498FFF7F5
S1130E2085FF9DF803301A4603990598FFF7DEFC09
S1130E3007B05DF804FB00BF00400E40B0400E4018
S1130E40C0400E40E0400E40E8400E40F0400E40EE
S1130E5050410E402C37000010B584B00190019B26
S1130E6003F47813B3F5781F00F01B81B3F5781FF2
S1130E7000F22281B3F5481F00F00E81B3F5481F3C
S1130E8000F21A81B3F5401F00F0E580B3F5401F6E
S1130E9000F21281B3F5381F00F0B680B3F5381FA5
S1130EA000F20A81B3F5101F00F0E980B3F5101FBA
S1130EB000F20281B3F5001F00F0B580B3F5001F06
S1130EC000F2FA80B3F5F01F79D0B3F5F01F00F209
S1130ED0F380B3F5D01F00F0AB80B3F5D01F00F260
S1130EE0EB80B3F5B01F7DD0B3F5B01F00F2E48002
S1130EF0B3F5A01F68D0B3F5A01F00F2DD80B3F5F1
S1130F00801F00F0C580B3F5801F00F2D580B3F5D3
S1130F10602F00F0B980B3F5602F00F2CD80B3F5F7
S1130F20402F3DD0B3F5402F00F2C680B3F5202FFB
S1130F3023D0B3F5202F00F2BF80B3F5802F0DD05E
S1130F40B3F5802F00F2B880002B03D0B3F5003F37
S1130F5017D0B1E0FFF7B4FB0390B5E0FFF7B0FBA7
S1130F6003905B4BD3F80C311B0AC3F30803013322
S1130F70039AB2FBF3F30393A6E0FFF7A1FB0390FC
S1130F80A2E0FFF79DFB0390514BD3F808311B0AF5
S1130F90C3F308030133039AB2FBF3F3039393E01F
S1130FA0FFF78EFB03904A4BD3F814311B0A03F06E
S1130FB01F030133039AB2FBF3F3039384E0454820
S1130FC0FFF71EFE03907FE04348FFF719FE0390EE
S1130FD03F4BD3F8303103F00303039A22FA03F3AF
S1130FE0039371E03B48FFF70BFE0390384BD3F8B3
S1130FF0203103F00F031846FFF7E2FB0246039B80
S1131000B3FBF2F303935FE03248FFF7F9FD03907B
S11310102F4BD3F820311B0903F00303039A22FA60
S113102003F3039350E02D48FFF7EAFD03904BE0F0
S11310302A48FFF7E5FD0390254BD3F828311B0917
S113104003F003031846FFF7BBFB0246039BB3FB05
S1131050F2F3039338E02148FFF7D2FD03901C4BD1
S1131060D3F828311B0A03F0030304331846FFF7AF
S1131070A7FB0246039BB3FBF2F3039324E0164859
S1131080FFF7BEFD03901FE0FFF794FC03901BE005
S1131090FFF770FC039017E00020FFF7B3FC039008
S11310A012E0FFF70DFB04460198FFF75BFE0346D1
S11310B0B4FBF3F3039307E00023039341F69A414F
S11310C00748FFF779FB00BF039B184604B010BD27
S11310D000400E4002001E00050024000300200012
S11310E02C37000000B585B00190019B1B0903F06B
S11310F00F030293029B013B092B00F2B88001A26B
S113110052F823F02D1100003D1100004D11000094
S11311106D1100006F1200006F1200007D110000BD
S11311208D110000E711000047120000564BD3F860
S113113000311B0A03F01F030393A0E0524BD3F8C2
S113114014311B0A03F01F03039398E04E4BD3F8AA
S113115000311B0E03F001030393039B0133184674
S1131160FFF72EFB0346013B039388E0464BD3F87D
S11311700C311B0AC3F30803039380E0424BD3F8FA
S113118008311B0AC3F30803039378E0019B3F4A29
S1131190934204D0019B3E4A93420DD01AE03A4B4D
S11311A0D3F8203103F00F0303930398FFF708FBF0
S11311B00346013B039315E0334BD3F820311B095D
S11311C003F0030303930398FFF7FAFA0346013B82
S11311D0039307E00023039341F60E512D48FFF7D4
S11311E0EBFA00BF4BE0019B2B4A934204D0019BD6
S11311F02A4A93420ED01DE0234BD3F828311B0911
S113120003F0030303930398FFF7DAFA0346013B61
S1131210039317E01C4BD3F828311B0A03F0030394
S11312200393039B04331846FFF7CAFA0346013BB2
S1131230039307E00023039341F632511548FFF767
S1131240BBFA00BF1BE0019B154A934206D10E4B2B
S1131250D3F8303103F00303039307E0002303932F
S113126041F641510B48FFF7A7FA00BF07E00023FE
S1131270039341F666510748FFF79EFA00BF039BAC
S1131280184605B05DF804FB00400E4080061600C9
S113129080162E002C37000090171A00902730007B
S11312A0A009140000B585B0019001238DF80F301A
S11312B0019B03F00F030293029B013B072B00F2F7
S11312C0E78001A252F823F0E91200004B1300005A
S11312D08913000091140000DB13000019140000AE
S11312E09114000043140000714BD3F8943003F0C0
S11312F00703023B052B23D801A252F823F000BFB9
S113130029130000211300001913000031130000F9
S1131310411300003913000002238DF80F3013E04D
S113132003238DF80F300FE004238DF80F300BE00A
S11313300B238DF80F3007E00C238DF80F3003E0FA
S113134005238DF80F3000BFABE0594BD3F8803044
S113135003F00703042B0ED0042B10D8012B02D06A
S1131360022B04D00BE003238DF80F300BE0022393
S11313708DF80F3007E00A238DF80F3003E00123C6
S11313808DF80F3000BF8CE0494BD3F8843003F064
S11313900703013B032B1BD801A252F823F000BF23
S11313A0B1130000B9130000C9130000C1130000F9
S11313B003238DF80F300FE002238DF80F300BE07C
S11313C00A238DF80F3007E006238DF80F3003E071
S11313D001238DF80F3000BF63E0354BD3F888301C
S11313E003F00703042B0ED0042B10D8012B02D0DA
S11313F0022B04D00BE003238DF80F300BE0022303
S11314008DF80F3007E00A238DF80F3003E0012335
S11314108DF80F3000BF44E0254B1B6F03F0010330
S1131420002B05D0012B07D109238DF80F3007E0DD
S113143007238DF80F3003E001238DF80F3000BF30
S11314402FE01B4BD3F85C3103F03003302B16D064
S1131450302B18D8202B0ED0202B14D8002B02D0E0
S1131460102B04D00FE001238DF80F300FE0072379
S11314708DF80F300BE004238DF80F3007E00823BC
S11314808DF80F3003E001238DF80F3000BF08E022
S113149000238DF80F3042F2BA010648FFF78CF9A9
S11314A000BF9DF80F30184605B05DF804FB00BF7F
S11314B000400E402C37000000B58BB001900B4665
S11314C08DF803300323099303238DF8233000237D
S11314D0069300230593019B112B1BD19DF8033028
S11314E0042B03D1FFF72AF905900CE09DF8033093
S11314F0052B08D100F08CF90346BD4A934202D96A
S113150000F086F90590059B002B03D00021059877
S113151000F098FD019B03F00F030493049B013B2F
S1131520072B00F25B8101A252F823F04D15000055
S1131530571600008D160000DD1700006D16000020
S113154031170000DD1700005D1700009DF803301F
S1131550023B0A2B48D801A252F823F08915000057
S113156095150000A1150000B3150000E915000051
S1131570E9150000E9150000E9150000DD1500007B
S1131580C5150000D11500000423099300238DF82C
S113159023302FE00323099301238DF8233029E01E
S11315A00223099302238DF823309248FFF7B0F900
S11315B020E00123099303238DF823308D48FFF79E
S11315C0A7F917E00523099303238DF8233011E0CD
S11315D00723099306238DF823300BE042F27B1195
S11315E08548FFF7E9F8FFE04FF406518248FFF71A
S11315F0E3F8F9E09DF82330062B06D09DF823305C
S113160001220121184600F0D1F9FFF795FAFFF7FE
S1131610A5FB059B002B01D0FFF728F9774A099B0E
S11316205367FFF729F80390FFF74AF80346184673
S1131630FFF76EF9FFF730F9034619460398FFF7F1
S113164095FA059B002B03D10121002000F0FAFC40
S1131650FFF786FBC8E06A4B06939DF80330062B20
S113166004D142F2BF116448FFF7A6F8069B002B91
S113167001D0069B00E0634B06939DF80330062BD4
S113168004D142F2CF115C48FFF796F8069B002B79
S113169001D0069B00E05C4B06939DF80330013BB0
S11316A0092B3BD801A252F823F000BFD516000045
S11316B0DB160000EB1600001D1700001D170000CC
S11316C0FB1600001D1700001D1700001D17000069
S11316D0171700000023079326E0012201210020B0
S11316E000F064F9022307931EE001220121012086
S11316F000F05CF90123079316E0FEF7E1FF0346CF
S11317001846FFF705F9012202214048FFF76EF859
S11317100323079308E00423079305E042F2FA1138
S11317203548FFF749F85FE0069B079A1A605BE0CB
S11317309DF80330072B02D0092B04D007E02F4B70
S113174000221A6709E02D4B01221A6705E042F2D4
S113175084212948FFF730F846E045E09DF803303E
S1131760013B072B28D801A252F823F08D17000063
S1131770B9170000B9170000A3170000B91700003B
S1131780B917000093170000B31700000023079354
S113179018E001220121042000F008F90123079335
S11317A010E001220121022000F000F90223079336
S11317B008E00323079305E042F2E2210E48FEF716
S11317C0FBFF11E00D4BD3F85C3123F03002079B93
S11317D01B010A491343C1F85C3105E042F2B931F7
S11317E00548FEF7E9FF00BF0BB05DF804FB00BF3E
S11317F0002D31010148E8012C37000000400E4063
S113180080400E4088400E4084400E40B0400E4060
S1131810014B1B68184670471010002010B584B0A7
S113182001901120FFF73EFD0346042B04D142F240
S1131830A4613748FEF7C0FF01220021022000F016
S1131840B5F8019B5B78002B07D1019B9B78002B9B
S113185003D1019BDB78002B04D042F2E0612C48D9
S1131860FEF7AAFF00230393019B1B7C012B04D1E9
S113187042F2E7612648FEF79FFF019B1B7C022B87
S113188001D101230393234B5B6A23F00102214915
S1131890039B13434B62019B1B781A4608211E4885
S11318A0FEF7A4FF019B9B88DB02019A527A114642
S11318B0184A0B43D362174B1B6B03F07F62019BE7
S11318C0DB88DB021343019A927A1A43019B1B7A49
S11318D0DB0142EA0304019B1B7A1846FFF75FF918
S11318E003460C4A23431363019B5B7B1A03019B4E
S11318F09B7B1B011343019AD27B1A43019B1B7BE5
S11319001B04044913434B6300BF04B010BD00BF64
S11319102C37000000400E4024400E4000B585B036
S113192001901120FFF7BEFC0346022B04D142F2C2
S113193062711448FEF740FF134B9A6B134B13402C
S1131940019A12781A43019B5B78DB021A43019BCC
S11319509B781B061A43019BDB781B0213430393FA
S1131960094B9B6B039A9A4207D001220021002065
S113197000F01CF8044A039B936300BF05B05DF8B4
S113198004FB00BF2C37000000400E4080E4FFF849
S113199082B00346ADF80630034ABDF80630138022
S11319A000BF02B0704700BF1810002000B589B016
S11319B003468DF807300B468DF8063013468DF834
S11319C005309DF80730042B3BD801A252F823F0D0
S11319D02D1A00001B1A0000F7190000E519000079
S11319E0091A00000123059302230493012307939A
S11319F0002306932BE00423059308230493032375
S1131A0007930223069322E01023059320230493D3
S1131A10052307930423069319E0402305938023A9
S1131A200493072307930623069310E04FF480736F
S1131A3005934FF400730493092307930823069333
S1131A4005E042F609014948FEF7B6FE8BE09DF831
S1131A500630002B6AD000238DF80F309DF8073034
S1131A60022B1BD1FFF7B2F80346002B16D1404BD3
S1131A70DB6B03F48063002B04D142F618013B486E
S1131A80FEF79AFE01238DF80F303A4B5B6A03F0A0
S1131A900103012B02D10120FFF7A2F8354A059B6F
S1131AA0136600BF06993448FEF7C0FE0346002BB8
S1131AB0F8D09DF80530002B55D000BF07992E486B
S1131AC0FEF7B4FE0346002BF8D09DF80730022B36
S1131AD049D19DF80F30002B45D0264B5B6A03F0AB
S1131AE00103012B05D101222021022000F08EF9EF
S1131AF003E00021022000F02DF9022000F03EF85E
S1131B000290012200210220FFF750FF02990220D7
S1131B1000F074F8174A059B136600BF079916482E
S1131B20FEF784FE0346002BF8D01CE0114A049B08
S1131B30136600BF0F4BD3F890300121069A01FAC7
S1131B4002F21340002BF5D19DF80530002B0AD08A
S1131B5000BF084BD3F890300121079A01FA02F232
S1131B601340002BF5D109B05DF804FB2C370000BD
S1131B7000300E4000400E4090400E4000B585B04D
S1131B8003468DF807309DF80730013B032B24D81A
S1131B9001A252F823F000BFA91B0000CD1B0000D6
S1131BA0B51B0000C11B0000124B1B6AC3F30803E2
S1131BB003931AE00F4B1B6903F07F03039314E0B4
S1131BC00C4B9B6903F07F0303930EE0094BD3F89E
S1131BD09C30C3F30A03039307E00023039342F604
S1131BE095010548FEF7E8FD00BF039B184605B0C4
S1131BF05DF804FB00400E402C37000000B585B0B2
S1131C00034600918DF807309DF80730013B032B04
S1131C1000F28D8001A252F823F000BF2D1C0000B9
S1131C20E11C00006D1C0000A71C0000009BB3F524
S1131C30007F04D342F6BA014248FEF7BDFD009B83
S1131C40C3F30803009300BF1A213F48FEF7EEFDDB
S1131C500346002BF8D13D4B1B6A23F4FF7323F09A
S1131C6001033A49009A13430B6266E0009B7F2B01
S1131C7004D942F6C7013348FEF79EFD009B03F0EA
S1131C807F03009300BF18212F48FEF7CFFD0346C2
S1131C90002BF8D12D4B1B6923F07F022B49009BAD
S1131CA013430B6149E0009B7F2B04D942F6E20108
S1131CB02448FEF781FD009B03F07F03009300BFDF
S1131CC019212148FEF7B2FD0346002BF8D11F4B22
S1131CD09B6923F07F021D49009B13438B612CE019
S1131CE01A4BD3F8903003F00403002B04D042F6CF
S1131CF0F2011448FEF760FD144B5B6A23F03003D5
S1131D00124A43F010035362009BDB0903F00F03F4
S1131D101846FEF744FF03900C4B1A6B0C4B134010
S1131D20009A1A430949039B13430B6305E042F6E7
S1131D300C110448FEF740FD00BF00BF05B05DF87C
S1131D4004FB00BF2C37000040410E4000400E4011
S1131D5000F8FF0F00B585B0034600918DF80730F9
S1131D609DF80730022B04D042F624112448FEF7D4
S1131D7023FDFEF72BFF0346002B03D14FF4400352
S1131D8003931FE0009B302B10D0009B302B11D805
S1131D90009B002B06D0009B202B0BD14FF400039B
S1131DA003930FE04FF4400303930BE04FF440031D
S1131DB0039307E0134B039342F63F111048FEF7D9
S1131DC0FBFC00BF00BF104BD3F89020039B1340D3
S1131DD0039A9A42F7D1039B03F48003002B0AD0A1
S1131DE0094BD3F8A03003F48063002B14BF012304
S1131DF00023DBB200E00123184605B05DF804FBC4
S1131E002C370000FF33E10700400E4000B583B0DB
S1131E10034600918DF8073013468DF806309DF87F
S1131E200730022B16D1009B002B07D00F4B4FF429
S1131E308062C3F8A8200D4A009B53669DF80630C3
S1131E40002B0DD09DF8073000991846FFF782FF4C
S1131E50034607E042F675110548FEF7ADFC00E0C5
S1131E6000BF0123184603B05DF804FB00400E4098
S1131E702C37000082B0EFF310830093009B019392
S1131E8072B600BF019B184602B0704782B0019041
S1131E90019B002B01D162B600BF00BF02B07047A6
S1131EA000B587B0039002910192029B1F2B03D9C6
S1131EB091210A48FEF780FC039B03F1424303F59A
S1131EC08013DA00029B13449B000593059B019A3F
S1131ED01A6000BF07B05DF804FB00BFA437000020
S1131EE084B001900091019B03F1424303F58013F8
S1131EF0DA00009B13449B000393039B1B68184662
S1131F0004B07047054B1B6803F04003002B01D15C
S1131F10012300E000231846704700BF3C300E4008
S1131F2008B5FFF7EFFF034683F00103DBB2002B94
S1131F3008D100BF12210448FFF7D2FF0346002B4B
S1131F40F8D100E000BF08BD04300E4008B5FFF72B
S1131F50E7FF044B5B681B0C03F00303DBB218467A
S1131F6008BD00BF00300E4082B00190024A019BC0
S1131F70D36200BF02B0704700300E40014B5B6A71
S1131F801846704700300E40024B00225A6300BFCF
S1131F90704700BF00300E40024B4AF6E8525A63C5
S1131FA000BF704700300E4082B003468DF8073002
S1131FB09DF80730C3F10203102202FA03F3184616
S1131FC002B0704784B001901D4B9B690393039B3F
S1131FD023F03F030393019B1B78002B01D00422C1
S1131FE000E00022019B5B78002B01D0022300E07B
S1131FF000231343019A9278002A01D0082200E0BA
S113200000221343019AD278012A01D1012200E06F
S113201000221343019A12791343039A134303933F
S1132020074A039B9361064B1B6823F44032019BD0
S11320305B791B04024913430B6000BF04B0704773
S113204000300E4000B585B001900B468DF803308A
S1132050FFF758FF034683F00103DBB2002B2AD1BC
S1132060019B002B0FD1164BD3F800311B0A03F050
S11320701F0301330293FEF723FB0246029B02FB7C
S113208003F3039301E0019B03930E4B1B78002B96
S11320900AD0039B0C4A934206D89DF80330194694
S11320A0022000F013F807E09DF8033019460020E1
S11320B000F00CF800E000BF05B05DF804FB00BFC1
S11320C000400E40AC100020002D310110B586B048
S11320D003460A468DF8073013468DF80630FFF79D
S11320E011FF034683F00103DBB2002B3FD1FFF75E
S11320F02DFF03461A469DF80730934239D01E4BF4
S1132100D3F800311B0A03F01F0301330593FEF7D4
S1132110D7FA0490049B059A02FB03F303939DF8FA
S11321200730022B0CD1039B144A934204D94FF479
S1132130E3611348FEF740FB02210498FEF716FD05
S1132140104C9DF807301846FFF72EFF0346236115
S11321509DF80630002B01D0FFF7E2FE9DF8073012
S1132160002B07D100210498FEF700FD02E000BF18
S113217000E000BF06B010BD00400E40002D31014C
S1132180F437000000300E40012318467047000069
S113219000B583B00C4BDB6E0B4A43F08073D366FF
S11321A000210A48FFF79CFE0190019B002B03D0FD
S11321B0042000F075FD02E0002000F071FD00BF76
S11321C003B05DF804FB00BF00300E404C300E40FD
S11321D000B58BB001230993099B1B050893424B5F
S11321E0DB6C1B0A03F00F030793404B1B881A4652
S11321F03E4B1B8828335B08134403F12801079BDB
S11322005A1C13469B001344B1FBF3F3013B0693A2
S1132210069B059307230493049A059B934228BFC6
S113222013460693069B1B060693069B23F0E06366
S1132230002B04D040F6ED012D48FEF7BDFA089BB3
S113224023F4E003002B04D040F6EE012848FEF707
S1132250B3FA254BDB6C23F0EE620699089B0B4323
S113226021491343CB64234BB3F90030002B36DBF5
S1132270204BB3F90030ADF80E30BDF80E20BDF898
S11322800E3028335B08134403F12802079B013303
S11322905900079B01335B080B44B2FBF3F3029331
S11322A0029B019307230093009A019B934228BF4A
S11322B013460293029B1B010293029B23F07003BB
S11322C0002B04D040F606110948FEF775FA064BB8
S11322D01B6D23F070020449029B13430B6500BF7E
S11322E00BB05DF804FB00BF00300E40A4100020CA
S11322F0F4370000A810002082B001900B46ADF81E
S11323000230019B9AB2044B1A80044ABDF8023091
S1132310138000BF02B07047A4100020A810002052
S113232000B583B003468DF807309DF80730002BC5
S113233002D0012B04D007E0084B094A9A6509E052
S1132340064B084A9A6505E040F632110648FEF746
S113235033FA00BF00BF03B05DF804FB00300E4049
S113236077402057372110B7F437000000B585B007
S113237003468DF807300B468DF8063013468DF86A
S11323800530344BD3F8803103939DF80630032B8A
S11323901CD801A252F823F0A9230000B1230000A5
S11323A0BB230000C5230000039BDBB2039314E0AE
S11323B0039B1B0ADBB203930FE0039B1B0CDBB2F2
S11323C003930AE0039B1B0E039306E040F6761189
S11323D02148FEF7F1F9002338E09DF80530002B81
S11323E016D1039B1B030393039B23F47043002B1D
S11323F006D040F681111848FEF7DEF9002325E0E7
S1132400164BDB6E23F470421449039B1343CB66D3
S11324109DF80530012B18D1039B1B030393039BE9
S113242023F47043002B06D040F68D110A48FEF7C2
S1132430C3F900230AE0094BD3F8EC3023F47042CB
S11324400649039B1343C1F8EC300123184605B039
S11324505DF804FBB081E00FF437000000300E405B
S113246000B589B00390029111461A460B468DF8C7
S1132470073013468DF80630002307930023069394
S11324809DF806301B029DF80720002A01D0012286
S113249000E0002213430593059B40F2013293426E
S11324A05CD0059B40F20132934200F29380059B7D
S11324B0B3F5407F00F08280059BB3F5407F00F2C6
S11324C08980059B40F2012293423BD0059B40F258
S11324D0012293427ED8059BB3F5007F62D0059B11
S11324E0B3F5007F76D8059B40F2011293421DD0CC
S11324F0059BB3F5817F6DD2059BB3F5807F45D0F5
S1132500059BB3F5807F65D8059B002B32D0059BD6
S1132510012B5FD1374BD3F874310793079B1B0A08
S1132520DBB20693079BDBB2079359E0314BD3F838
S113253074310793079B1B0E0693079B1B0CDBB29E
S113254007934DE02B4BD3F878310793079B1B0A75
S1132550DBB20693079BDBB2079341E0254BD3F82C
S113256078310793079B1B0E0693079B1B0CDBB26A
S1132570079335E01F4BD3F86C310793079B1B0A75
S1132580DBB20693079BDBB2079329E0194BD3F820
S11325906C310793079B1B0E0693079B1B0CDBB246
S11325A007931DE0134BD3F870310793079B1B0A65
S11325B0DBB20693079BDBB2079311E00D4BD3F814
S11325C070310793079B1B0E0693079B1B0CDBB212
S11325D0079305E040F6F2110748FEF7EDF800BF57
S11325E0039B079A1A60029B069A1A6000BF09B0FF
S11325F05DF804FBB081E00FF437000000B585B04E
S113260001906C4B02229A636A4B9B6B03F00F039D
S1132610022B06D040F616216748FEF7CDF80023BA
S1132620C3E0FFF7B1FD019B1B89C82B04D94FF40C
S113263022616148FEF7C0F8019B9A88019B1B89BF
S11326409A4204D940F621215B48FEF7B5F8019B74
S1132650B3F90C30C82B04DD40F622215648FEF7AE
S1132660ABF8019B5B78012B09D1019B9B88C82B9C
S113267012D940F626215048FEF79EF80CE0019B43
S11326805B78022B08D1019B9B880A2B04D940F666
S11326902B214948FEF790F8019BDB8842F2107227
S11326A0934204D940F633214348FEF785F8019B51
S11326B0DB884A2B02D80023039315E0019BDB88B7
S11326C0B3F5FA7F03D24FF0805303930CE0019BE0
S11326D0DB8840F6C312934203D84FF000530393B0
S11326E002E04FF040530393324BDB6C23F0405332
S11326F023F00103019AB2F90C20002A01DB012125
S113270000E00021039A0A432A491343CB64294B6E
S1132710D3F8EC30274A43F44073C2F8EC30019B01
S11327209A88264B1A80FFF733FD019B1B891A46B2
S1132730019BB3F90C3019461046FFF7DDFD019BF0
S11327409B88184600F03AFA019B9B7B1846FFF7DA
S1132750E7FD019B5B8801220121184600F0C0F8C7
S1132760034683F00103DBB2002B06D040F66A2156
S11327701148FEF721F8002317E00E4BDB6B0D4ADE
S113278043F48063D363019B5B78184600F01AF826
S1132790019B9B7A202B01D1012300E000231A46E0
S11327A005210748FFF77CFB0123184605B05DF8B7
S11327B004FB00BF00300E40F4370000A6100020D8
S11327C03C300E4000B585B003468DF80730424BCF
S11327D05B6B012B0CBF012300238DF80F30FFF737
S11327E0DBFB00BF3C4B9B6F03F00103002BF9D1D3
S11327F0394B1B6C03F003030293029B002B04D0A0
S113280001220D213548FFF74BFB029BDBB29DF8FB
S113281007209A4209D19DF80730002B58D1002295
S11328200D212E48FFF73CFB52E0029B032B02D004
S1132830029B002B22D19DF80730022B03D09DF878
S11328400730012B1AD14FF40020FFF78DFB00BF96
S1132850214B9B6F03F00103002BF9D11E4B1B6C22
S113286023F003031C4A43F00103136400BFFFF782
S113287085FB034603F40023002BF8D000BF164B5E
S11328809B6F03F00103002BF9D1134B1B6C23F056
S113289003029DF80730104913430B6400BF0E4B2D
S11328A09B6F03F00103002BF9D19DF80730002B37
S11328B014BF01230023DBB21A460D210748FFF79A
S11328C0EFFA9DF80F30002B03D0FFF75DFB00E01B
S11328D000BF05B05DF804FB00300E4054300E40DC
S11328E010B594B001900B468DF8033013468DF863
S11328F00230002313930023119309AB00221A60C2
S11329005A609A6006AB00221A605A609A6003AB60
S113291000221A605A609A60A44B1B88ADF80830F4
S113292000238DF80A30019BB3F5E16F06D3019BB8
S113293040F6B832934201D8012300E000238DF819
S113294043309DF8433003F001038DF843309DF884
S1132950433083F00103DBB2002B06D040F67B3119
S11329609348FDF729FF00231DE1019BB3F5E16FB7
S11329708CBF012300238DF842309DF84230002B98
S11329800AD04FF4E163139340F6B8331193119ACC
S1132990139BD31A129309E04FF4966313934FF4E5
S11329A0E1631193119A139BD31A12939DF8423049
S11329B0002B0BD07F4BD3F868310893089B1B0E78
S11329C00593089B1B0CDBB208930AE0794BD3F800
S11329D068310893089B1B0ADBB20593089BDBB2A2
S11329E00893754BDB6C1B0FDBB203F00303DBB204
S11329F08DF808309DF808309DF8422003A906A8F8
S1132A00FFF72EFD6C4BD3F8EC301B0ADBB203F05E
S1132A100303DBB28DF809309DF809409DF842208C
S1132A2003AB191D06AB181D2346FFF719FD019AC8
S1132A30139BD31A0599089A8A1A03FB02F2129B74
S1132A40B2FBF3F30B930B9A089B13440B93019A79
S1132A50139BD31A0399069A8A1A03FB02F2129B58
S1132A60B2FBF3F30993099A069B13440993019A61
S1132A70139BD31A0499079A8A1A03FB02F2129B36
S1132A80B2FBF3F30A930A9A079B13440A930B9A33
S1132A90059B9A4213D80B9A089B9A420FD30A9A21
S1132AA0049B9A420BD80A9A079B9A4207D3099A25
S1132AB0039B9A4203D8099A069B9A4206D240F68F
S1132AC0C9313B48FDF778FE00236CE09DF80230E5
S1132AD0002B12D0384BDB6D23F4FE4323F00203AA
S1132AE00B9A120213439DF84220002A01D00222BD
S1132AF000E0002230491343CB659DF80330002BDE
S1132B0050D09DF808109DF8423000221846FFF777
S1132B102DFC034683F00103DBB2002B06D040F604
S1132B20D8312348FDF748FE00233CE09DF8091006
S1132B309DF8423001221846FFF718FC034683F043
S1132B400103DBB2002B06D04FF43E611848FDF7B9
S1132B5033FE002327E0099B0F930A9B0E930E9AE2
S1132B600F9B934238BF13460993099B0D93E723A8
S1132B700C930C9A0D9B934228BF134609930E4B5A
S1132B805B6E23F4FF7323F00103099A520013438D
S1132B909DF84220002A01D0012200E000220649CB
S1132BA013434B660123184614B010BD443800008B
S1132BB0F4370000B081E00F00300E4000B585B05E
S1132BC0019000230393344B1B6F03F0070302931C
S1132BD0314BDB6C03F00103002B14D0029B012B5F
S1132BE011D9019B132B02D8042303933DE0019BCD
S1132BF0132B05D9019B272B02D80823039334E018
S1132C001023039331E0244BDB6C03F00103002B0E
S1132C1014D1029B012B11D8019B092B02D8042348
S1132C20039322E0019B092B05D9019B132B02D8A6
S1132C300823039319E01023039316E0164BDB6C6F
S1132C4003F00103002B0BD0029B012B08D8019B3E
S1132C50272B02D80823039307E01023039304E0EF
S1132C6040F61E410D48FDF7A7FD039B013B03936E
S1132C70039B1A02039B1B0313430393064BDB6C56
S1132C8023F47F420449039B1343CB64FFF7A0FA68
S1132C9000BF05B05DF804FB00300E40F4370000BF
S1132CA000B585B003468DF8073000211248FFF7C0
S1132CB017F90390039B002B03D19DF80730012BD8
S1132CC007D9039B002B04D140F63C410B48FDF788
S1132CD073FD0B4B1B6F23F007029DF80730084967
S1132CE013430B67074B1B881846FFF767FF00BFAA
S1132CF005B05DF804FB00BF4C300E40F437000013
S1132D0000300E40A610002084B001900091019B79
S1132D1003F1C0630393039B009A1A6000BF04B0DD
S1132D20704784B001900091019B03F18063039389
S1132D30039B009A1A6000BF04B0704700B587B0C7
S1132D40039002910192FFF795F80590039B1A688E
S1132D50029BDB431A400199029B0B401A43039BDD
S1132D601A600598FFF792F800BF07B05DF804FBFE
S1132D7000B583B0034600918DF807309DF8073005
S1132D80002B42D09DF80730012B3BD09DF8073033
S1132D90022B34D09DF80730032B2DD09DF807303B
S1132DA0042B27D09DF80730052B20D09DF8073041
S1132DB0062B1AD09DF80730072B14D09DF8073046
S1132DC0082B0ED09DF80730092B07D09DF807304B
S1132DD00A2B01D107231AE0002318E04FF44043E3
S1132DE015E00F2313E0002311E000230FE04FF65A
S1132DF0FF730CE000230AE04FF47F4307E040F642
S1132E00FF7304E04FF6C07301E040F2FF33009A11
S1132E10D34003F00103002B04D140F2FE310D48EE
S1132E20FDF7CAFC9DF8072013465B0013441B0101
S1132E300C3303F1804303F520430121009A01FA86
S1132E4002F211461846FFF76CFF00BF03B05DF8AD
S1132E5004FB00BF9838000000B583B0034600911E
S1132E608DF807309DF80730002B42D09DF80730CD
S1132E70012B3BD09DF80730022B34D09DF807304E
S1132E80032B2DD09DF80730042B27D09DF8073055
S1132E90052B20D09DF80730062B1AD09DF807305B
S1132EA0072B14D09DF80730082B0ED09DF807305F
S1132EB0092B07D09DF807300A2B01D107231AE00C
S1132EC0002318E04FF4404315E00F2313E00023E0
S1132ED011E000230FE04FF6FF730CE000230AE03B
S1132EE04FF47F4307E040F6FF7304E04FF6C073EE
S1132EF001E040F2FF33009AD34003F00103002BBA
S1132F0004D140F22D410D48FDF756FC9DF80720F1
S1132F1013465B0013441B010C3303F1804303F598
S1132F2020430121009A01FA02F211461846FFF7E4
S1132F30EBFE00BF03B05DF804FB00BF983800004F
S1132F4000B585B002910192009303468DF80F30CD
S1132F509DF80F30002B42D09DF80F30012B3BD051
S1132F609DF80F30022B34D09DF80F30032B2DD059
S1132F709DF80F30042B27D09DF80F30052B20D05F
S1132F809DF80F30062B1AD09DF80F30072B14D064
S1132F909DF80F30082B0ED09DF80F30092B07D069
S1132FA09DF80F300A2B01D107231AE0002318E003
S1132FB04FF4404315E00F2313E0002311E00023F6
S1132FC00FE04FF6FF730CE000230AE04FF47F4359
S1132FD007E040F6FF7304E04FF6C07301E040F2EF
S1132FE0FF33029AD34003F00103002B04D14FF4C2
S1132FF0B0713248FDF7E0FB019B002B0FD0009B22
S1133000002B06D09DF80F3002991846FFF724FFD5
S113301005E09DF80F3002991846FFF7A9FE029BC0
S1133020072B19D89DF80F2013465B0013441B018E
S1133030043303F1804303F52043029A92000F21E5
S113304001FA02F0029A9200019901FA02F2014691
S11330501846FFF773FE1AE09DF80F2013465B0035
S113306013441B01083303F1804303F52043029A00
S1133070083A92000F2101FA02F0029A083A9200EB
S1133080019901FA02F201461846FFF757FE019B27
S1133090002B0FD1009B002B06D09DF80F30029916
S11330A01846FFF7D9FE05E09DF80F30029918463F
S11330B0FFF75EFE00BF05B05DF804FBEC380000CE
S11330C082B00190019B0C4A93420BD0019B0B4AA6
S11330D0934207D0019B0A4A934203D0019B094AB9
S11330E0934201D1012300E0002303F00103DBB28A
S11330F0184602B0704700BF0080014000840140C0
S113310000A0014000A4014000B585B001900091E9
S11331100198FFF7D5FF0346002B03D1A5213748BB
S1133120FDF74AFB00230393009B1B7883F0010304
S1133130DBB2002B02D0019B02225A60019B0022C9
S11331405A62009B9B781A06009BDB781B041A4387
S1133150009B9B799B021A43009BDB791B02134360
S1133160009A127A1343009A5278002A01D040221E
S113317000E000221343009A527A002A01D08022F0
S113318000E000221343009A927A002A01D0202200
S113319000E000221343009AD27A002A01D01022C0
S11331A000E000221343009A127B002A01D0082277
S11331B000E0002213430393009B1B79002B02D0F1
S11331C04FF4005200E00022009B5B79002B02D0F8
S11331D04FF0805300E000231343039A13430393F7
S11331E0019B039A1A60009B1B78002B02D0019B61
S11331F001225A6000BF05B05DF804FB9439000059
S113320000B585B00390029101920398FFF758FF2F
S11332100346002B03D1F5212948FDF7CDFA029B83
S1133220032B03D9F6212648FDF7C6FA019B1B7828
S11332309A06019B5B781B061A43019B9B781B042F
S11332401A43019BDB781B031A43019B1B799B02E6
S11332501A43019B5B791B021343019A927913432E
S1133260019AD279002A02D04FF0804200E0002275
S11332701343019A127A002A02D04FF0005200E060
S113328000221343019A527A002A01D0102200E04E
S113329000221343019A927A002A01D0042200E00A
S11332A000221A43019BDB7A1B071A430399029BF2
S11332B006331B010B441A6000BF05B05DF804FB24
S11332C09439000010B584B0064B6C460FCB84E8EB
S11332D00F006B461846FFF791F90023184604B017
S11332E010BD00BFE839000000B583B06B46002272
S11332F01A609A8000238DF8003000238DF8013085
S113330000238DF8023000238DF8033000238DF85C
S1133310043002238DF805306B461846FEF752FE42
S11333200023184603B05DF804FB000030B58DB0EF
S11333301F4B06AC1D460FCD0FC42B682380002302
S11333408DF828304FF0FF330B931A4B5B6803F46E
S11333500023002B04D1174B9B68C3F308030B9382
S11333600B9BB3F1FF3F08D1134B1B884FF6FF7241
S1133370934202D0104B1B880B930B9BB3F1FF3F7E
S113338002D14FF4B4730B930B9BB3F1FF3F03D003
S11333900B9B9BB2ADF81E300848FDF7D5F906AB80
S11333A01846FEF73BFA002318460DB030BD00BFA7
S11333B0F8390000B081E00F0001E00F00F049028D
S11333C000B583B00B4B1B68019300238DF80730C5
S11333D03F238DF8043007238DF8063001AB1846DF
S11333E0FEF79CFA1420FEF7D3FA0023184603B024
S11333F05DF804FB0C3A000082B0034600918DF89E
S113340007309DF90730002B0ADB009BDAB20C4928
S11334109DF907305201D2B20B4483F800230BE02C
S1133420009BDAB207499DF8073003F00F03043B11
S11334305201D2B20B441A7600BF02B0704700BFEB
S113344000E100E000ED00E000B583B0FB238DF85F
S113345007300CE09DF9073005211846FFF7CCFF33
S11334609DF90730DBB20133DBB28DF807309DF9EB
S11334700730322BEEDD0023184603B05DF804FB61
S113348008B5FDF789F8FDF798F8FDF798F8FDF70A
S113349098F8FDF798F800BF08BD08B5FDF795F852
S11334A0FDF795F8FDF795F8FDF795F800BF08BD11
S11334B000B587B00190FDF7DFF80346174AA2FB79
S11334C003239B090593059B002B04D13621144843
S11334D0FDF772F91EE0134A059BB2FBF3F3049364
S11334E0049B002B04D13C210D48FDF765F911E044
S11334F0019B4FF47A7203FB02F2049BB2FBF3F3D9
S11335000393039B9B080293029B002B02D0029817
S113351000F00EF807B05DF804FB00BFD34D621055
S1133520103A000040420F000000000000000000BC
S1133530013800D0FCE7704708B5074B044613B1C7
S11335400021AFF30080054B1868836A03B19847E4
S1133550204600F031F800BF000000006C3A000083
S113356070B50D4D0D4C641BA4100026A64209D164
S11335700B4D0C4C00F022F8641BA4100026A6424C
S113358005D170BD55F8043B98470136EEE755F870
S1133590043B98470136F2E77C1000207C100020A1
S11335A07C1000208010002002440346934200D186
S11335B0704703F8011BF9E7FEE700BFF8B500BF49
S11335C0F8BC08BC9E467047F8B500BFF8BC08BC00
S11335D09E467047633A5C75736572735C66697284
S11335E06D776172652D315C73696D706C696369A7
S11335F0747973747564696F5C73646B735C676509
S1133600636B6F5F73646B5C706C6174666F726D17
S11336105C656D6C69625C696E635C656D5F746941
S11336206D65722E68000000000108070F000A0093
S1133630C8002000A0000100633A5C7573657273D2
S11336405C6669726D776172652D315C73696D704A
S11336506C696369747973747564696F5C73646BA2
S1133660735C6765636B6F5F73646B5C706C6174D0
S1133670666F726D5C636F6D6D6F6E5C696E635CBB
S1133680736C5F636F6D6D6F6E2E6800633A5C756B
S1133690736572735C6669726D776172652D315CF6
S11336A073696D706C696369747973747564696F37
S11336B05C73646B735C6765636B6F5F73646B5C93
S11336C0706C6174666F726D5C656D6C69625C6967
S11336D06E635C656D5F6275732E6800633A5C753A
S11336E0736572735C6669726D776172652D315CA6
S11336F073696D706C696369747973747564696FE7
S11337005C73646B735C6765636B6F5F73646B5C42
S1133710706C6174666F726D5C656D6C69625C6916
S11337206E635C656D5F636D752E6800433A2F555B
S1133730736572732F6669726D776172652D312FAF
S113374053696D706C696369747953747564696FD6
S11337502F53444B732F6765636B6F5F73646B2FD9
S1133760706C6174666F726D2F656D6C69622F7316
S113377072632F656D5F636D752E630040787D0104
S113378000000000005A620200010000C0CF6A007D
S113379002000000809FD50002010000002D3101CD
S11337A002020000633A5C75736572735C66697249
S11337B06D776172652D315C73696D706C696369D5
S11337C0747973747564696F5C73646B735C676537
S11337D0636B6F5F73646B5C706C6174666F726D46
S11337E05C656D6C69625C696E635C656D5F627576
S11337F0732E6800433A2F55736572732F6669728E
S11338006D776172652D312F53696D706C696369D1
S1133810747953747564696F2F53444B732F6765C0
S1133820636B6F5F73646B2F706C6174666F726D22
S11338302F656D6C69622F7372632F656D5F656DA3
S1133840752E630000000000633A5C757365727343
S11338505C6669726D776172652D315C73696D7038
S11338606C696369747973747564696F5C73646B90
S1133870735C6765636B6F5F73646B5C706C6174BE
S1133880666F726D5C656D6C69625C696E635C65C4
S11338906D5F6275732E6800633A5C75736572734D
S11338A05C6669726D776172652D315C73696D70E8
S11338B06C696369747973747564696F5C73646B40
S11338C0735C6765636B6F5F73646B5C706C61746E
S11338D0666F726D5C656D6C69625C696E635C6574
S11338E06D5F6770696F2E6800000000433A2F55C2
S11338F0736572732F6669726D776172652D312FEE
S113390053696D706C696369747953747564696F14
S11339102F53444B732F6765636B6F5F73646B2F17
S1133920706C6174666F726D2F656D6C69622F7354
S113393072632F656D5F6770696F2E63000000000E
S1133940633A5C75736572735C6669726D776172F4
S1133950652D315C73696D706C6963697479737416
S11339607564696F5C73646B735C6765636B6F5FCD
S113397073646B5C706C6174666F726D5C656D6CA6
S113398069625C696E635C656D5F74696D65722EF6
S113399068000000433A2F55736572732F6669728D
S11339A06D776172652D312F53696D706C69636930
S11339B0747953747564696F2F53444B732F67651F
S11339C0636B6F5F73646B2F706C6174666F726D81
S11339D02F656D6C69622F7372632F656D5F7469F7
S11339E06D65722E63000000000108070F000A00D5
S11339F0C8002000A000010000000000A000680131
S1133A000A200706020A040700000000000207005B
S1133A10433A2F55736572732F6669726D776172BD
S1133A20652D312F53696D706C69636974795374B2
S1133A307564696F2F53444B732F6765636B6F5FB6
S1133A4073646B2F706C6174666F726D2F73657223
S1133A50766963652F7564656C61792F7372632F62
S1133A60736C5F7564656C61792E63001C100020B3
S10B3A70DCC6FF7F0100000029
S10F3A78843A000000100020210000002F
S1133A840500000000F0490200800000C0EA2101A2
S1133A94C0EA2101C0EA2101FFFF00000000000088
S1133AA4000000000000000000000000000000000E
S1133AB400000000000000000000000000000000FE
S1133AC400000000000000000000000000000000EE
S1133AD400000000000000000000000000000000DE
S1133AE400000000000000000000000000000000CE
S1133AF4000000000000000000000000310100008C
S1073B040D010000AB
S90305DD1A
