S00A0000646D612E733337B8
S113000000100020D50400006D0500006D050000FF
S11300106D0500006D0500006D0500006D05000014
S11300206D0500006D0500006D0500006D05000004
S11300306D0500006D0500006D0500006D050000F4
S11300406D0500006D0500006D0500006D050000E4
S11300506D0500006D0500006D0500006D050000D4
S11300606D050000010200006D0500006D05000033
S11300706D0500006D0500006D0500006D050000B4
S11300806D0500006D0500006D0500006D050000A4
S11300906D0500006D0500006D0500006D05000094
S11300A06D0500006D0500006D0500006D05000084
S11300B06D0500006D0500006D0500006D05000074
S11300C06D0500006D0500006D0500006D05000064
S11300D06D0500006D0500006D0500006D05000054
S11300E06D0500006D0500006D0500006D05000044
S11300F06D0500006D0500006D0500006D05000034
S11301006D0500006D0500006D05000010B5054C7F
S1130110237833B9044B13B10448AFF300800123AF
S1130120237010BD7C100020000000007C2E000015
S113013008B5034B1BB103490348AFF3008008BD66
S113014000000000801000207C2E0000A3F5803AFF
S1130150704700BF174B002B08BF134B9D46FFF79A
S1130160F5FF00218B460F461348144A121A02F079
S1130170F5FC0E4B002B00D098470D4B002B00D004
S113018098470020002104000D000D48002802D0EB
S11301900C48AFF3008002F0BDFC2000290000F001
S11301A0FBF802F0A3FC00BF000008000000000000
S11301B000000000001000207C100020041100202A
S11301C00000000000000000044B1B69034A23F0F8
S11301D00403136130BF00BF704700BF00ED00E0AF
S11301E082B00190024A019B936600BF02B070473F
S11301F000200E40014B1B6E1846704700200E4035
S113020000B583B0FFF7F6FF01900198FFF7E8FF10
S1130210019B002B00DAFEE7044B1B6B034A43F0FF
S11302200103136300BF03B05DF804FB00200E401C
S113023000B58DB000230B9318E047490B9B0B9A34
S113024041F8232000230A930AE044490A9B9A00B8
S11302500B9B1344002241F823200A9B01330A9389
S11302600A9B032BF1D90B9B01330B930B9B032BA1
S1130270E3D93B4B1B68099309AB184602F0B0F96C
S113028005AB00221A605A609A60DA6003238DF885
S11302902130344B1A460023136053609360D360BB
S11302A0304A137843F0080313702E4A138803214D
S11302B061F30E1313802B4A937843F02003937059
S11302C0284AD378022161F38303D370224A254B51
S11302D05A60244A137B43F001031373214A137BAE
S11302E043F0020313731F4A9378032161F303035A
S11302F093701C4A93786FF345139370194A93785B
S113030043F010039370174A13786FF3C303137009
S1130310144A937843F040039370124AD37843F01D
S11303208003D3700F4A137B6FF34103137305AB40
S11303300C4A1946002002F0C1F90B4B074AC3F8D6
S11303409420094B1B6B084A43F00103136300BF5D
S11303500DB05DF804FB00BFA8100020B810002009
S1130360882B00009810002000200E4010B584B0A7
S1130370064B6C460FCB84E80F006B46184601F021
S11303803DFDFFF755FF00BF04B010BD8C2B0000EE
S113039008B5FFF719FFFCE708B502F08FFBFFF77C
S11303A0E5FF02F098FBFFF7F3FFFAE708B5042135
S11303B0112000F07BFC0121084800F0FFFA022123
S11303C0074800F073FC0221064800F06FFC02218C
S11303D0054800F06BFC0023184608BD30253E009C
S11303E002001E000300200005002400024BDB6C09
S11303F01B0EDBB218467047B081E00F00B583B026
S11304001D4B01225A64FFF7F1FF03468DF80730B4
S11304109DF80730002B0CD1184B4AF6E8521A60AD
S1130420174B1B68164A43F004031360134B002256
S11304301A609DF80730012B05D8124B1B68114A2E
S113044043F400531360104B1B6A23F444130E4A05
S113045043F488131362084B1B68074A43F4807300
S113046013600A4B1B68094A43F4F843136000BF46
S113047003B05DF804FB00BF00000E4090310E4055
S113048098310E4064310E4000400E40A4310E40BD
S113049008B5FFF7B3FF02F0F5FA02F031FA02F003
S11304A063FA02F0ABFAFFF781FF02F03BFA00BFF8
S11304B008BD00BF704700BF704700BF704700BF52
S11304C0704700BF704700BF704700BF704700BF50
S11304D07047000000B585B000F0CAF81F4B0393C5
S11304E019E0002302930EE0039B1A68029B9B0011
S11304F01A44039B5968029B9B000B4412681A60C0
S1130500029B01330293039B9B68029A9A42EBD3AA
S1130510039B0C330393039B114A9342E1D3114B86
S1130520019314E00023009309E0019B1A68009BE7
S11305309B00134400221A60009B01330093019B2B
S11305405B68009A9A42F0D3019B08330193019BA4
S1130550054A9342E6D3FFF7FDFD00BF842E000059
S1130560902E0000902E0000902E0000FEE7000068
S113057000B583B000F020F801900A4BD3F808319D
S11305801B0AC3F308030093009B0133019AB2FBD7
S1130590F3F30193044A019B1360019B184603B0D3
S11305A05DF804FB00400E4008100020014B184683
S11305B0704700BF00F0490282B01A4BD3F8943060
S11305C003F00703023B032B1BD801A252F823F0CC
S11305D0F1050000E9050000E1050000F90500004F
S11305E0114B1B68019310E04FF4004301930CE09E
S11305F00E4B1B68019308E00D4B1B685B080193CD
S113060003E00B4B1B68019300BF064BD3F800318A
S11306101B0A03F01F030133019AB2FBF3F31846DC
S113062002B0704700400E4004100020001000206B
S11306300C100020014B1B68184670470010002066
S113064000B583B00190084A019B1360074BD3F8AF
S1130650943003F00703022B01D1FFF789FF00BF99
S113066003B05DF804FB00BF0010002000400E4002
S1130670064B074A9A60054BD3F88830034A43F483
S11306807003C2F8883000BF704700BF00ED00E07F
S11306900000000082B001900091FEE700B587B031
S11306A0039002910192029B1F2B03D991210A48C6
S11306B0FFF7F0FF039B03F1424303F58013DA00D5
S11306C0029B13449B000593059B019A1A6000BF8B
S11306D007B05DF804FB00BFF02B000084B001906C
S11306E00091019B03F1424303F58013DA00009B60
S11306F013449B000393039B1B68184604B0704784
S1130700054B1B6803F04003002B01D1012300E0DB
S113071000231846704700BF3C300E4008B5FFF771
S1130720EFFF034683F00103DBB2002B08D100BFC7
S113073012210448FFF7D2FF0346002BF8D100E052
S113074000BF08BD04300E4008B5FFF7E7FF044BB7
S11307505B681B0C03F00303DBB2184608BD00BF43
S113076000300E40054B1B6C9BB241F67132934234
S113077014BF01230023DBB21846704700000E406B
S1130780024B00221A6400BF704700BF00000E40F5
S1130790024B41F671321A6400BF704700000E40EC
S11307A0014B5B681846704700000E4082B0019010
S11307B0024A019B536000BF02B0704700000E4024
S11307C000B585B0019001230393019B124A934223
S11307D004D8002303930023029308E0019B0F4AEB
S11307E0934202D80123029301E002230293039A65
S11307F010210B48FFF752FF094BD3F8003123F0C7
S11308008072029B1B0606491343C1F8003100BFE6
S113081005B05DF804FB00BF0048E8010090D00378
S113082000400E4000B585B001900091FFF7B8FF7D
S1130830034603F0407303930023029312E01D4A1E
S1130840029BDB0013441A79009BDBB29A4206D167
S1130850184A029B52F83330019A9A4206D9029BF5
S113086001330293029B042BE9D900E000BF029BF1
S1130870052B07D10323039341F2CE510E48FFF712
S113088009FF05E00B4A029BDB0013445B790393E9
S1130890039B1B060393FFF783FF034623F0407378
S11308A0039A134303930398FFF780FF00BF05B037
S11308B05DF804FBE02C0000902C000000B583B030
S11308C0FFF750FF03468DF80730FFF761FFFFF78E
S11308D06DFE034600211846FFF7A4FF9DF807307C
S11308E0002B01D0FFF74CFF00BF03B05DF804FB01
S11308F000B585B001900091FFF734FF03468DF8F1
S11309000F30FFF745FF00990198FFF78BFF9DF823
S11309100F30002B01D0FFF733FF00BF05B05DF8A7
S113092004FB86B001900F230593019B03330493CA
S1130930059B0393039A049B934228BF1346029397
S1130940029B1B070293029B184606B070470000E7
S1130950034B5B6A1B0903F003031846704700BF8F
S113096000400E4082B00190054B5B6A23F03002D8
S1130970019B1B01024913434B6200BF02B0704745
S113098000400E4082B00190094BD3F8443103F08B
S11309900103002B08D100BF054BD3F84021019B74
S11309A01340002BF8D100E000BF02B0704700BF35
S11309B000400E4000BF704700BF704700B587B0CD
S11309C001900B468DF8033000230493019B1B0A0E
S11309D003F00F03013B092B32D801A252F823F094
S11309E0090A0000150A0000410A0000410A00003B
S11309F00F0A00001B0A0000250A0000410A00003B
S1130A002F0A00003B0A00001B4B05931EE01B4B02
S1130A1005931BE01A4B059318E01A4B0593012329
S1130A20049313E0184B0593102304930EE0174B23
S1130A3005934FF48033049308E0154B059305E0C8
S1130A4041F66A311348FFF725FE11E0019B1B0BA9
S1130A5003F01F030393049B002B02D00498FFF7B9
S1130A6091FF9DF803301A4603990598FFF716FE87
S1130A7007B05DF804FB00BF00400E40B0400E40DC
S1130A80C0400E40E0400E40E8400E40F0400E40B2
S1130A9050410E40902C000000B585B00190012318
S1130AA08DF80F30019B03F00F030293029B013B6F
S1130AB0072B00F2E78001A252F823F0DD0A0000C0
S1130AC03F0B00007D0B0000850C0000CF0B0000E5
S1130AD00D0C0000850C0000370C0000714BD3F89E
S1130AE0943003F00703023B052B23D801A252F8EC
S1130AF023F000BF1D0B0000150B00000D0B0000C0
S1130B00250B0000350B00002D0B000002238DF88F
S1130B100F3013E003238DF80F300FE004238DF81A
S1130B200F300BE00B238DF80F3007E00C238DF80A
S1130B300F3003E005238DF80F3000BFABE0594BB5
S1130B40D3F8803003F00703042B0ED0042B10D805
S1130B50012B02D0022B04D00BE003238DF80F30BD
S1130B600BE002238DF80F3007E00A238DF80F30D5
S1130B7003E001238DF80F3000BF8CE0494BD3F81C
S1130B80843003F00703013B032B1BD801A252F866
S1130B9023F000BFA50B0000AD0B0000BD0B00004F
S1130BA0B50B000003238DF80F300FE002238DF8FE
S1130BB00F300BE00A238DF80F3007E006238DF881
S1130BC00F3003E001238DF80F3000BF63E0354B95
S1130BD0D3F8883003F00703042B0ED0042B10D86D
S1130BE0012B02D0022B04D00BE003238DF80F302D
S1130BF00BE002238DF80F3007E00A238DF80F3045
S1130C0003E001238DF80F3000BF44E0254B1B6F38
S1130C1003F00103002B05D0012B07D109238DF824
S1130C200F3007E007238DF80F3003E001238DF820
S1130C300F3000BF2FE01B4BD3F85C3103F03003BF
S1130C40302B16D0302B18D8202B0ED0202B14D8B4
S1130C50002B02D0102B04D00FE001238DF80F30AD
S1130C600FE007238DF80F300BE004238DF80F30CD
S1130C7007E008238DF80F3003E001238DF80F30CF
S1130C8000BF08E000238DF80F3042F2BA01064895
S1130C90FFF700FD00BF9DF80F30184605B05DF862
S1130CA004FB00BF00400E40902C000000B58BB048
S1130CB001900B468DF803300323099303238DF829
S1130CC023300023069300230593019B112B1BD192
S1130CD09DF80330042B03D1FFF7ACFC05900CE026
S1130CE09DF80330052B08D100F08CF90346BD4A6A
S1130CF0934202D900F086F90590059B002B03D09E
S1130D000021059800F09EFD019B03F00F0304935E
S1130D10049B013B072B00F25B8101A252F823F0F4
S1130D20410D00004B0E0000810E0000D10F0000A9
S1130D30610E0000250F0000D10F0000510F0000CC
S1130D409DF80330023B0A2B48D801A252F823F045
S1130D507D0D0000890D0000950D0000A70D000019
S1130D60DD0D0000DD0D0000DD0D0000DD0D0000D7
S1130D70D10D0000B90D0000C50D00000423099336
S1130D8000238DF823302FE00323099301238DF8EA
S1130D90233029E00223099302238DF8233092485B
S1130DA0FFF70EFD20E00123099303238DF8233080
S1130DB08D48FFF705FD17E00523099303238DF8FC
S1130DC0233011E00723099306238DF823300BE029
S1130DD042F27B118548FFF75DFCFFE04FF40651BA
S1130DE08248FFF757FCF9E09DF82330062B06D024
S1130DF09DF8233001220121184600F0D1F9FFF7B4
S1130E005DFDFFF7D7FD059B002B01D0FFF786FCA6
S1130E10774A099B5367FFF7ABFB0390FFF7CCFBC3
S1130E2003461846FFF7CCFCFFF78EFC0346194631
S1130E300398FFF75DFD059B002B03D101210020E2
S1130E4000F000FDFFF7B8FDC8E06A4B06939DF87B
S1130E500330062B04D142F2BF116448FFF71AFC99
S1130E60069B002B01D0069B00E0634B06939DF884
S1130E700330062B04D142F2CF115C48FFF70AFC81
S1130E80069B002B01D0069B00E05C4B06939DF86B
S1130E900330013B092B3BD801A252F823F000BFD9
S1130EA0C90E0000CF0E0000DF0E0000110F00007D
S1130EB0110F0000EF0E0000110F0000110F0000D1
S1130EC0110F00000B0F00000023079326E00122FE
S1130ED00121002000F064F9022307931EE001229F
S1130EE00121012000F05CF90123079316E0FFF7CC
S1130EF063FB03461846FFF763FC012202214048C6
S1130F00FFF7CCFB0323079308E00423079305E0D2
S1130F1042F2FA113548FFF7BDFB5FE0069B079AE2
S1130F201A605BE09DF80330072B02D0092B04D034
S1130F3007E02F4B00221A6709E02D4B01221A67A4
S1130F4005E042F284212948FFF7A4FB46E045E08E
S1130F509DF80330013B072B28D801A252F823F057
S1130F60810F0000AD0F0000AD0F0000970F0000CF
S1130F70AD0F0000AD0F0000870F0000A70F0000A9
S1130F800023079318E001220121042000F008F94E
S1130F900123079310E001220121022000F000F94F
S1130FA00223079308E00323079305E042F2E221BA
S1130FB00E48FFF76FFB11E00D4BD3F85C3123F0C3
S1130FC03002079B1B010A491343C1F85C3105E059
S1130FD042F2B9310548FFF75DFB00BF0BB05DF885
S1130FE004FB00BF002D31010148E801902C0000F2
S1130FF000400E4080400E4088400E4084400E4029
S1131000B0400E40014B1B68184670470C1000207E
S113101010B584B001901120FFF73EFD0346042B68
S113102004D142F2A4613748FFF734FB01220021C6
S1131030022000F0B5F8019B5B78002B07D1019BDF
S11310409B78002B03D1019BDB78002B04D042F268
S1131050E0612C48FFF71EFB00230393019B1B7CDC
S1131060012B04D142F2E7612648FFF713FB019BF1
S11310701B7C022B01D101230393234B5B6A23F0D6
S113108001022149039B13434B62019B1B781A46BF
S113109008211E48FFF702FB019B9B88DB02019A93
S11310A0527A1146184A0B43D362174B1B6B03F059
S11310B07F62019BDB88DB021343019A927A1A4315
S11310C0019B1B7ADB0142EA0304019B1B7A18464D
S11310D0FFF727FC03460C4A23431363019B5B7B06
S11310E01A03019B9B7B1B011343019AD27B1A4376
S11310F0019B1B7B1B04044913434B6300BF04B0D7
S113110010BD00BF902C000000400E4024400E4053
S113111000B585B001901120FFF7BEFC0346022BF9
S113112004D142F262711448FFF7B4FA134B9A6B7C
S1131130134B1340019A12781A43019B5B78DB022C
S11311401A43019B9B781B061A43019BDB781B0205
S113115013430393094B9B6B039A9A4207D00122D2
S11311600021002000F01CF8044A039B936300BF95
S113117005B05DF804FB00BF902C000000400E4059
S113118080E4FFF882B00346ADF80630034ABDF8A8
S11311900630138000BF02B0704700BF101000205B
S11311A000B589B003468DF807300B468DF806303C
S11311B013468DF805309DF80730042B3BD801A267
S11311C052F823F0211200000F120000EB1100006E
S11311D0D9110000FD11000001230593022304939B
S11311E001230793002306932BE00423059308238C
S11311F00493032307930223069322E01023059309
S113120020230493052307930423069319E0402322
S1131210059380230493072307930623069310E082
S11312204FF4807305934FF40073049309230793D9
S11312300823069305E042F609014948FFF72AFA14
S11312408BE09DF80630002B6AD000238DF80F3018
S11312509DF80730022B1BD1FFF77AFB0346002BC6
S113126016D1404BDB6B03F48063002B04D142F6B0
S113127018013B48FFF70EFA01238DF80F303A4B63
S11312805B6A03F00103012B02D10120FFF76AFB23
S1131290354A059B136600BF06993448FFF71EFACA
S11312A00346002BF8D09DF80530002B55D000BF25
S11312B007992E48FFF712FA0346002BF8D09DF841
S11312C00730022B49D19DF80F30002B45D0264B17
S11312D05B6A03F00103012B05D1012220210220C6
S11312E000F08EF903E00021022000F02DF9022025
S11312F000F03EF80290012200210220FFF750FF87
S11313000299022000F074F8174A059B136600BF87
S113131007991648FFF7E2F90346002BF8D01CE0C2
S1131320114A049B136600BF0F4BD3F89030012180
S1131330069A01FA02F21340002BF5D19DF805300C
S1131340002B0AD000BF084BD3F890300121079A34
S113135001FA02F21340002BF5D109B05DF804FB49
S1131360902C000000300E4000400E4090400E4093
S113137000B585B003468DF807309DF80730013B72
S1131380032B24D801A252F823F000BF9D130000C0
S1131390C1130000A9130000B5130000124B1B6A0F
S11313A0C3F3080303931AE00F4B1B6903F07F0395
S11313B0039314E00C4B9B6903F07F0303930EE04B
S11313C0094BD3F89C30C3F30A03039307E00023CB
S11313D0039342F695010548FFF75CF900BF039BB0
S11313E0184605B05DF804FB00400E40902C000048
S11313F000B585B0034600918DF807309DF807309D
S1131400013B032B00F28D8001A252F823F000BFB0
S113141021140000D5140000611400009B14000086
S1131420009BB3F5007F04D342F6BA014248FFF7AC
S113143031F9009BC3F30803009300BF1A213F480E
S1131440FFF74CF90346002BF8D13D4B1B6A23F4FC
S1131450FF7323F001033A49009A13430B6266E0D9
S1131460009B7F2B04D942F6C7013348FFF712F9DA
S1131470009B03F07F03009300BF18212F48FFF760
S11314802DF90346002BF8D12D4B1B6923F07F0265
S11314902B49009B13430B6149E0009B7F2B04D92C
S11314A042F6E2012448FFF7F5F8009B03F07F03BE
S11314B0009300BF19212148FFF710F90346002BC0
S11314C0F8D11F4B9B6923F07F021D49009B1343F6
S11314D08B612CE01A4BD3F8903003F00403002BFB
S11314E004D042F6F2011448FFF7D4F8144B5B6AB7
S11314F023F03003124A43F010035362009BDB09CC
S113150003F00F031846FFF70CFA03900C4B1A6B09
S11315100C4B1340009A1A430949039B13430B6372
S113152005E042F60C110448FFF7B4F800BF00BF11
S113153005B05DF804FB00BF902C000040410E4054
S113154000400E4000F8FF0F00B585B0034600913F
S11315508DF807309DF80730022B04D042F6241191
S11315602448FFF797F8FFF7F3F90346002B03D15C
S11315704FF4400303931FE0009B302B10D0009BDB
S1131580302B11D8009B002B06D0009B202B0BD1B5
S11315904FF4000303930FE04FF4400303930BE075
S11315A04FF44003039307E0134B039342F63F11B8
S11315B01048FFF76FF800BF00BF104BD3F890201E
S11315C0039B1340039A9A42F7D1039B03F48003CD
S11315D0002B0AD0094BD3F8A03003F48063002B0E
S11315E014BF01230023DBB200E00123184605B039
S11315F05DF804FB902C0000FF33E10700400E402F
S113160000B583B0034600918DF8073013468DF87A
S113161006309DF80730022B16D1009B002B07D013
S11316200F4B4FF48062C3F8A8200D4A009B536609
S11316309DF80630002B0DD09DF807300099184610
S1131640FFF782FF034607E042F675110548FFF7EE
S113165021F800E000BF0123184603B05DF804FB45
S113166000400E40902C000084B0EFF311830193EE
S1131670019B039360230293029B83F3118800BFB1
S1131680039B184604B0704784B00190019B0393F8
S1131690039B83F3118800BF00BF04B070470000B0
S11316A000B587B0039002910192029B1F2B03D9CE
S11316B091210A48FEF7EEFF039B03F1424303F531
S11316C08013DA00029B13449B000593059B019A47
S11316D01A6000BF07B05DF804FB00BF082D0000CE
S11316E084B001900091019B03F1424303F5801300
S11316F0DA00009B13449B000393039B1B6818466A
S113170004B07047054B1B6803F04003002B01D164
S1131710012300E000231846704700BF3C300E4010
S113172008B5FFF7EFFF034683F00103DBB2002B9C
S113173008D100BF12210448FFF7D2FF0346002B53
S1131740F8D100E000BF08BD04300E4008B5FFF733
S1131750E7FF044B5B681B0C03F00303DBB2184682
S113176008BD00BF00300E4082B00190024A019BC8
S1131770D36200BF02B0704700300E40014B5B6A79
S11317801846704700300E40024B00225A6300BFD7
S1131790704700BF00300E40024B4AF6E8525A63CD
S11317A000BF704700300E4082B003468DF807300A
S11317B09DF80730C3F10203102202FA03F318461E
S11317C002B0704784B001901D4B9B690393039B47
S11317D023F03F030393019B1B78002B01D00422C9
S11317E000E00022019B5B78002B01D0022300E083
S11317F000231343019A9278002A01D0082200E0C2
S113180000221343019AD278012A01D1012200E077
S113181000221343019A12791343039A1343039347
S1131820074A039B9361064B1B6823F44032019BD8
S11318305B791B04024913430B6000BF04B070477B
S113184000300E4000B585B001900B468DF8033092
S1131850FFF758FF034683F00103DBB2002B2AD1C4
S1131860019B002B0FD1164BD3F800311B0A03F058
S11318701F0301330293FEF79FFE0246029B02FB05
S113188003F3039301E0019B03930E4B1B78002B9E
S11318900AD0039B0C4A934206D89DF8033019469C
S11318A0022000F013F807E09DF8033019460020E9
S11318B000F00CF800E000BF05B05DF804FB00BFC9
S11318C000400E4000110020002D310110B586B0FB
S11318D003460A468DF8073013468DF80630FFF7A5
S11318E011FF034683F00103DBB2002B3FD1FFF766
S11318F02DFF03461A469DF80730934239D01E4BFC
S1131900D3F800311B0A03F01F0301330593FEF7DC
S113191053FE0490049B059A02FB03F303939DF882
S11319200730022B0CD1039B144A934204D94FF481
S1131930E3611348FEF7AEFE02210498FEF7D8FFD8
S1131940104C9DF807301846FFF72EFF034623611D
S11319509DF80630002B01D0FFF7E2FE9DF807301A
S1131960002B07D100210498FEF7C2FF02E000BF5C
S113197000E000BF06B010BD00400E40002D310154
S1131980582D000000300E40012318467047000017
S113199000B583B00C4BDB6E0B4A43F08073D36607
S11319A000210A48FFF79CFE0190019B002B03D005
S11319B0042000F075FD02E0002000F071FD00BF7E
S11319C003B05DF804FB00BF00300E404C300E4005
S11319D000B58BB001230993099B1B050893424B67
S11319E0DB6C1B0A03F00F030793404B1B881A465A
S11319F03E4B1B8828335B08134403F12801079BE3
S1131A005A1C13469B001344B1FBF3F3013B0693AA
S1131A10069B059307230493049A059B934228BFCE
S1131A2013460693069B1B060693069B23F0E0636E
S1131A30002B04D040F6ED012D48FEF72BFE089B49
S1131A4023F4E003002B04D040F6EE012848FEF70F
S1131A5021FE254BDB6C23F0EE620699089B0B43B9
S1131A6021491343CB64234BB3F90030002B36DBFD
S1131A70204BB3F90030ADF80E30BDF80E20BDF8A0
S1131A800E3028335B08134403F12802079B01330B
S1131A905900079B01335B080B44B2FBF3F3029339
S1131AA0029B019307230093009A019B934228BF52
S1131AB013460293029B1B010293029B23F07003C3
S1131AC0002B04D040F606110948FEF7E3FD064B4F
S1131AD01B6D23F070020449029B13430B6500BF86
S1131AE00BB05DF804FB00BF00300E40F81000207E
S1131AF0582D0000FC10002082B001900B46ADF878
S1131B000230019B9AB2044B1A80044ABDF8023099
S1131B10138000BF02B07047F8100020FC100020B2
S1131B2000B583B003468DF807309DF80730002BCD
S1131B3002D0012B04D007E0084B094A9A6509E05A
S1131B40064B084A9A6505E040F632110648FEF74E
S1131B50A1FD00BF00BF03B05DF804FB00300E40E0
S1131B6077402057372110B7582D000000B585B0B5
S1131B7003468DF807300B468DF8063013468DF872
S1131B800530344BD3F8803103939DF80630032B92
S1131B901CD801A252F823F0A91B0000B11B0000BD
S1131BA0BB1B0000C51B0000039BDBB2039314E0C6
S1131BB0039B1B0ADBB203930FE0039B1B0CDBB2FA
S1131BC003930AE0039B1B0E039306E040F6761191
S1131BD02148FEF75FFD002338E09DF80530002B17
S1131BE016D1039B1B030393039B23F47043002B25
S1131BF006D040F681111848FEF74CFD002325E07D
S1131C00164BDB6E23F470421449039B1343CB66DB
S1131C109DF80530012B18D1039B1B030393039BF1
S1131C2023F47043002B06D040F68D110A48FEF7CA
S1131C3031FD00230AE0094BD3F8EC3023F4704261
S1131C400649039B1343C1F8EC300123184605B041
S1131C505DF804FBB081E00F582D000000300E4009
S1131C6000B589B00390029111461A460B468DF8CF
S1131C70073013468DF8063000230793002306939C
S1131C809DF806301B029DF80720002A01D001228E
S1131C9000E0002213430593059B40F20132934276
S1131CA05CD0059B40F20132934200F29380059B85
S1131CB0B3F5407F00F08280059BB3F5407F00F2CE
S1131CC08980059B40F2012293423BD0059B40F260
S1131CD0012293427ED8059BB3F5007F62D0059B19
S1131CE0B3F5007F76D8059B40F2011293421DD0D4
S1131CF0059BB3F5817F6DD2059BB3F5807F45D0FD
S1131D00059BB3F5807F65D8059B002B32D0059BDE
S1131D10012B5FD1374BD3F874310793079B1B0A10
S1131D20DBB20693079BDBB2079359E0314BD3F840
S1131D3074310793079B1B0E0693079B1B0CDBB2A6
S1131D4007934DE02B4BD3F878310793079B1B0A7D
S1131D50DBB20693079BDBB2079341E0254BD3F834
S1131D6078310793079B1B0E0693079B1B0CDBB272
S1131D70079335E01F4BD3F86C310793079B1B0A7D
S1131D80DBB20693079BDBB2079329E0194BD3F828
S1131D906C310793079B1B0E0693079B1B0CDBB24E
S1131DA007931DE0134BD3F870310793079B1B0A6D
S1131DB0DBB20693079BDBB2079311E00D4BD3F81C
S1131DC070310793079B1B0E0693079B1B0CDBB21A
S1131DD0079305E040F6F2110748FEF75BFC00BFED
S1131DE0039B079A1A60029B069A1A6000BF09B007
S1131DF05DF804FBB081E00F582D000000B585B0FC
S1131E0001906C4B02229A636A4B9B6B03F00F03A5
S1131E10022B06D040F616216748FEF73BFC002350
S1131E20C3E0FFF7B1FD019B1B89C82B04D94FF414
S1131E3022616148FEF72EFC019B9A88019B1B8955
S1131E409A4204D940F621215B48FEF723FC019B0A
S1131E50B3F90C30C82B04DD40F622215648FEF7B6
S1131E6019FC019B5B78012B09D1019B9B88C82B32
S1131E7012D940F626215048FEF70CFC0CE0019BD9
S1131E805B78022B08D1019B9B880A2B04D940F66E
S1131E902B214948FEF7FEFB019BDB8842F21072BE
S1131EA0934204D940F633214348FEF7F3FB019BE8
S1131EB0DB884A2B02D80023039315E0019BDB88BF
S1131EC0B3F5FA7F03D24FF0805303930CE0019BE8
S1131ED0DB8840F6C312934203D84FF000530393B8
S1131EE002E04FF040530393324BDB6C23F040533A
S1131EF023F00103019AB2F90C20002A01DB01212D
S1131F0000E00021039A0A432A491343CB64294B76
S1131F10D3F8EC30274A43F44073C2F8EC30019B09
S1131F209A88264B1A80FFF733FD019B1B891A46BA
S1131F30019BB3F90C3019461046FFF7DDFD019BF8
S1131F409B88184600F03AFA019B9B7B1846FFF7E2
S1131F50E7FD019B5B8801220121184600F0C0F8CF
S1131F60034683F00103DBB2002B06D040F66A215E
S1131F701148FEF78FFB002317E00E4BDB6B0D4A75
S1131F8043F48063D363019B5B78184600F01AF82E
S1131F90019B9B7A202B01D1012300E000231A46E8
S1131FA005210748FFF77CFB0123184605B05DF8BF
S1131FB004FB00BF00300E40582D0000FA10002032
S1131FC03C300E4000B585B003468DF80730424BD7
S1131FD05B6B012B0CBF012300238DF80F30FFF73F
S1131FE0DBFB00BF3C4B9B6F03F00103002BF9D1DB
S1131FF0394B1B6C03F003030293029B002B04D0A8
S113200001220D213548FFF74BFB029BDBB29DF803
S113201007209A4209D19DF80730002B58D100229D
S11320200D212E48FFF73CFB52E0029B032B02D00C
S1132030029B002B22D19DF80730022B03D09DF880
S11320400730012B1AD14FF40020FFF78DFB00BF9E
S1132050214B9B6F03F00103002BF9D11E4B1B6C2A
S113206023F003031C4A43F00103136400BFFFF78A
S113207085FB034603F40023002BF8D000BF164B66
S11320809B6F03F00103002BF9D1134B1B6C23F05E
S113209003029DF80730104913430B6400BF0E4B35
S11320A09B6F03F00103002BF9D19DF80730002B3F
S11320B014BF01230023DBB21A460D210748FFF7A2
S11320C0EFFA9DF80F30002B03D0FFF75DFB00E023
S11320D000BF05B05DF804FB00300E4054300E40E4
S11320E010B594B001900B468DF8033013468DF86B
S11320F00230002313930023119309AB00221A60CA
S11321005A609A6006AB00221A605A609A6003AB68
S113211000221A605A609A60A44B1B88ADF80830FC
S113212000238DF80A30019BB3F5E16F06D3019BC0
S113213040F6B832934201D8012300E000238DF821
S113214043309DF8433003F001038DF843309DF88C
S1132150433083F00103DBB2002B06D040F67B3121
S11321609348FEF797FA00231DE1019BB3F5E16F55
S11321708CBF012300238DF842309DF84230002BA0
S11321800AD04FF4E163139340F6B8331193119AD4
S1132190139BD31A129309E04FF4966313934FF4ED
S11321A0E1631193119A139BD31A12939DF8423051
S11321B0002B0BD07F4BD3F868310893089B1B0E80
S11321C00593089B1B0CDBB208930AE0794BD3F808
S11321D068310893089B1B0ADBB20593089BDBB2AA
S11321E00893754BDB6C1B0FDBB203F00303DBB20C
S11321F08DF808309DF808309DF8422003A906A800
S1132200FFF72EFD6C4BD3F8EC301B0ADBB203F066
S11322100303DBB28DF809309DF809409DF8422094
S113222003AB191D06AB181D2346FFF719FD019AD0
S1132230139BD31A0599089A8A1A03FB02F2129B7C
S1132240B2FBF3F30B930B9A089B13440B93019A81
S1132250139BD31A0399069A8A1A03FB02F2129B60
S1132260B2FBF3F30993099A069B13440993019A69
S1132270139BD31A0499079A8A1A03FB02F2129B3E
S1132280B2FBF3F30A930A9A079B13440A930B9A3B
S1132290059B9A4213D80B9A089B9A420FD30A9A29
S11322A0049B9A420BD80A9A079B9A4207D3099A2D
S11322B0039B9A4203D8099A069B9A4206D240F697
S11322C0C9313B48FEF7E6F900236CE09DF8023083
S11322D0002B12D0384BDB6D23F4FE4323F00203B2
S11322E00B9A120213439DF84220002A01D00222C5
S11322F000E0002230491343CB659DF80330002BE6
S113230050D09DF808109DF8423000221846FFF77F
S11323102DFC034683F00103DBB2002B06D040F60C
S1132320D8312348FEF7B6F900233CE09DF80910A4
S11323309DF8423001221846FFF718FC034683F04B
S11323400103DBB2002B06D04FF43E611848FEF7C0
S1132350A1F9002327E0099B0F930A9B0E930E9A81
S11323600F9B934238BF13460993099B0D93E723B0
S11323700C930C9A0D9B934228BF134609930E4B62
S11323805B6E23F4FF7323F00103099A5200134395
S11323909DF84220002A01D0012200E000220649D3
S11323A013434B660123184614B010BDA82D00003A
S11323B0582D0000B081E00F00300E4000B585B00C
S11323C0019000230393344B1B6F03F00703029324
S11323D0314BDB6C03F00103002B14D0029B012B67
S11323E011D9019B132B02D8042303933DE0019BD5
S11323F0132B05D9019B272B02D80823039334E020
S11324001023039331E0244BDB6C03F00103002B16
S113241014D1029B012B11D8019B092B02D8042350
S1132420039322E0019B092B05D9019B132B02D8AE
S11324300823039319E01023039316E0164BDB6C77
S113244003F00103002B0BD0029B012B08D8019B46
S1132450272B02D80823039307E01023039304E0F7
S113246040F61E410D48FEF715F9039B013B03930B
S1132470039B1A02039B1B0313430393064BDB6C5E
S113248023F47F420449039B1343CB64FFF7A0FA70
S113249000BF05B05DF804FB00300E40582D00006D
S11324A000B585B003468DF8073000211248FFF7C8
S11324B017F90390039B002B03D19DF80730012BE0
S11324C007D9039B002B04D140F63C410B48FEF78F
S11324D0E1F80B4B1B6F23F007029DF80730084906
S11324E013430B67074B1B881846FFF767FF00BFB2
S11324F005B05DF804FB00BF4C300E40582D0000C1
S113250000300E40FA10002082B003468DF80730E8
S11325109DF90730002B0CDB9DF8073003F01F02F8
S113252005499DF907305B09012000FA02F241F8E0
S1132530232000BF02B0704700E100E082B00346F0
S11325408DF807309DF90730002B0DDB9DF807301F
S113255003F01F0206499DF907305B09012000FAC8
S113256002F2603341F8232000BF02B0704700BF7D
S113257000E100E082B0034600918DF807309DF938
S11325800730002B0ADB009BDAB20C499DF90730B7
S11325905201D2B20B4483F800230BE0009BDAB261
S11325A007499DF8073003F00F03043B5201D2B2F0
S11325B00B441A7600BF02B0704700BF00E100E090
S11325C000ED00E084B001900091019B03F1806371
S11325D00393039B009A1A6000BF04B07047000085
S11325E000B585B00190019B002B03D191213148A6
S11325F0FEF750F8019B1B781B0623F0E063002BC9
S113260003D092212B48FEF745F8019B5B781B020F
S113261023F47F43002B03D096212648FEF73AF893
S1132620019B9B7823F0FF03002B03D098212148C2
S1132630FEF730F8019BDB78072B03D9A3211D4853
S1132640FEF728F801214FF4AA40FEF7B7F9019BE1
S11326501B781B060393019B5B781B02019A9278FB
S113266013431A46039B13430393134A039B1360B8
S1132670114B00221A62104B0022DA620E4B002228
S11326805A630D4B4FF00042DA660B4B4FF0FF32AA
S11326909A660920FFF752FF019BDB78194609204F
S11326A0FFF768FF0920FFF72FFF00BF05B05DF8B3
S11326B004FB00BFFC2D000000200E4000B589B0D3
S11326C0039002910192039BDBB21A4601239340CB
S11326D00693039B072B03DDEC218648FDF7DAFF05
S11326E0029B002B03D1ED218248FDF7D3FF029B0F
S11326F01B6823F47C1323F00F03002B03D0F22177
S11327007C48FDF7C7FF029B1B791B0223F47F4320
S1132710002B03D0FF217748FDF7BCFF029B5B79B8
S11327201B0223F47F43002B04D040F201117148B3
S1132730FDF7B0FF029B9B7923F0FF03002B04D02D
S113274040F203116B48FDF7A5FF029BDB7923F0F0
S1132750FF03002B04D040F205116648FDF79AFFF1
S1132760029B9B7A1B0423F44033002B04D040F2D9
S113277009116048FDF78EFF029BDB7A1B0523F4E9
S11327808013002B04D040F20B115A48FDF782FF4E
S1132790029B1B7B5B0523F40013002B04D040F247
S11327A00D115448FDF776FF029B5B7B23F0FF037A
S11327B0002B04D040F20F114E48FDF76BFF4E4A38
S11327C0069B93664C48029B1968039A13465B0068
S11327D013441B01034480331960029B5B7B46490D
S11327E01846039A13465B0013441B010B448833B9
S11327F01860029B9B7A1A04029BDB7A1B051A431E
S1132800029B1B7B5B0513433B491846039A134603
S11328105B0013441B010B4484331860019B36484E
S113282023F00301039A13465B0013441B01034482
S113283098331960FEF718FF05902F4BDA6E2E4976
S1132840069B1343CB66029B1B7A002B05D02A4BB5
S11328505A6B2949069B13434B63029B5B7A002BFB
S113286005D0254BDA6A2449069B1343CB62224BDD
S11328701B680793029B1B79002B08D0029B1B79D2
S1132880DB431B0263F47F43079A13400793029BC5
S11328905B79002B06D0029B5B791B021A46079BCF
S11328A013430793029B9B79002B07D0029B9B79D0
S11328B0DB4363F0FF03079A13400793029BDB7922
S11328C0002B05D0029BDB791A46079B1343079321
S11328D0094A079B136006990848FFF773FE064AE6
S11328E0069BD3630598FEF7CFFE00BF09B05DF8E1
S11328F004FB00BFFC2D000000200E4028200E40E9
S113290010B584B0064B6C460FCB84E80F006B46C1
S11329101846FFF773FA0023184604B010BD00BF31
S1132920502E000000B583B06B4600221A609A80D6
S113293000238DF8003000238DF8013000238DF83A
S1132940023000238DF8033000238DF80430022375
S11329508DF805306B461846FEF734FF0023184601
S113296003B05DF804FB000030B58DB01F4B06AC1E
S11329701D460FCD0FC42B68238000238DF828300B
S11329804FF0FF330B931A4B5B6803F40023002BC7
S113299004D1174B9B68C3F308030B930B9BB3F150
S11329A0FF3F08D1134B1B884FF6FF72934202D0AE
S11329B0104B1B880B930B9BB3F1FF3F02D14FF4D9
S11329C0B4730B930B9BB3F1FF3F03D00B9B9BB2F0
S11329D0ADF81E300848FDF733FE06AB1846FEF787
S11329E017FB002318460DB030BD00BF602E000059
S11329F0B081E00F0001E00F00F0490200B583B0A0
S1132A000B4B1B68019300238DF807303F238DF88F
S1132A10043007238DF8063001AB1846FEF778FB27
S1132A201420FEF7AFFB0023184603B05DF804FB47
S1132A30742E000082B0034600918DF807309DF992
S1132A400730002B0ADB009BDAB20C499DF90730F2
S1132A505201D2B20B4483F800230BE0009BDAB29C
S1132A6007499DF8073003F00F03043B5201D2B22B
S1132A700B441A7600BF02B0704700BF00E100E0CB
S1132A8000ED00E000B583B0FB238DF807300CE0C7
S1132A909DF9073005211846FFF7CCFF9DF9073053
S1132AA0DBB20133DBB28DF807309DF90730322BEE
S1132AB0EEDD0023184603B05DF804FB08B5FDF70E
S1132AC0E7FCFDF7F6FCFDF7F6FCFDF7F6FCFDF779
S1132AD0F6FC00BF08BD08B5FDF7F3FCFDF7F3FCF9
S1132AE0FDF7F3FCFDF7F3FC00BF08BD08B5074B89
S1132AF0044613B10021AFF30080054B1868836AC4
S1132B0003B19847204600F031F800BF00000000F0
S1132B10782E000070B50D4D0D4C641BA4100026DA
S1132B20A64209D10B4D0C4C00F022F8641BA410F2
S1132B300026A64205D170BD55F8043B98470136DE
S1132B40EEE755F8043B98470136F2E7741000208D
S1132B5074100020741000207810002002440346F2
S1132B60934200D1704703F8011BF9E7FEE700BF69
S1132B70F8B500BFF8BC08BC9E467047F8B500BF66
S1132B80F8BC08BC9E467047070000030001080714
S1132B900F000A00C8002000A0000100633A5C7521
S1132BA0736572735C6669726D776172652D315CF1
S1132BB073696D706C696369747973747564696F32
S1132BC05C73646B735C6765636B6F5F73646B5C8E
S1132BD0706C6174666F726D5C636F6D6D6F6E5C4B
S1132BE0696E635C736C5F636F6D6D6F6E2E6800EE
S1132BF0633A5C75736572735C6669726D77617252
S1132C00652D315C73696D706C6963697479737473
S1132C107564696F5C73646B735C6765636B6F5F2A
S1132C2073646B5C706C6174666F726D5C656D6C03
S1132C3069625C696E635C656D5F6275732E6800C2
S1132C40633A5C75736572735C6669726D77617201
S1132C50652D315C73696D706C6963697479737423
S1132C607564696F5C73646B735C6765636B6F5FDA
S1132C7073646B5C706C6174666F726D5C656D6CB3
S1132C8069625C696E635C656D5F636D752E680077
S1132C90433A2F55736572732F6669726D7761724B
S1132CA0652D312F53696D706C6963697479537440
S1132CB07564696F2F53444B732F6765636B6F5F44
S1132CC073646B2F706C6174666F726D2F656D6CBD
S1132CD069622F7372632F656D5F636D752E630078
S1132CE040787D0100000000005A620200010000EB
S1132CF0C0CF6A0002000000809FD50002010000DE
S1132D00002D310102020000633A5C757365727331
S1132D105C6669726D776172652D315C73696D7083
S1132D206C696369747973747564696F5C73646BDB
S1132D30735C6765636B6F5F73646B5C706C617409
S1132D40666F726D5C656D6C69625C696E635C650F
S1132D506D5F6275732E6800433A2F557365727305
S1132D602F6669726D776172652D312F53696D70AD
S1132D706C696369747953747564696F2F53444B38
S1132D80732F6765636B6F5F73646B2F706C617413
S1132D90666F726D2F656D6C69622F7372632F6538
S1132DA06D5F656D752E630000000000633A5C750D
S1132DB0736572735C6669726D776172652D315CDF
S1132DC073696D706C696369747973747564696F20
S1132DD05C73646B735C6765636B6F5F73646B5C7C
S1132DE0706C6174666F726D5C656D6C69625C6950
S1132DF06E635C656D5F6275732E6800433A2F5590
S1132E00736572732F6669726D776172652D312FE8
S1132E1053696D706C696369747953747564696F0F
S1132E202F53444B732F6765636B6F5F73646B2F12
S1132E30706C6174666F726D2F656D6C69622F734F
S1132E4072632F656D5F6C646D612E63000000001A
S1132E50000108070F000A00C8002000A0000100BC
S1132E6000000000A00068010A200706020A040707
S10F2E7000000000000207001410002005
S10B2E7CD0D2FF7F0100000029
S10F2E84902E0000001000201F00000031
S1132E9000F0490200800000C0EA2101C0EA2101DB
S1132EA0FFFF000000000000000000000000000020
S1132EB0000000000000000000000000000000000E
S1132EC000000000000000000000000000000000FE
S1132ED000000000000000000000000000000000EE
S1132EE000000000000000000000000000000000DE
S1132EF000000000000000000000000000000000CE
S10F2F0000000000310100000D01000081
S90304D523
