:1000000000100020ED030000E9030000E9030000F8
:10001000E9030000E9030000E9030000E903000030
:10002000E9030000E9030000E9030000E903000020
:10003000E9030000E9030000E9030000E903000010
:10004000E9030000E9030000E9030000E903000000
:10005000E9030000E9030000E9030000E9030000F0
:10006000E9030000E9030000E9030000E9030000E0
:100070007503000081030000E9030000E9030000AC
:10008000E9030000E9030000E9030000E9030000C0
:10009000E9030000E9030000E9030000E9030000B0
:1000A000E9030000E9030000E9030000E9030000A0
:1000B000E9030000E9030000E9030000E903000090
:1000C000E9030000E9030000E9030000E903000080
:1000D000E9030000E9030000E9030000E903000070
:1000E000E9030000E9030000E9030000E903000060
:1000F000E9030000E9030000E9030000E903000050
:10010000E9030000E9030000E903000010B5054C15
:10011000237833B9044B13B10448AFF300800123B3
:10012000237010BD8C100020000000001839000062
:1001300008B5034B1BB103490348AFF3008008BD6A
:10014000000000009010002018390000A3F5803A4C
:10015000704700BF174B002B08BF134B9D46FFF79E
:10016000F5FF00218B460F461348144A121A02F07D
:10017000E7F80E4B002B00D098470D4B002B00D01A
:1001800098470020002104000D000D48002802D0EF
:100190000C48AFF3008002F0AFF82000290000F017
:1001A00027F802F095F800BF0000080000000000EA
:1001B00000000000001000208C10002044110020DE
:1001C000000000000000000000F0FAB808B5054B80
:1001D0000549186801F0ABFDBDE80840034802F08E
:1001E000B7B800BF00100020F4340000FB3400005A
:1001F00008B502F055F8FFF7E7FF02F05EF8FFF7E9
:10020000E5FFFAE77047000008B50521112000F06E
:100210000BFE0948012100F02DFA0848032100F0E7
:1002200003FE0748032100F0FFFD0648032100F00C
:10023000FBFD002008BD00BF30253E0002001E006F
:10024000030020000500240008B5204B01225A6459
:100250001F4BD3F8FC201F4B120E12D14AF6E85167
:10026000C3F89011D3F8981141F00401C3F8981124
:10027000C3F89021D3F8642142F40052C3F86421FA
:1002800001E0012AF6D0144A136A23F4441343F41C
:1002900088131362A2F58042136843F480731360DD
:1002A00002F54052D2F8A43143F4F843C2F8A43125
:1002B00001F0DAFC00F092F801F0B2FCFFF7A4FFC5
:1002C00001F0C4FCBDE8084000F07CB800000E401E
:1002D0000081E00F00300E4000400E40704708B52E
:1002E00000F06CF801F074FDBDE8084000F040B883
:1002F000704700F047B8704770477047704700007C
:1003000030B5154C0FCC93B00BAD0FC594E807007A
:10031000002385E80700CDE90833104A0A93104B03
:100320000C34CDE9062301238DF8233094E80F0027
:1003300002AD85E80F000B4B00930B4806AB0BAAF0
:10034000294601F0E1FE044618B10848872100F073
:10035000DDF8204613B030BD343500000000014008
:1003600000420400A81000200811002004350000FD
:10037000FFF7C6BF014B186801F07ABF08110020D3
:10038000FFF7F8BF08B5084B01221A70074B00228F
:100390001A70074B04221A70064B1F221A7001F0C4
:1003A0008DFC054B186008BD0410002024110020AE
:1003B0000510002006100020201100200E2070479C
:1003C0000E20704708B50448012100F053F9BDE83C
:1003D0000840FFF717BF00BF00350A0001480121A0
:1003E00000F048B900350A00FEE7000008B500F04B
:1003F00073F8124B12498B4212D3124B1249002050
:100400008B4218D3FFF7A6FE186850F822405868B0
:1004100040F82240013298688242F5D30C33EAE773
:100420000022F8E71C6844F8220001325C68A2420E
:10043000F8D30833E4E70022F8E700BF20390000D2
:100440002C3900002C3900002C390000004870477E
:1004500000F04902104AD2F8943003F00703023B3F
:10046000032B13D8DFE803F00C14020E0B4B1B68B0
:10047000D2F80001C0F304200130B3FBF0F0704764
:10048000074BF4E7074B1B685B08F1E7054BEEE70A
:100490004FF40043ECE700BF00400E401410002072
:1004A0000C1000201010002008B5FFF7D3FF054BFB
:1004B000D3F80831C3F308230133B0FBF3F0024B48
:1004C000186008BD00400E4008100020014B18685D
:1004D000704700BF0C100020044B054A9A60D3F807
:1004E000882042F47002C3F88820704700ED00E0D5
:1004F000000000004FF4004070474FF47A707047DE
:10050000014B1868704700BF14100020FEE7000080
:1005100005490A681318054883428CBF4FF0FF3223
:100520000B601046704700BF181000200000042028
:100530000C4B984210D90C4B984210D9022201233F
:100540000A490B640A49D1F8003123F0807343EA69
:100550000263C1F80031704700221346F0E7012220
:10056000FBE700BF0048E8010090D0030000C8434B
:1005700000400E4038B5114B5B68114B00221C4601
:10058000C9B21D798D4202D11D68854212D2013255
:10059000052A03F10803F4D10A4841F2CE51FFF7CE
:1005A000B5FF032205494B6823F0407343EA026319
:1005B0004B6038BD04EBC2025279F3E700000E40F5
:1005C00030360000603500001F2810B5044604D9FD
:1005D00003484FF4B371FFF799FF0120A04010BD0D
:1005E000B035000070B5084C41F67136256C2664B4
:1005F000FFF72CFF0021FFF7BDFFADB2B5421CBFD6
:100600000023236470BD00BF00000E40044BDB6B71
:100610005B0604D4034AD2F8C830002BFBD17047E4
:1006200000300E400000C64308B5FFF7EFFF024B55
:100630005868C0F3014008BD00300E40044BD3F8A9
:100640004421D20703D4D3F840211042FBD1704794
:1006500000400E4070B5064C41F67136256C26649C
:10066000FFF788FFADB2B5421CBF0023236470BD05
:1006700000000E4038B5C0F30323013B092B24D8FA
:10068000DFE803F02A2D2323051619231C20154C1F
:100690000023C0F3043513B11846FFF7CFFF04F170
:1006A000424404F5801405EBC404A400216038BD65
:1006B0000D4C0123EDE70D4C1023EAE70C4C4FF4F1
:1006C0008033E6E70B4C0023E3E7BDE838400A48F7
:1006D00041F66A31FFF71ABF084C0023D9E7084CEE
:1006E0000023D6E7B0400E40E0400E40E8400E4008
:1006F000F0400E4050410E406035000000400E407A
:10070000C0400E4008B5C0F30313013B092B60D86D
:10071000DFE803F0050B0F195F5F1F233C532E4BDF
:10072000D3F80001C0F3042008BD2B4BD3F814010B
:10073000F8E7294BD3F80001C0F300600130FFF760
:1007400043FF0138F0E7244BD3F80C01C0F3082035
:10075000EAE7214BD3F80801F8E7204B984209D08B
:100760001F4B98420CD041F60E511E48FFF7CEFEAB
:100770000020D9E7184BD3F8200100F00F00DEE786
:10078000154BD3F82001C0F30110D8E7164B98425F
:1007900008D003F5B01303F58053984206D041F614
:1007A0003251E2E70C4BD3F82801ECE70A4BD3F8BF
:1007B0002801C0F301200430C1E70C4B984205D159
:1007C000054BD3F8300100F00300ADE741F641518D
:1007D000CBE741F66651C8E700400E4080061600A0
:1007E00080162E006035000090171A00A009140032
:1007F00008B5FFF787FF013008BD000000F00F00CB
:10080000013808B5072844D8DFE800F0040F194381
:10081000232D4335264BD3F8943003F00703023BD6
:10082000052B3DD8234AD05C08BD214BD3F880303E
:1008300003F00703013B032B34D81F4AF3E71C4B9B
:10084000D3F8843003F00703013B032B2AD81B4A5B
:10085000E9E7174BD3F8883003F00703013B032B7C
:1008600020D8174ADFE7124B1B6F13F0010F0CBFA4
:1008700007200920D8E70E4BD3F85C3103F0300392
:10088000202B11D0302B11D0102B14BF01200720AA
:10089000CAE70C4842F2BA01FFF738FE0020C3E76E
:1008A0000520C1E70120BFE70420BDE70820BBE722
:1008B00000400E40043600000A3600000E360000EC
:1008C0000A3600006035000038B52C4B98420546CA
:1008D0000AD02B4B984207D02A4B984204D02A4882
:1008E00041F2CD61FFF712FE2846FFF787FF234B49
:1008F0009D42044611D0224B9D4212D0214B9D4275
:1009000013D1224BD3F8804004F00704042C2DD8D7
:10091000DFE804F02A11151D19001C4BD3F88440A0
:10092000F2E71A4BD3F88840EEE7174841F2FC6132
:10093000FFF7ECFDEAE7BDE83840FFF7DBBDBDE8B7
:100940003840FFF7DDBDBDE83840FFF7D6BDFFF703
:1009500081FD0E4B0446D3F80001C0F30060013066
:10096000FFF732FEB4FBF0F4204638BD064841F2F2
:100970004E71FFF7CBFD0024F6E700BF0300200017
:100980000500240002001E006035000000400E40FB
:1009900038B500F47813B3F5B01F05467FD02ED8D4
:1009A000B3F5402F69D011D8B3F5802F54D006D8B5
:1009B00043B1B3F5003F5AD041F69A411AE0B3F57E
:1009C000202FF9D1BDE83840FFF744BDB3F5801FB3
:1009D00000F0A280B3F5A01F57D0B3F5602FEBD184
:1009E0005B48FFF70BFF072800F096800928E9D045
:1009F00041F290415748FFF789FD002036E0B3F5FA
:100A0000381F5AD013D8B3F5001F5FD00AD8B3F5FA
:100A1000D01F5DD0B3F5F01FCED14F48BDE83840B0
:100A2000FFF752BFB3F5101FC6D14C48F6E7B3F538
:100A3000481F57D0B3F5781F00F08280B3F5401FF0
:100A4000BAD14748FFF740FF464B0446D3F8280188
:100A5000C0F3012004302BE0FFF7FCFC414BD3F83E
:100A60000C31C3F308230133B0FBF3F038BDFFF7BB
:100A7000F1FC3C4BD3F80831F3E7FFF7EBFC394BC3
:100A8000D3F81431C3F30423EDE73448FFF71CFF18
:100A9000344BD3F8303103F00303D840E6E72E4857
:100AA000FFF712FF2F4B0446D3F8200100F00F0090
:100AB000FFF78AFDB4FBF0F0D8E72748FFF704FF03
:100AC000284BD3F82031C3F30113E6E72448A5E708
:100AD0002348FFF7F9FE234B0446D3F82801C0F35F
:100AE0000110E5E72048FFF789FE0138072824D8E0
:100AF00001A353F820F000BFFB0900003B0B0000EE
:100B00003B0B00001F0B00003B0B00003B0B0000E9
:100B1000190B0000270B0000144B1868A6E7BDE86E
:100B20003840FFF7D3BCFFF795FC0E4BD3F80031EC
:100B3000C3F3042303FB000098E741F2C74159E7E0
:100B4000FFF788FC04462846FFF752FEB2E700BFD5
:100B500006000E006035000002001E0005002400A3
:100B60000300200000400E40B80032001C1000209E
:100B7000013838B50C46032864D8DFE800F0024499
:100B80001A2FB1F5007F04D3324842F6BA01FFF7BD
:100B9000BDFC314AC4F30804D2F86838002BFBD1FD
:100BA0002E4A136A23F4FF7323F0010323431362D5
:100BB00038BD7F2904D9274842F6C701FFF7A6FCB4
:100BC000254A04F07F01D2F86038002BFBD1234B7B
:100BD0001C6924F07F040C431C61E9E77F2904D9D8
:100BE0001C4842F6E201FFF791FC1B4A04F07F012A
:100BF000D2F86438002BFBD1184B9C6924F07F0499
:100C00000C439C61D4E7154DD5F890305B0704D5B3
:100C1000104842F6F201FFF779FC6B6A23F03003CB
:100C200043F010036B62C4F3C311CB1C2A6B0C4955
:100C30000F2B01EA020128BF0F23214341EA037170
:100C40002963B5E7BDE83840024842F60C11FFF7CA
:100C50005DBC00BF603500000020C84300400E406E
:100C600000F8FF0F022810B50C4604D0144842F6D5
:100C70002411FFF74BFC134B5B6A13F0300F1BD0B2
:100C8000202C16D0302C17D0B4B10D4842F63F11AD
:100C9000FFF73CFC0C4B0B4AD2F8901033EA0101F1
:100CA000FAD15B024ABFD2F8A0000120C0F3802035
:100CB00010BD4FF40003EEE74FF44003EBE700BF35
:100CC0006035000000400E40FF33E107022808B500
:100CD0000CD129B1094B4FF48060C3F8A8005966C4
:100CE0004AB1BDE808400220FFF7BCBF044842F605
:100CF0007511FFF70BFC012008BD00BF00400E403E
:100D00006035000004282DE9F04704460F4691465F
:100D10001FD83D4B3D4A13F800A03D4B13F800800F
:100D2000F1B93C4B33F810301366012303FA08F88D
:100D3000D2F8903013EA080FFAD1B9F1000F5AD067
:100D40000125324A05FA0AF5D2F890302B42FBD140
:100D500051E0BDE8F047304842F60901FFF7D6BB45
:100D60002E4B022833F8106047D1536A13F0300F2E
:100D700043D12B4BDB6B5A0504D4274842F61801AC
:100D8000FFF7C4FB214A536ADB0705D5536A23F0FA
:100D9000300343F010035362224D1C4BA8441E66DF
:100DA0004FEA8808D8F80030002BFBD0B9F1000FCB
:100DB00021D05544AD002B68002BFCD0022C1AD159
:100DC000CFB1124F796A11F0010118D00122202110
:100DD0002046FFF77BFFD7F89C400122002102202C
:100DE000FFF790FFC4F30A010220FFF7C1FE3E6641
:100DF0002B68002BFCD0BDE8F0870027CCE720460D
:100E0000FFF730FFE7E700BF1236000000400E405A
:100E10001736000026360000603500001C36000042
:100E200000300E408004F210112838B50C460FD067
:100E300000F00F000138072800F2EB80DFE810F027
:100E4000240066009A00E9007D00B400E900C200B9
:100E5000042912D1FFF73AFB0546A8B10021284624
:100E600000F00CFA023C0A2C45D8DFE804F04A47AF
:100E70003137444444443D0F4D00052904D1664BAD
:100E80001D68664B9D42E9D80025EBE70320052449
:100E900001221146FFF736FFFFF7A4FB0DB1FFF764
:100EA000B5FB5F4B5C67FFF7FFFA0446FFF7D2FA2A
:100EB000FFF73EFBFFF7B8FB01462046FFF7CAFBF2
:100EC000002D5DD128460121BDE8384000F0D6B99B
:100ED0005448FFF72DFB02200446D9E75148FFF79D
:100EE00027FB01240320D3E742F27B11BDE8384001
:100EF0004D48FFF70BBB4FF40651F7E701200324E1
:100F0000C6E700200424C3E70724C5E7062933D138
:100F10004548464D42F2BF11FFF7F8FA424842F207
:100F2000CF11FFF7F3FAFFF795FAFFF701FB404BFC
:100F30000122C3F80826032321E006293D4DEDD008
:100F4000013C092C2BD801A353F824F0A50F000075
:100F5000830F0000910F00009F0F00009F0F000003
:100F6000270F00009F0F00009F0F00009F0F000041
:100F70007D0F0000304DE3E72C4DE1E704232B60AB
:100F800038BD012211460020FFF7BCFE0223F6E720
:100F9000012211461046FFF7B5FE0123EFE742F2AA
:100FA000FA11A3E70023EAE7072904D0092906D0AC
:100FB00042F284219AE71A4B00221A67E0E7184BA5
:100FC0000122FAE74C1E072C1ED8DFE804F0201D92
:100FD0001D161D1D0F0403221149D1F85C3123F0A9
:100FE000300343EA0213C1F85C31C9E7012211461C
:100FF0000420FFF787FE0122EEE7012211460220BE
:10100000FFF780FE0222E7E742F2E2216EE70022CC
:10101000E2E742F2B93169E710100020002D3101FA
:1010200000400E400148E8016035000080400E405D
:101030000010C84388400E4084400E40EFF31080FB
:1010400072B6704700B962B67047EFF31180602343
:1010500083F31188704780F311887047034BD86B76
:1010600080F04000C0F38010704700BF00300E4099
:1010700038B542EA0323B3F5007F05460C463ED05F
:1010800019D8B3F5807F36D00AD883B3012B21D08D
:101090001F4840F6F211FFF739FA002213461FE00D
:1010A00040F201129342F3D11A4BD3F824321A0EB4
:1010B000C3F3074314E0B3F5407F24D040F201327C
:1010C000934210D040F201229342E1D1114BD3F868
:1010D000283202E00F4BD3F82432C3F30722DBB2ED
:1010E0002B60226038BD0B4BD3F82832DFE7094B69
:1010F000D3F81C32F1E7074BD3F81C32D7E7054B86
:10110000D3F82032E9E7034BD3F82032CFE700BF12
:10111000583600000081E00F08B5FFF79FFF20B1AF
:10112000024AD2F8C830002BFBD108BD0000C643EC
:101130001A4B022810B5D3F830320C4612D00328CF
:1011400013D0012814BFDBB2C3F307231B0323F41E
:101150007042ECB95AB140F681111148FFF7D6F947
:10116000002010BDC3F30743F0E71B0EEEE70D4967
:10117000CA6E22F470421343CB660120F1E709499D
:10118000D1F8EC2022F470421343C1F8EC30F4E7BC
:10119000002AF4D040F68D11DFE700BF0081E00F98
:1011A0005836000000300E400378134A002B437875
:1011B00070B514BF04260026002B8378946914BFF1
:1011C00002250025002B037924F03F0443EA0403A1
:1011D000C47814BF08210021012C08BF43F001038B
:1011E00033432B430B4393611368417923F440331A
:1011F00043EA0143136070BD00300E40F8B5044669
:101200000F46FFF72BFF78B3FFF786FF174B5B689E
:10121000C3F301439C4227D0154BD3F80061FFF77D
:1012200019F9022C05460FD1124BC6F3042606FB12
:1012300000069E4204D910484FF4E361FFF766F9B7
:1012400002212846FFF706FAC4F102021023934058
:10125000064A13610FB1FFF75FFF2CB921462846FC
:10126000BDE8F840FFF7F6B9F8BD00BF00300E400A
:1012700000400E40002D31015836000013B50246E3
:10128000FFF7ECFEC8B152B90D4B0191D3F8004104
:10129000FFF7E0F8C4F30422019902FB0002094BB6
:1012A0001B7843B1084B9A4205D8022002B0BDE832
:1012B0001040FFF7A3BF0020F8E702B010BD00BF49
:1012C00000400E402C110020002D3101224B4AF627
:1012D000E85210B5596B5A639A6FD207FCD41B6C55
:1012E00013F003031EBF1D4A0124C2F8B44A83420F
:1012F00004D110B9194BC3F8B40A10BD032B00D0A8
:101300009BB9431E012B10D8134A4FF40023D3621C
:10131000936FDB07FCD4136C23F0030343F001034A
:1013200013640D4A536A1C03FCD50B4B9A6FD2070A
:10133000FCD41A6C22F0030202431A649A6F12F072
:101340000102FBD10038054C18BF01200129C4F867
:10135000B40A08BF5A63D0E700300E400000C6430D
:101360002DE9F04FA0F5E16389B00024B3F5966F45
:10137000CDE90244CDE90444CDE9064406468A4657
:10138000934605D940F67B315548FFF7BFF8A3E0F7
:10139000B0F5E16F534B8CBF0122002249D1D3F845
:1013A0001832C3F30721DBB2079104934FF416758B
:1013B0004FF4966748E0BBF1000F0ED0D9F85C20DF
:1013C00022F4FE4222F00202B6F5E16F42EA012267
:1013D00018BF02200243C9F85C20BAF1000F26D0E2
:1013E00020460021FFF7A4FE044610B940F6D8318C
:1013F000CAE701214046FFF79BFE044610B94FF4AF
:101400003E61C1E7384A536EBD4238BF3D4623F4C2
:10141000FF73E72D23F0010328BFE725B6F5E16F41
:1014200018BF43F0010343EA4503536654E0012427
:1014300052E0D3F81832190EC3F30743079104930F
:101440004FF496654FF4E167DFF89C90D9F84C4073
:101450000192C4F30174234605A902A8FFF708FE10
:10146000D9F8EC30019AC3F30128434606A903A832
:10147000FFF7FEFD049BF01B079FF91A4143B1FBE8
:10148000F5F299182CBF012300238F421ED3EBB92C
:10149000069A039FD31B4343B3FBF5F3FF182CBFFE
:1014A00001230023BA4211D383B9059B029AA3EB0F
:1014B000020C00FB0CF0B0FBF5F555192CBF012018
:1014C0000020AB4202D300283FF475AF044840F639
:1014D000C931FFF71BF80024204609B0BDE8F08FA2
:1014E000583600000081E00F00300E40334A08B546
:1014F000136FD16C11F0010F03F0060344D0002BE1
:1015000042D0132857D9143813288CBF102308232E
:101510002A49013BCA6C180322F47F4240EA0323A4
:101520001343CB64264BCA6C1B88C2F303222833B7
:10153000013202EB820003EB5303B3FBF0F3C86C00
:10154000013B072B28BF072320F0EE6040EA03632E
:1015500043F48013CB641B4BB3F90030002B12DB38
:1015600003F12800C0F34E030344500800EB42028D
:10157000B3FBF2F20B6D072A28BF072223F070039A
:1015800043EA02120A6508BDD16C01F0010119435A
:1015900004D109280FD90A380928B6E7D26CD20736
:1015A00002D50BB92728B0E7074840F61E41FEF7E1
:1015B000ADFF0023ACE70423AAE700BF00300E40D4
:1015C000281100202A110020583600000C4BD3F8B7
:1015D000803910B5044633B9012804D9094840F6CA
:1015E0003C41FEF793FF084A136F23F007032343A0
:1015F0001367064BBDE810401888FFF777BF00BFA0
:101600000000C6435836000000300E40261100206E
:1016100038B55A4B02229A639B6B03F00F03934237
:10162000044607D0564840F61621FEF76FFF002506
:10163000284638BD0389C82B04D951484FF422618C
:10164000FEF764FFA28823899A4204D94C4840F6E9
:101650002121FEF75BFFB4F90C30C82B04DD4848AC
:1016600040F62221FEF752FF6378012B55D1A38863
:10167000C82B04D940F626214148FEF747FFE288EF
:1016800042F210739A4204D93D4840F63321FEF7E6
:101690003DFFE3884A2B48D9B3F5FA7F47D340F69C
:1016A000C312934294BF4FF000524FF0405233495F
:1016B000B4F90C00CB6C23F0405323F00103002855
:1016C000A8BF43F001031343CB64D1F8EC30A288E8
:1016D00043F44073C1F8EC302A4B1A80CB6E43F0D0
:1016E0008073CB66284BD3F8800900B10420FFF744
:1016F0006DFF264B21891980254BB4F90C20A08859
:101700001A80FFF7F3FEA37BA3B1012B22D01C4864
:1017100040F63211FEF7FAFE0FE0022BAFD1A3889C
:101720000A2BACD940F62B21A6E70022BFE74FF0E9
:101730008052BCE7114B174A9A6501226088114616
:10174000FFF70EFE054640B90D4840F66A21FEF748
:10175000DDFE6DE7094B104AEEE7084AD36B43F410
:101760008063D3636078FFF7B1FDA37AA3F1200211
:1017700053425341044AC2F8943759E700300E40AF
:1017800058360000261100200000C6432811002012
:101790002A11002077402057372110B738B50D4661
:1017A000044640B3012829D002282AD003282BD090
:1017B00004280ED005282AD0831F012B09D9082818
:1017C00028D0092828D00A2803D10723EB40DB07BB
:1017D00004D4134840F22D41FEF798FE30200C232C
:1017E00010FB043404F18C44012104F5204401FA77
:1017F00005F5256038BD40F2FF33E7E74FF6C073CB
:10180000E4E740F6FF73E1E74FF47F43DEE74FF68E
:10181000FF73DBE70F23D9E74FF44043D6E700BF60
:10182000A836000038B50D46044640B3012829D03B
:1018300002282AD003282BD004280ED005282AD02D
:10184000831F012B09D9082828D0092828D00A2865
:1018500003D10723EB40DB0704D4134840F2FE31E9
:10186000FEF754FE30200C2310FB043404F18844AE
:10187000012104F5204401FA05F5256038BD40F248
:10188000FF33E7E74FF6C073E4E740F6FF73E1E7A5
:101890004FF47F43DEE74FF6FF73DBE70F23D9E713
:1018A0004FF44043D6E700BFA836000070B50546A8
:1018B0000E461446FFF7C2FB296881EA040202EAD9
:1018C00006044C402C60BDE87040FFF7BBBB000035
:1018D000F8B50D4616461F460446C8B301283AD04F
:1018E00002283BD003283CD004280ED005283BD04A
:1018F000831F012B09D9082839D0092839D00A2893
:1019000003D10721E940CB0704D423484FF4B07139
:10191000FEF7FCFD26B1294620466FB3FFF73EFFD8
:1019200004EB4403072D4FEA03134FF00F0126D8B1
:10193000A80006FA00F2814018481844FFF7B6FFE5
:101940004EBB2946204617B3BDE8F840FFF726BF37
:1019500040F2FF31D6E74FF6C071D3E740F6FF7192
:10196000D0E74FF47F41CDE74FF6FF71CAE70F2173
:10197000C8E74FF44041C5E7FFF754FFD0E7A5F1B2
:101980000800800006FA00F281400548D5E7BDE86E
:10199000F840FFF747BFF8BDF936000004A000404B
:1019A00008A000402DE9F04180460E461F4615462E
:1019B00022B931484FF4A171FEF7A8FD1EB92F4896
:1019C000FEF7E6FF0646402F2AD009D8A7B1202F00
:1019D0001CD0BDE8F041284840F28911FEF796BDC1
:1019E000602FF6D1B5EB960F04D9234840F283114E
:1019F000FEF78CFD04241DE0B5EB161F04D91E482C
:101A00004FF4BA71FEF782FD102413E0B5EBD60F48
:101A100004D9194840F27911FEF778FD082409E04D
:101A20000624B6FBF4F3AB4204D213484FF4BF7163
:101A3000FEF76CFD6C43610801EB4616B6FBF4F44F
:101A40000F4E203CB6EBC40F4FEAC40504D20A483F
:101A50004FF4D071FEF75AFDD8F8003023F0600340
:101A6000C8F80030D8F8003035401F43C8F800707F
:101A7000C8F81450BDE8F0814A3700004041050025
:101A8000F8FF7F0038B50E4B984204460D4610D043
:101A900003F5806398420CD003F58063984208D028
:101AA00003F58063984204D006484FF43371FEF783
:101AB0002DFDEB435B0003F00A03E360E56038BDF6
:101AC000000001404A37000038B51E4B1E4D9842B9
:101AD00004460ED0A8420CD003F50063984208D00B
:101AE00003F58063984204D0184840F24241FEF763
:101AF0000DFD40F6AA63E36041F205020023236076
:101B00006260134AA3606361E364A264236663674F
:101B1000A367E3670B4B9C4209D0AC4207D003F5A7
:101B200000639C4203D003F580639C4201D10023F3
:101B300023650023AC42A36502D0064A944200D13B
:101B4000E36538BD00000140000401404A37000051
:101B5000F9FF0100000C014038B5294B98420446BA
:101B60000D4610D003F5806398420CD003F58063D6
:101B7000984208D003F58063984204D0214840F28F
:101B8000FD21FEF7C3FC2046FFF79EFFAB7C1BB197
:101B9000236843F080432360EB7C1BB12B7D43F033
:101BA0008003A3652A8A6B7B1343EA89134363602E
:101BB0002B7BD5E901122046FFF7F4FE6B7D1BB1AC
:101BC000236843F480332360AB7D1BB1236843F467
:101BD00000432360EB7D2A7E1B07120502F4E0021E
:101BE00003F0E04313432366636F23F0300363671E
:101BF000626F6B7E134363672B78E36038BD00BF71
:101C0000000001404A37000003691B06FCD5C0698B
:101C1000C0B2704703695B06FCD5416370470000A2
:101C20007FB5094B6A4603F11006154618685968D6
:101C3000144603C40833B3422246F7D12846FFF7BF
:101C4000E7FC002004B070BD9C37000013B50223F0
:101C50000024684600948DF804408DF80530FFF7A5
:101C6000A3FA204602B010BD10B50C480C4C6FF022
:101C70000402A02112F0800FD3B21BBF03F00F03A8
:101C8000043BA3181B1802F101020CBF83F80013D8
:101C90001976332AEED1002010BD00BF00ED00E020
:101CA00000E100E010B50446FFF7C8F9024B1C60E4
:101CB000FFF7C8F9002010BD3011002010B5FFF764
:101CC000BDF9034B1C68FFF7BDF9204610BD00BFEE
:101CD0003011002007B530B9CDE90012FFF7EEFF53
:101CE000DDE9001230B1436823B1006803B05DF84C
:101CF00004EB1847232003B05DF804FB30B51C4605
:101D000085B058B9CDE90012FFF7D8FFDDE9001220
:101D100004B903AC20B9232005B030BD03B903AC2E
:101D20008568002DF7D023460068A847F4E70EB475
:101D300077B507AB054653F8046B0193B0B9FFF7CD
:101D4000BDFF044605463046019900F0DFFBAC427A
:101D5000064602D02046FFF7A5FF002ED4BF37204D
:101D6000002003B0BDE8704003B07047FFF7A6FF46
:101D700085420446E7D02846FFF794FFE3E70020BA
:101D80007047FEE74FF400534B600020704701207E
:101D900070470020704707B5002001AB0190FFF7A6
:101DA000ADFF0198002808BF4FF0FF3003B05DF889
:101DB00004FB000010B500201446FFF78BFF18B19C
:101DC0000248BF21FEF7A2FB204610BDAC37000041
:101DD000034B1868002380680222194600F0D0BA2D
:101DE0002010002080F82410704790F824007047DD
:101DF00070B504460568FFF761FF844202D10020F8
:101E0000FFF750FF95F92830002B11DB03F01F017D
:101E10005B099B0003F1604303F5614301228A40A3
:101E2000C3F88021C3F88020BFF34F8FBFF36F8FBB
:101E30000023C4E90033C4E90433A3602846EB68F7
:101E4000BDE87040184790F8243070B505460C4640
:101E50008E18E3B9A6420AD095F82630002BF9D0A7
:101E60002B6814F8011B284698470028F2D070BD53
:101E700095F826305BB123780A2B03D12B680D210E
:101E8000284698472B6814F8011B28469847B44207
:101E9000EED1ECE72DE9F7434FF0000904469046F8
:101EA0001E46C3F800904F1E3368434505D2FFF726
:101EB000CCF8A269C2B9FFF7CEF894F827305BB925
:101EC000112301220DF1070120468DF80730FFF79D
:101ED000BAFF012384F827303368002B0CBF1B2086
:101EE000002003B0BDE8F083E16922698A5C07F84D
:101EF000012F2569226A01359542A26908BF4D4626
:101F0000013AA2612561FFF7A6F8A3682046984729
:101F1000336801333360C7E708B5FFF794FF00204B
:101F200008BD0000F8B51F46536805460C46164626
:101F3000002B3ED09368002B3DD02C220021204660
:101F400000F0FEF97368E361B3682362337B84F8C1
:101F50002430B37B84F8253040F20113E384069BE0
:101F60006360079BA360089B2760E36096F90030DD
:101F7000124A84F828306A60114AAA60114A2A611C
:101F8000114A6A61002B114A2C60EA600CDB03F0F5
:101F90001F015B099B0003F1604303F561430122CC
:101FA0008A40C3F880211A602846FFF77BFE002094
:101FB000F8BD2220FCE72120FAE700BF191F00002E
:101FC000951E0000E51D0000EB1D0000F11D000046
:101FD00010B50446FFF739F8A269236A9A4203D282
:101FE000FFF739F8012010BDFFF735F80020FAE7B8
:101FF00073B504460D46AFF30080FFF726F894F85A
:10200000253006466BB1132D07D1002384F8263006
:1020100002B0BDE87040FFF71EB8112D01D10123B9
:10202000F4E7A269236A9A4204D3144840F2691182
:10203000FEF76CFA6369E269D554A26963690132FB
:10204000A261226A01339342636104BF002363618A
:102050003046FFF700F8A269236A9A420BD1132396
:1020600001220DF1070120468DF80730FFF7EBFE46
:10207000002384F8273002B070BD00BF1B38000079
:10208000C26AD36C43F00403D3647047C26A10B5CC
:10209000044613695906FCD500231A4694F83510F6
:1020A00094F83400FFF714FC00231A4694F8371014
:1020B00094F83600FFF70CFC94F83C30DA0707D5AB
:1020C000002394F8391094F838001A46FFF700FC02
:1020D00094F83C309B0707D5002394F83B1094F804
:1020E0003A001A46FFF7F4FBE06A0021FFF7CAFC4A
:1020F000206B0021FEF7BEFA002010BD08B5C06AB3
:10210000FFF788FD002008BD2DE9F04186B01C4690
:10211000524B0C9D0293524B0193012600230093D6
:10212000CDE903664F4B90460A462946FFF7FAFE73
:102130000746002856D12368EB6263682B63637AF5
:1021400085F83530237A85F83430E37A85F83730EE
:10215000A37A85F83630637B85F83930237B85F8A0
:102160003830E37B85F83B30A37B85F83A303E4836
:102170003146FEF77FFA3D483146FEF77BFA617A39
:10218000207A33460422FFF7A3FB33460222E17A8A
:10219000A07AFFF79DFB60683146FEF76BFA88F87E
:1021A000007041462068FFF7D7FC2268536F43F068
:1021B00003035367936F617C23F4F85323F01F03E9
:1021C0000B43217C43EA012303219367516785F880
:1021D0003C7098F81930202B2BD007D803B3102B64
:1021E00009D02327384606B0BDE8F081302BF8D15E
:1021F00085F83C1002E085F83C603E460023022250
:10220000617B207BFFF764FB2368A27CDA675A6E50
:1022100042F004025A665A6F42F010025A675EB9E1
:102220002068C36C43F00403C3640521FFF72AFC54
:10223000D8E7022385F83C30E17BA07B0023042211
:10224000FFF746FB2368E17CDA6F42EA0122DA6796
:102250005A6F42F020025A67E2E700BF8D2000006B
:1022600081200000FD2000004041050000350A00EB
:10227000C36A1B691B0610B5044610D5FFF7A8FEFC
:1022800040B1E06AFFF7C0FC01462046BDE81040BF
:10229000FFF7AEBEE26AD36C23F00403D36410BD33
:1022A00008B5FDF7D1FFFEF719F8FEF718F8FEF7AD
:1022B0001FF8BDE80840FEF71CB808B5FEF71BF88C
:1022C000FEF71AF8FEF719F8BDE80840FEF716B851
:1022D00008B5074B044613B10021AFF30080054B4E
:1022E0001868836A03B198472046FFF74AFD00BF8C
:1022F000000000008038000070B50D4D0D4C641BCF
:10230000A4100026A64209D10B4D0C4C01F0E6F8B2
:10231000641BA4100026A64205D170BD55F8043BED
:1023200098470136EEE755F8043B98470136F2E747
:1023300084100020841000208410002088100020C9
:1023400002440346934200D1704703F8011BF9E7AA
:102350000FB40A4B13B51C6824B1A36913B9204606
:1023600000F006FA05AB049AA1680193204600F03C
:1023700017FC02B0BDE8104004B0704720100020E8
:102380002DE9F7431D465D4B1F6804460E469046F7
:1023900027B1BB6913B9384600F0EAF9584B9C42A3
:1023A00067D17C68B8F1020F06D0B8F1010F00F2D6
:1023B0009F80002DC0F29C80636EDB0705D4A3894B
:1023C000980502D4A06D00F071FA2146384600F05D
:1023D0003BF9616B41B104F14403994202D03846A4
:1023E00000F0D4FA002363630023A3616360A38930
:1023F000190603D52169384600F0C8FAA38923F4E9
:102400004A6323F00303B8F1020FA3816CD001AB40
:102410006A462146384600F04BFAA3891843A0814A
:10242000002D30D1009D284600F0A8FA064600286D
:1024300055D1DDF80090A9454AD14FF0FF35002273
:10244000A26004F14702226022610122B4F90C303B
:102450006261626E43F00203D207A38105D413F4D4
:10246000007F02D1A06D00F022FA284603B0BDE83B
:10247000F083244B9C4201D1BC6893E7224B9C42E1
:1024800008BFFC688EE7002ECDD0BB6913B9384673
:1024900000F06EF9B8F1010F08BFA389266004BFF0
:1024A00043F00103A381A28912F00803C4E9046583
:1024B0001CD0D30741BF00236D42A360A56158BF64
:1024C000A560656E15F0010515D112F4007FC8E70F
:1024D000484600F053FA06460028AED04D46A38980
:1024E00043F08003A381D0E70025A8E7A360E8E7D5
:1024F0004FF0FF35B9E70025B7E700BF20100020F7
:10250000A4380000C43800008438000013B50B461E
:1025100009490C68024644B1A16931B9CDE900030B
:10252000204600F025F9DDE90023A168204602B02D
:10253000BDE8104000F034BB201000208A892DE94E
:10254000F041054610070C4658D44B68002B05DCBB
:102550000B6C002B02DC0020BDE8F081E66A002E47
:10256000F9D0002312F480522F682B6032D0606DB6
:10257000A3895A0705D56368C01A636B0BB1236C36
:10258000C01A00230246E66A216A2846B047431C67
:10259000A38906D129681D292CD82A4ACA40D60702
:1025A00028D500226260D9042269226004D5421C29
:1025B00001D12B6803B96065616B2F600029CAD017
:1025C00004F14403994202D0284600F0DFF90020CC
:1025D0006063C1E7216A01232846B047411CC7D187
:1025E0002B68002BC4D01D2B01D0162B01D12F60DE
:1025F000B1E7A38943F04003A381ADE70F69002F42
:10260000A9D093070E6808BF4B690F6018BF00235D
:10261000A6EB07088B60B8F1000F9CDD216AA66A63
:1026200043463A462846B047002806DCA38943F0D3
:102630004003A3814FF0FF308EE70744A8EB00086A
:10264000E9E700BF0100402038B50B6905460C469C
:1026500013B90025284638BD18B183690BB900F0BD
:1026600087F8144B9C421BD16C68B4F90C30002BDA
:10267000EFD0626ED00704D4990502D4A06D00F0AB
:1026800015F928462146FFF759FF636EDA0705461C
:10269000E0D4A3899B05DDD4A06D00F008F9D9E74B
:1026A000054B9C4201D1AC68DFE7044B9C4208BF5C
:1026B000EC68DAE7A4380000C43800008438000071
:1026C000002310B50446C0E90033C0E90433836039
:1026D00081814366C2818361194608225C30FFF71D
:1026E0002FFE054B6362054BA362054BE362054B6E
:1026F0002462236310BD00BF493100006B3100002C
:10270000A3310000C7310000014900F0AFB800BF9D
:102710004926000070B568224D1E55430E4605F14E
:10272000740100F09FF9044640B10021C0E9001691
:102730000C30A06005F16802FFF702FE204670BD74
:10274000014800F0B3B800BF35110020014800F087
:10275000AEB800BF35110020014800F0A7B800BF97
:1027600036110020014800F0A2B800BF3611002049
:1027700010B50446FFF7F0FFA3691BB1BDE8104098
:10278000FFF7F0BFC4E912332365134B134A1B68EC
:10279000A262A34204BF0123A361204600F020F8F7
:1027A0006060204600F01CF8A060204600F018F899
:1027B0000022E06004216068FFF782FFA068012228
:1027C0000921FFF77DFFE06802221221FFF778FF61
:1027D0000123A361D2E700BF803800000927000071
:1027E000F8B50746FFF7ACFF1E4B1E68B36913B977
:1027F0003046FFF7BDFF4836D6E90134013B03D52B
:1028000033680BB33668F7E7B4F90C50D5B9164BFB
:10281000E36004F15800656600F047F8FFF796FFA3
:10282000C4E90155C4E904552560A561082229467B
:1028300004F15C00FFF784FDC4E90D55C4E91255AD
:102840002046F8BD6834D9E704213846FFF762FF17
:10285000044630600028D5D1FFF778FF0C233B6099
:10286000EEE700BF803800000100FFFF2DE9F843CC
:102870000646884600F148040027D4E90195B9F1DD
:10288000010905D52468002CF7D13846BDE8F88346
:10289000AB89012B07D9B5F90E30013303D0294696
:1028A0003046C04707436835E9E7704770477047CF
:1028B00070B50E46B1F90E10002996B014461D46AB
:1028C00008DAB6F90C3000222A601A0610D44FF448
:1028D00080630EE06A4600F05DFD0028F1DB019A9E
:1028E00002F47042A2F500535A425A412A60EEE7C0
:1028F00040230020236016B070BD00008B8973B5A3
:102900009D0706460C4607D504F147032360236163
:102910000123636102B070BD01AB6A46FFF7C8FFD7
:1029200000990546304600F09DF848B9B4F90C30DE
:102930009A05EFD423F0030343F00203A381E3E7F6
:102940000D4BB362A389206043F08003A381009BF9
:102950006361019B20615BB1B4F90E10304600F059
:102960002BFD28B1A38923F0030343F00103A381C6
:10297000A0890543A581CDE709270000024B014648
:10298000186800F06FB800BF2010002037B500298C
:1029900044D051F8043C0190002BA1F10404B8BFCD
:1029A000E41800F07DFD1E4A0198136833B9636096
:1029B000146003B0BDE8304000F078BDA34208D9F0
:1029C000256861198B4201BF19685B68491921604C
:1029D000EDE71A465B680BB1A342FAD911685518A6
:1029E000A5420BD1246821445418A3421160E0D1C0
:1029F0001C685B68536021441160DAE702D90C233C
:102A00000360D6E7256861198B4204BF19685B68CB
:102A1000636004BF491921605460CAE703B030BD48
:102A20003811002070B50E4E0C463168054611B9BC
:102A300000F07AFB30602146284600F075FB431C0D
:102A40000AD0C41C24F00304A04207D0211A28464F
:102A500000F06AFB013001D14FF0FF34204670BD19
:102A60003C1100202DE9F041CD1C25F0030508356F
:102A70000C2D38BF0C25002D074601DBA94205D9D6
:102A80000C233B6000263046BDE8F0812E4E00F05E
:102A900007FD33681C4634BB29463846FFF7C2FFA2
:102AA000431C04464DD134682646002E40D123688D
:102AB0003146384604EB030800F036FB80453AD136
:102AC000216803356D1A25F0030508350C2D38BF34
:102AD0000C2529463846FFF7A5FF01302BD0236887
:102AE0002B4423600EE02268521B1ED40B2A16D9F9
:102AF0006119A342256018BF5960636808BF31603F
:102B000062514B60384604F10B0600F0CFFC26F012
:102B10000706231DF21AB6D09B1BA350B3E76268C9
:102B2000A3420CBF32605A60ECE723466468B2E708
:102B300034467668B9E70C233B60384600F0B6FCB3
:102B4000A1E72560DEE700BF381100209368013B54
:102B5000002B10B4936008DA9469A34201DB0A29C0
:102B600003D15DF8044B00F033BB1368581C1060B0
:102B7000197008465DF8044B7047F8B506460F46D5
:102B80001446D518AC4201D1002007E014F8011B0F
:102B90003A463046FFF7DAFF431CF3D1F8BD000098
:102BA0002DE9F04F0D469DB014469846064618B1E3
:102BB00083690BB9FFF7DCFD894B9D421BD175681A
:102BC0006B6ED90705D4AB899A0502D4A86DFFF7BF
:102BD0006DFEAB891B0701D52B69EBB92946304641
:102BE00000F05AFBC0B16B6EDC070ED54FF0FF3022
:102BF0001DB0BDE8F08F7B4B9D4201D1B568DFE78A
:102C0000794B9D4208BFF568DAE7AB899805EDD4AA
:102C1000A86DFFF74CFEE9E70023099320238DF808
:102C20002930CDF80C803023DFF8C0818DF82A30B0
:102C30004FF0010923469A4613F8012B0AB1252AC1
:102C4000F9D1BAEB040B0BD05B462246294630463D
:102C5000FFF793FF013000F0AA80099A5A440992C5
:102C60009AF80030002B00F0A28000234FF0FF32D2
:102C7000CDE905230AF1010A049307938DF8533037
:102C80001A935446052214F8011B584800F0B8FB6B
:102C9000049AD8B9D10644BF20238DF853301307C6
:102CA00044BF2B238DF853309AF800302A2B15D0CF
:102CB000079A544600204FF00A0C214611F8013BB8
:102CC000303B092B4ED9B0B1079214E0A0EB0803BA
:102CD00009FA03F313430493A246D2E7039B191D99
:102CE0001B680391002BBBBF5B4242F002020793BB
:102CF0000793B8BF049223782E2B0CD163782A2B2C
:102D000035D1039B1A1D1B680392002BB8BF4FF0EF
:102D1000FF3302340593DFF8E4A021780322504604
:102D200000F06EFB40B14023A0EB0A0003FA00F074
:102D3000049B03430134049314F8011B2C488DF8C1
:102D40002810062200F05CFB00283FD0294B1BBB5B
:102D5000039B073323F0070308330393099B3B448A
:102D6000099367E70CFB02320C460120A5E700231C
:102D70000134059319464FF00A0C204610F8012B38
:102D8000303A092A03D9002BC5D00591C3E70CFBC3
:102D9000012104460123F0E703AB00932A46164BBA
:102DA00004A93046AFF300800746781CD6D16B6E7D
:102DB000D90705D4AB899A0502D4A86DFFF777FD32
:102DC000AB895B063FF512AF099811E703AB00939F
:102DD0002A46094B04A9304600F080F8E4E700BF1A
:102DE000A4380000C438000084380000E438000033
:102DF000EE380000000000007B2B0000EA380000E5
:102E00002DE9F047164699468A680B69DDF820805F
:102E10009342B8BF1346336091F8432007460C46EF
:102E20000AB1013333602368990642BF3368023325
:102E30003360256815F0060506D104F1190AE36828
:102E400032689B1AAB4226DC94F84320131E22689A
:102E500018BF012392062BD404F143024946384699
:102E6000C04701301ED02368E568326803F00603CE
:102E7000042B08BFAD1AA36822690CBF25EAE575CB
:102E800000259342C4BF9B1AED1800261A34B542A0
:102E90001AD1002008E00123524649463846C0476F
:102EA000013003D14FF0FF30BDE8F0870135C6E7B0
:102EB000E1185A1C302081F84300224494F8451050
:102EC00082F843100233C7E70123224649463846B9
:102ED000C0470130E6D00136D9E700002DE9FF47B1
:102EE0000F7E0C9D782F914680460C469A4601F144
:102EF000430207D8622F0AD8002F00F0D880582F3D
:102F000000F0A38004F1420584F842703AE0A7F192
:102F10006303152BF6D801A151F823F0752F00009B
:102F2000892F0000052F0000052F0000052F00004D
:102F3000052F0000892F0000052F0000052F00003D
:102F4000052F0000052F000095300000B92F00006C
:102F500077300000052F0000052F0000B73000007B
:102F6000052F0000B92F0000052F0000052F0000DD
:102F70007F3000002B681A1D1B682A6004F142058F
:102F800084F842300123A3E020682968060601F195
:102F900004030AD50E682B60002E03DA2D23764237
:102FA00084F843305E480A2319E00E682B6010F065
:102FB000400F18BF36B2EFE72B682068191D296053
:102FC000010601D51E6802E04606FBD51E8854485E
:102FD0006F2F0CBF08230A23002184F84310656873
:102FE000A560002DA2BF216821F0040121600EB967
:102FF000002D4DD01546B6FBF3F103FB1167C75DFD
:1030000005F8017D3746BB420E46F4D9082B0BD19B
:103010002368DE0708D5236961689942DEBF302343
:1030200005F8013C05F1FF35521B2261CDF800A0E7
:103030004B4603AA21464046FFF7E2FE01304CD141
:103040004FF0FF3004B0BDE8F087354881F8457097
:103050002968236851F8046B29601D0614D5DF0721
:1030600044BF43F0200323601EB9236823F02003EC
:1030700023601023B0E7236843F020032360782304
:10308000284884F84530E3E7590648BFB6B2E6E77A
:103090001546BBE72B6826686169181D2860350650
:1030A0001B6801D5196002E07006FBD5198000236A
:1030B00023611546BAE72B681A1D2A601D686268ED
:1030C0000021284600F09CF908B1401B606063684D
:1030D0002361002384F84330A8E723692A46494640
:1030E0004046D0470130ABD023689B0713D4E0683B
:1030F000039B9842B8BF1846A4E7012332464946CD
:103100004046D04701309BD00135E36803995B1AF4
:10311000AB42F2DCEBE7002504F11906F5E700BF4E
:10312000F53800000639000038B5064D0023044686
:1031300008462B60FDF7ECF9431C02D12B6803B164
:10314000236038BD4011002010B50C46B1F90E10B7
:1031500000F0B2F90028ABBF636DA3891B1823F4FC
:103160008053ACBF6365A38110BD2DE9F0411F46BC
:103170008B89DB0505460C46164605D5B1F90E10C0
:103180000223002200F028F9A389B4F90E1023F4D9
:103190008053A38132463B462846BDE8F04100F00B
:1031A00069B810B50C46B1F90E1000F015F9431CC2
:1031B000A38915BF606523F4805343F48053A38132
:1031C00018BFA38110BDB1F90E1000F0D3B80000F4
:1031D000F8B50E461446054618B183690BB9FFF7DA
:1031E000C7FA214B9C422BD16C68A369A360A389C9
:1031F0001A072FD523696BB323692068C01A636946
:10320000F6B28342374604DC21462846FFF71CFA13
:1032100030BBA368013BA36023685A1C22601E7068
:1032200063690130834204D0A389DB0706D50A2EE7
:1032300004D121462846FFF707FA88B93846F8BD79
:103240000A4B9C4201D1AC68CFE7094B9C4208BFB6
:10325000EC68CAE72146284600F01EF80028CBD0CB
:103260004FF0FF37EAE700BFA4380000C438000081
:103270008438000038B5074D044608461146002240
:103280002A601A46FEF796FD431C02D12B6803B153
:10329000236038BD40110020324B70B51D680646D2
:1032A0000C4625B1AB6913B92846FFF761FA2E4BDE
:1032B0009C420FD16C68A389B4F90C2019072CD457
:1032C000DD0611D40923336042F04003A3814FF09F
:1032D000FF303EE0254B9C4201D1AC68EBE7244B2C
:1032E0009C4208BFEC68E6E7580712D5616B41B114
:1032F00004F14403994202D03046FFF747FB002314
:103300006363A38923F02403A381002363602369FB
:103310002360A38943F00803A38123694BB9A389E0
:1033200003F42073B3F5007F03D021463046FFF746
:10333000E5FAA089B4F90C2010F001030AD00023AB
:10334000A36063695B42A361236943B910F0800005
:10335000BAD170BD810758BF6369A360F4E700204C
:10336000F7E700BF20100020A4380000C438000098
:103370008438000038B5064D0023044608462B600B
:10338000FEF7FDFC431C02D12B6803B1236038BD5E
:103390004011002038B5074D002304460846114669
:1033A0002B60FEF7EFFC431C02D12B6803B12360B6
:1033B00038BD00BF4011002038B5064D002304463B
:1033C00008462B60FEF7E3FC431C02D12B6803B1D7
:1033D000236038BD4011002038B5074D044608462B
:1033E000114600222A601A46FEF7D3FC431C02D184
:1033F0002B6803B1236038BD40110020000000009D
:1034000001F0FF01102A2BDB10F0070F08D010F895
:10341000013B013A8B422DD010F0070F42B3F6D199
:10342000F0B441EA012141EA014122F007047FF0B2
:1034300000070023F0E80256083C85EA010586EA09
:10344000010685FA47F5A3FA87F586FA47F6A5FA45
:1034500087F68EB9EED1F0BC01F0FF0102F0070251
:1034600032B110F8013B013A83EA010313B1F8D1FC
:103470000020704701387047002D06BF35460338DD
:10348000073815F0010F07D1013015F4807F02BF16
:10349000013015F4C03F0130F0BC0138704700BF67
:1034A0000148FFF703BA00BF341100200148FFF7BD
:1034B000FEB900BF3411002038B5074D0446084658
:1034C000114600222A601A46FEF765FC431C02D111
:1034D0002B6803B1236038BD40110020F8B500BF50
:1034E000F8BC08BC9E467047F8B500BFF8BC08BCE5
:1034F0009E46704748656C6C6F2000576F726C6415
:10350000210A0D002E2E2F6175746F67656E2F7363
:103510006C5F696F73747265616D5F696E69745F0A
:1035200075736172745F696E7374616E6365732E17
:1035300063000000050000000000000000C2010060
:103540000005000000100000000000000000000066
:103550000C0D0000E810002020000000000000001A
:10356000433A2F55736572732F6669726D77617276
:10357000652D312F53696D706C696369747953746B
:103580007564696F2F53444B732F6765636B6F5F6F
:1035900073646B2F706C6174666F726D2F656D6CE8
:1035A00069622F7372632F656D5F636D752E6300A3
:1035B000633A5C75736572735C6669726D7761728C
:1035C000652D315C73696D706C69636974797374AE
:1035D0007564696F5C73646B735C6765636B6F5F65
:1035E00073646B5C706C6174666F726D5C636F6D3D
:1035F0006D6F6E5C696E635C736C5F636F6D6D6F36
:103600006E2E68000403020B050C0302010A03027C
:10361000060A09070301050806020004000140002C
:1036200004000100100000028000080002002000D9
:1036300040787D0100000000005A62020001000095
:10364000C0CF6A0002000000809FD5000201000088
:10365000002D310102020000433A2F557365727349
:103660002F6669726D776172652D312F53696D70A8
:103670006C696369747953747564696F2F53444B33
:10368000732F6765636B6F5F73646B2F706C61740E
:10369000666F726D2F656D6C69622F7372632F6533
:1036A0006D5F656D752E6300633A5C75736572734B
:1036B0005C6669726D776172652D315C73696D70DE
:1036C0006C696369747973747564696F5C73646B36
:1036D000735C6765636B6F5F73646B5C706C617464
:1036E000666F726D5C656D6C69625C696E635C656A
:1036F0006D5F6770696F2E6800433A2F557365726E
:10370000732F6669726D776172652D312F53696D04
:10371000706C696369747953747564696F2F53446D
:103720004B732F6765636B6F5F73646B2F706C6196
:1037300074666F726D2F656D6C69622F7372632F83
:10374000656D5F6770696F2E6300433A2F5573652F
:1037500072732F6669726D776172652D312F5369AF
:103760006D706C696369747953747564696F2F53F4
:10377000444B732F6765636B6F5F73646B2F706C63
:103780006174666F726D2F656D6C69622F73726301
:103790002F656D5F75736172742E630000010807F9
:1037A0000F000A00C8002000A0000100433A2F5576
:1037B000736572732F6669726D776172652D312F33
:1037C00053696D706C696369747953747564696F5A
:1037D0002F53444B732F6765636B6F5F73646B2F5D
:1037E000706C6174666F726D2F7365727669636554
:1037F0002F696F73747265616D2F7372632F736CB1
:103800005F696F73747265616D5F72657461726711
:1038100065745F737464696F2E6300433A2F557348
:103820006572732F6669726D776172652D312F53E2
:10383000696D706C696369747953747564696F2F0D
:1038400053444B732F6765636B6F5F73646B2F70AB
:103850006C6174666F726D2F736572766963652F24
:10386000696F73747265616D2F7372632F736C5F10
:10387000696F73747265616D5F756172742E630038
:1038800024100020000000000000000000000000E4
:103890000000000000000000000000000000000028
:1038A0000000000000000000000000000000000018
:1038B0000000000000000000000000000000000008
:1038C00000000000000000000000000000000000F8
:1038D00000000000000000000000000000000000E8
:1038E00000000000232D302B2000686C4C00656622
:1038F0006745464700303132333435363738394141
:103900004243444546003031323334353637383956
:0839100061626364656600005A
:0839180034C8FF7F010000002C
:0C3920002C3900000010002023000000E3
:10392C000811002001041F00C0EA210100F0490227
:10393C00C0EA21010080000048110020C0EA2101EA
:10394C002410002000000000A4380000C43800003F
:10395C00843800000000000000000000000000009F
:10396C00000000000000000000000000000000004B
:10397C00000000000000000000000000000000003B
:10398C00000000000000000000000000000000002B
:10399C00000000000000000000000000000000001B
:0C39AC0000000000310100000D010000CF
:04000003000003ED09
:00000001FF
