S00A00007370692E7333379E
S113000000100020D5040000D1040000D104000039
S1130010D1040000D1040000D1040000D104000088
S1130020D1040000D1040000D1040000D104000078
S1130030D1040000D1040000D1040000D104000068
S1130040D1040000D1040000D1040000D104000058
S1130050D1040000D1040000D1040000D104000048
S1130060D1040000AD070000D1040000D104000059
S1130070D1040000D1040000D1040000D104000028
S1130080D1040000D1040000D1040000D104000018
S1130090D1040000D1040000D1040000D104000008
S11300A0D1040000D1040000D1040000D1040000F8
S11300B0D1040000D1040000FD380000D104000088
S11300C0D1040000D1040000D1040000D1040000D8
S11300D0D1040000D1040000D1040000D1040000C8
S11300E0D1040000D1040000D1040000D1040000B8
S11300F0D1040000D1040000D1040000D1040000A8
S1130100D1040000D1040000D104000010B5054C56
S1130110237833B9044B13B10448AFF300800123AF
S1130120237010BDAC10002000000000F841000056
S113013008B5034B1BB103490348AFF3008008BD66
S113014000000000B0100020F8410000A3F5803A40
S1130150704700BF174B002B08BF134B9D46FFF79A
S1130160F5FF00218B460F461348144A121A03F078
S1130170EDFD0E4B002B00D098470D4B002B00D00B
S113018098470020002104000D000D48002802D0EB
S11301900C48AFF3008003F0B5FD2000290000F007
S11301A043F803F09BFD00BF0000080000000000BE
S11301B00000000000100020AC100020F412002009
S11301C00000000000000000704700001148124ABF
S11301D0036913F0400F10B505D013780F49C95CBB
S11301E0416301331370036913F0800F0C4B05D086
S11301F01978C4690B4844540131197011780A29DB
S113020004BF002111701A780A2A04BF00221A7050
S113021010BD00BF00000140D310002000100020DA
S1130220D2100020C810002008B503F08BFBFFF7A4
S1130230CBFF03F094FBFFF7C9FFFAE700F09CB88B
S113024008B50421112002F0EBF80948012101F05E
S113025007FD0848022102F0E3F80748022102F0F2
S1130260DFF80648022102F0DBF8002008BD00BFD9
S113027030253E0002001E0003002000050024007B
S113028008B5224B01225A64214BD3F8FC20214BA0
S1130290120E12D14AF6E851C3F89011D3F898110E
S11302A041F00401C3F89811C3F89021D3F86421F4
S11302B042F40052C3F8642101E0012AF6D0164A40
S11302C0136A23F4441343F488131362A2F580429F
S11302D0136843F48073136002F54052D2F8A431DA
S11302E043F4F843C2F8A43103F0E4F800F05CF8F6
S11302F003F072F803F094F803F0C8F8FFF7A0FFD6
S113030003F080F8BDE8084000F040B800000E405B
S11303100081E00F00300E4000400E4008B500F0B0
S11303207BF900F011F8BDE8084000F043B808B5C7
S113033000F020F8BDE8084003F062B97047704748
S1130340704770477047704708B5074BDB7D1BB19A
S11303500648312100F05EF9054B03491868BDE8F1
S1130360084001F087BA00BF10100020783D00005B
S11303700C1000200F20704708B5002318460422F3
S1130380052102F03FFE002008BD000008B5054825
S1130390012101F065FCFFF751FFBDE8084000F0C2
S11303A019B800BF00350A000148012101F058BC0A
S11303B000350A00082000F087B90000014B102224
S11303C0DA60704700A00046014B1022DA607047E3
S11303D000A0004470B5384D384E0FCD88B001AC44
S11303E00FC495E8070084E80700354C354801211F
S11303F001F036FC3046012101F032FC0125324B7C
S1130400039301A920468DF8125002F07BFF2B467E
S113041004220621022002F0F5FD2A4600230721CA
S1130420022002F0EFFD2B4604220821022002F0F4
S1130430E9FD042211462B46002002F0E3FD234B84
S1130440A3670B2363674FF4487003F093FA1420F7
S1130450FFF7BAFF03F08EFA2320FFF7AFFF03F094
S113046089FAB9212046FFF7AFFF02F0ABFFFFF78F
S1130470A5FF00231A460621022002F0C3FD002333
S11304801A460721022002F0BDFD2B460022082156
S1130490022002F0B7FD002210462B46042102F090
S11304A0B1FD204602F0E6FE0021A16730466167F7
S11304B001F0D6FB08B070BD943D0000005204006A
S11304C00004014000350A0000127A000B0B000BF7
S11304D0FEE7000008B500F083F8124B12498B4286
S11304E012D3124B124900208B4218D3FFF732FE6D
S11304F0186850F82240586840F822400132986841
S11305008242F5D30C33EAE70022F8E71C6844F88A
S1130510220001325C68A242F8D30833E4E70022E7
S1130520F8E700BF004200000C4200000C4200004B
S11305300C4200000048704700F04902104AD2F80B
S1130540943003F00703023B032B13D8DFE803F0D6
S11305500C14020E0B4B1B68D2F80001C0F30420EC
S11305600130B3FBF0F07047074BF4E7074B1B680F
S11305705B08F1E7054BEEE74FF40043ECE700BFFF
S113058000400E40381000203010002034100020AD
S113059008B5FFF7D3FF054BD3F80831C3F308239D
S11305A00133B0FBF3F0024B186008BD00400E406D
S11305B02C100020014B1868704700BF3010002039
S11305C0054B1860054BD3F8943003F00703022B56
S11305D001D1FFF7DDBF70473010002000400E400E
S11305E0044B054A9A60D3F8882042F47002C3F899
S11305F08820704700ED00E0000000004FF4004048
S113060070474FF47A707047014B1868704700BF09
S113061038100020FEE7000008B52248012101F04F
S11306201FFB012304220221052002F0EBFC002021
S113063002F0D2FC1C4B0122C3F8102811460420FE
S113064001F05CFE194801F099FC194BD3F8F02035
S113065042F00102C3F8F020D3F8FC2042F080728B
S1130660C3F8FC20A3F55D43124A1A6000F5D520B7
S1130670114B00F2FC40B0FBF3F0104B01380222A6
S11306801861C3F8F0204FF48072C3F804234FF0CC
S113069060430B4AC3F8B02F0A4AC3F8802E0020E7
S11306A008BD00BF00350A000080144206000E0099
S11306B000ED00E0FF030040F8590D00000004E0E5
S11306C055CEACC5090001004FF060420123D2F8B9
S11306D0001E03FA00F00843C2F8000E0020704721
S11306E038B5124B1B780546DBB1E0B102F031F8A6
S11306F00F4A00231146147B54B92B601A0101EBF5
S1130700031301258C501D7302F029F8204638BDCF
S11307100133082B02F11002EDD102F020F8054854
S1130720F5E70548F3E70548F1E700BFD0120020DC
S113073050110020048000F0028000F0018000F0DD
S113074013B5164B1868019000238DF8043002F09D
S113075000F8134B1C7824B102F001F8114802B0E0
S113076010BD01221A7001F0FAFF0F4B1C731C77A5
S113077083F82C4083F83C4083F84C4083F85C4079
S113078083F86C4083F87C4004230DEB03008DF860
S1130790073002F0A1FC2046E1E700BFB03D0000B5
S11307A0D0120020038000F0501100202DE9F843FE
S11307B0DFF86480D8F86070D8F86C301F4000D53A
S11307C0FEE7144CDFF8549001260025374217D079
S11307D02368C8F868609BB1A16862680131A160B0
S11307E028469847637B012B0AD148B909EB451386
S11307F01A7B60F341021A731A7F60F341021A777D
S11308000135082D4FEA460604F11004DED1BDE897
S1130810F88300BF5011002000200E40D0110020AA
S11308200368034A934230B540F0088202E000BFF7
S113083000000140027A052A40F21084931F042B21
S113084040F20E84A2F10B03052B40F20B84A2F1BB
S11308501103062B40F20884A2F11803062B40F280
S113086006841F2A14BFFF2305230B70437A042B2D
S113087040F200845C1F042C40F2FE83A3F10A04BE
S1130880052C40F2FB83A3F11004062C40F2F883FC
S1130890A3F11704072C40F2F583B3F11F0418BF2A
S11308A04FF0FF34E4B28C70847A032C40F2F4836A
S11308B0251F042D40F2E883A4F10905052D40F21B
S11308C0E583A4F10F05062D40F2E283A4F1160599
S11308D0072D40F2DF831E2C00F0DE83B4F11F05E8
S11308E018BF4FF0FF35EDB20D71C07A022840F207
S11308F0DD83C51E042D40F2D183A0F10805052D2A
S113090040F2CE83A0F10E05062D40F2CB83A0F178
S11309101505072D40F2C883A0F11D05012D40F2F5
S1130920C583B0F11F0518BF4FF0FF35EDB28D71CF
S1130930002A58D0012A56D0022A54D0032A52D071
S1130940042A50D0052A4ED0062A00F0B983072A7B
S113095000F0B883082A00F0B783092A00F0B683B0
S11309600A2A00F0B5830B2A00F0C0830C2A00F099
S11309709F830D2A00F09E830E2A00F09D830F2A88
S113098000F09C83102A00F09B83112A00F09483CA
S1130990122A00F09383132A00F09283142A00F0A1
S11309A09183152A00F09083162A00F08F83172A6A
S11309B000F08E83182A00F08D83192A00F08C83AE
S11309C01A2A00F08B831B2A00F08A831C2A00F069
S11309D089831D2A00F088831E2A00F087831F2A3A
S11309E00CBF0722FF224A70002B00F09383012BD7
S11309F000F09283022B00F09183032B00F090838C
S1130A00042B00F08F83052B00F07883062B00F075
S1130A107783072B00F07683082B00F07583092B6E
S1130A2000F074830A2B00F07F830B2B00F07E838D
S1130A300C2B00F05D830D2B00F05C830E2B00F07B
S1130A405B830F2B00F05A83102B00F05383112B80
S1130A5000F05283122B00F05183132B00F05083CB
S1130A60142B00F04F83152B00F04E83162B00F04F
S1130A704D83172B00F04C83182B00F04B83192B5C
S1130A8000F04A831A2B00F049831B2B00F04883A3
S1130A901C2B00F047831D2B00F046831E2B00F017
S1130AA045831F3B18BF4FF0FF33DBB2CB70002CE4
S1130AB000F05083012C00F04F83022C00F04E8391
S1130AC0032C00F04D83042C00F03883052C00F037
S1130AD03783062C00F03683072C00F03583082C6E
S1130AE000F03483092C00F03D830A2C00F03C8391
S1130AF00B2C00F01D830C2C00F01C830D2C00F03B
S1130B001B830E2C00F01A830F2C00F01383102C7F
S1130B1000F01283112C00F01183122C00F01083CA
S1130B20132C00F00F83142C00F00E83152C00F00E
S1130B300D83162C00F01A83172C00F00983182C4F
S1130B4000F00883192C00F007831A2C00F00683A8
S1130B501B2C00F005831C2C00F004831D2C00F0DA
S1130B6003831E2C00F002831F2C0CBF0123FF23E0
S1130B704B71002800F05286012800F052860228AA
S1130B8000F05286032800F05286042800F05286B2
S1130B90052800F05286062800F05286072800F047
S1130BA05286082800F03186092800F031860A2888
S1130BB000F055860B2800F055860C2800F02B8693
S1130BC00D2800F034860E2800F04C860F2800F023
S1130BD02286102800F02B86112800F02B8612287C
S1130BE000F02B86132800F02B86142800F02B86A7
S1130BF0152800F02B86162800F02B86172800F005
S1130C002B86182800F00A86192800F00A861A286C
S1130C1000F00A861B2800F0F8851C2800F0F885EF
S1130C201D2800F013861E2800F013861F2808BF15
S1130C30022318BFFF23CB71002030BDA34A934287
S1130C403FF4F8ADA24A934240F01A83057A042D8A
S1130C5040F28E826B1F032B40F28C82A5F10903B4
S1130C60042B40F28982A5F10E030E2B40F28682FA
S1130C70A5F11D03012B40F283821F2D14BFFF2316
S1130C800A230B70447A032C40F27C82231F032B2B
S1130C9040F27A82A4F10803042B40F27782A4F193
S1130CA00D030E2B40F27482A4F11C03022B40F2BC
S1130CB07182B4F11F0318BF4FF0FF33DBB28B70A6
S1130CC0827A022A40F27082D31E032B40F264829D
S1130CD0D31F042B40F26282A2F10C030E2B40F2CC
S1130CE05F82A2F11B03022B40F25C821E2A00F0F9
S1130CF05B82B2F11F0318BF4FF0FF33DBB20B71FD
S1130D00C37A012B40F25A82981E032840F24E8285
S1130D10981F042840F24C82A3F10B000E2840F2E5
S1130D204982A3F11A00022840F24682A3F11D0071
S1130D30012840F24382B3F11F0018BF4FF0FF3087
S1130D40C0B28871002D00F04182012D00F0408274
S1130D50022D00F03F82032D00F03E82042D00F0AE
S1130D603D82052D00F04882062D00F04782072DB4
S1130D7000F02682082D00F02582092D00F028823B
S1130D800A2D00F027820B2D00F026820C2D00F096
S1130D9025820D2D00F024820E2D00F02D820F2DC2
S1130DA000F02C82102D00F00D82112D00F00C8229
S1130DB0122D00F00B82132D00F00A82142D00F086
S1130DC00982152D00F00882162D00F00782172DD8
S1130DD000F00682182D00F00582192D00F004821F
S1130DE01A2D00F003821B2D00F002821C2D00F04E
S1130DF001821D2D00F000821E2D00F0FF811F2DA9
S1130E000CBF0220FF204870002C00F0FF81012C51
S1130E1000F0FE81022C00F0FD81032C00F0FC8127
S1130E20042C00F00782052C00F00682062C00F04A
S1130E300582072C00F0E481082C00F0E781092CDE
S1130E4000F0E6810A2C00F0E5810B2C00F0E4812F
S1130E500C2C00F0E3810D2C00F0EC810E2C00F042
S1130E60EB810F2C00F0CC81102C00F0CB81112CE5
S1130E7000F0CA81122C00F0C981132C00F0C88143
S1130E80142C00F0C781152C00F0C681162C00F03C
S1130E90C581172C00F0C481182C00F0C381192CD3
S1130EA000F0C2811A2C00F0C1811B2C00F0C0811B
S1130EB01C2C00F0BF811D2C00F0BE811E2C00F004
S1130EC0BD811F2C0CBF0520FF2003E0000401405E
S1130ED000080140C870002A00F0B881012A00F01F
S1130EE0B781022A00F0B681032A00F0C181042AE6
S1130EF000F0C081052A00F0BF81062A00F0A0811D
S1130F00072A00F0A181082A00F0A081092A00F034
S1130F109F810A2A00F09E810B2A00F09D810C2AF1
S1130F2000F0A6810D2A00F0A5810E2A00F0888128
S1130F300F2A00F08781102A00F0A081112A00F006
S1130F408381122A00F08281132A00F08181142AFD
S1130F5000F08081152A00F07F81162A00F07E813E
S1130F60172A00F07D81182A00F07C81192A00F0EC
S1130F707B811A2A00F07A811B2A00F079811C2ACD
S1130F8000F078811D2A00F077811E2A00F0768116
S1130F901F2A0CBF0622FF224A71002B00F05F8437
S1130FA0012B00F05F84022B00F05084032B00F02F
S1130FB05084042B00F05084052B00F02F84062B62
S1130FC03FF439AE072B3FF436AE082B3FF433AE73
S1130FD0092B3FF430AE0A2B3FF42DAE0B2B00F05F
S1130FE035840C2B00F035840D2B00F017840E2B68
S1130FF000F017840F2B00F01784102B00F00584E9
S1131000112B00F00584122B00F02984132B00F01F
S11310102984142B00F0FF83152B00F00884162B71
S113102000F00884172B00F00884182B00F00884C3
S1131030192B00F008841A2B00F008841B2B00F0F5
S113104008841C2B00F008841D2B00F0ED831E2B5C
S113105000F0DB831F2B08BF0723EAE5002304E429
S1131060012302E4022300E40323FFF7FEBB05236C
S1131070FFF7FBBB002416E4012414E4022412E469
S1131080032410E405240EE401252DE402252BE4B9
S1131090032529E4052527E4002525E4012546E464
S11310A0022544E4032542E4052540E400253EE40A
S11310B0072298E4082296E4092294E40A2292E49E
S11310C00B2290E40C228EE40D228CE40E228AE49E
S11310D00F2288E4002286E4012284E4022282E4CE
S11310E0032280E404227EE405227CE406227AE4DE
S11310F00823DBE40923D9E40A23D7E40B23D5E44A
S11311000C23D3E40D23D1E40E23CFE40F23CDE449
S11311100023CBE40123C9E40223C7E40323C5E489
S11311200423C3E40523C1E40623BFE40723BDE489
S113113008231DE509231BE50A2319E50B2317E5FD
S11311400C2315E50D2313E50E2311E50F230FE5FD
S113115001230DE502230BE5032309E5042307E539
S1131160052305E5062303E5072301E50023FFE442
S1131170002386E5082384E5012382E5052380E531
S11311800A237EE500239AE5082398E5012396E5E2
S1131190052394E50A2392E50823B0E50123AEE58F
S11311A00523ACE50A23AAE50023A8E50820C8E541
S11311B00120C6E50520C4E50A20C2E50020C0E5FB
S11311C0022020E603201EE604201CE605201AE681
S11311D0062018E6072016E6082014E6092012E681
S11311E00A2010E60B200EE60C200CE60D200AE681
S11311F00E2008E60F2006E6002004E6012002E6A1
S1131200032067E6042065E6052063E6062061E620
S113121007205FE608205DE609205BE60A2059E620
S11312200B2057E60C2055E60D2053E60E2051E620
S11312300F204FE600204DE601204BE6022049E650
S11312400322A9E60422A7E60622A5E60722A3E6CE
S11312500822A1E609229FE60A229DE60B229BE6CC
S11312600C2299E60D2297E60E2295E60F2293E6CC
S1131270002291E601228FE602228DE605228BE60A
S1131280B34A934240F0F182057A072D40F2258259
S1131290A5F10803012B40F22282A5F10A03052BD4
S11312A040F21F82A5F11003012B40F21C82A5F12C
S11312B01203052B40F21982A5F11803042B40F206
S11312C01682A5F11D03012B40F213821F2D14BFBA
S11312D0FF230A230B70447A062C40F20C82E31F8E
S11312E0012B40F20A82A4F10903052B40F2078284
S11312F0A4F10F03012B40F20482A4F11103052B86
S113130040F20182A4F11703042B40F2FE81A4F100
S11313101C03022B40F2FB811F2C14BFFF23032369
S11313208B70837A052B40F200829A1F012A40F2C7
S1131330F081A3F10802052A40F2ED81A3F10E0227
S1131340012A40F2EA81A3F11002052A40F2E78162
S1131350A3F11602042A40F2E481A3F11B02022A3B
S113136040F2E1811E2B00F0E0811F2B14BFFF220D
S113137003220A71C27A042A40F2E581501F01282F
S113138040F2D581D01F052840F2D381A2F10D008F
S1131390012840F2D081A2F10F00052840F2CD814E
S11313A0A2F11500042840F2CA81A2F11A00022811
S11313B040F2C781A2F11D00012840F2C4811F2A16
S11313C014BFFF2003208871002D00F0C281012D7D
S11313D000F0C181022D00F0C081032D00F0C7810F
S11313E0042D00F0C681052D00F0C581062D00F006
S11313F0C481072D00F0C381082D00F0B081092DB0
S113140000F0AF810A2D00F0A0810B2D00F09F8128
S11314100C2D00F09E810D2D00F09D810E2D00F00D
S11314209C810F2D00F0A381102D00F0A681112DB9
S113143000F0A581122D00F0A481132D00F0A381EA
S1131440142D00F08C81152D00F08B81162D00F0E9
S11314508A81172D00F08981182D00F08881192DBB
S113146000F087811A2D00F086811B2D00F0858104
S11314701C2D00F084811D2D00F083811E2D00F0B1
S113148082811F2D0CBF0220FF204870002C00F029
S11314908281012C00F08181022C00F08681032CD2
S11314A000F08581042C00F08481052C00F08381F8
S11314B0062C00F08281072C00F08581082C00F0B6
S11314C06E81092C00F061810A2C00F060810B2CE4
S11314D000F05F810C2C00F05E810D2C00F05D812A
S11314E00E2C00F062810F2C00F06581102C00F0AE
S11314F06481112C00F06381122C00F06281132CA2
S113150000F06181142C00F04A81152C00F049810F
S1131510162C00F04881172C00F04781182C00F09D
S11315204681192C00F045811A2C00F044811B2CB3
S113153000F043811C2C00F042811D2C00F04181FD
S11315401E2C00F040811F2C0CBF0820FF2001E05E
S1131550000C0140C870002B00F03D81012B00F00D
S11315604281022B00F04181032B00F04081042BC7
S113157000F03F81052B00F03E81062B00F04181F5
S1131580072B00F02A81082B00F01F81092B00F0A3
S11315901E810A2B00F037810B2B00F01A810C2BD3
S11315A000F019810D2B00F01E810E2B32D00F2B71
S11315B030D0102B00F02181112B00F02081122B50
S11315C000F01F81132B00F00881142B00F0078119
S11315D0152B00F00681162B00F00581172B00F067
S11315E00481182B00F00381192B00F002811A2BBF
S11315F000F001811B2B00F000811C2B00F0FF8008
S11316001D2B00F0FE801E2B00F0FD801F2B0CBF55
S11316100923FF234B71002A00F00981012A00F0FD
S11316200981022A00F00981032A00F00981042AB1
S113163000F00981052A00F00F81062A00F0EE80EF
S1131640072A00F0E280082A00F0E280092A00F06C
S113165006810A2A00F006810B2A00F0DC800C2A9D
S113166000F0E5800D2A00F0EB800E2A00F0EB80FC
S11316700F2A00F0EB80102A00F0EB80112A00F012
S1131680EB80122A00F0CA80132A00F0CA80142AC0
S113169000F0CA80152A00F0CA80162A00F0CA8019
S11316A0172A00F0CA80182A00F0CA80192A00F00C
S11316B0CA801A2A00F0CA801B2A00F0CA801C2A99
S11316C000F0CA801D2A00F0CA801E2A00F0CA80D9
S11316D01F2A08BF0A23FFF7ACBA0323FAE508233D
S11316E0F8E50123F6E50923F4E50223F2E50523F1
S11316F0F0E50A23EEE5032312E6082310E60123AE
S11317000EE609230CE602230AE6052308E60A236B
S113171006E608222DE601222BE6092229E602220A
S113172027E6052225E60A2223E6032221E60820ED
S113173049E6012047E6092045E6022043E6052064
S113174041E60A203FE603203DE606209DE6072009
S11317509BE6082099E6092097E60A2095E60220F0
S113176093E6032091E604208FE605208DE60B2006
S11317708BE60C2089E60D2087E60E2085E60F20F7
S113178083E6002081E601207FE60620E2E60720CA
S1131790E0E60820DEE60920DCE60A20DAE603209B
S11317A0D8E60420D6E60520D4E60B20D2E60C20A9
S11317B0D0E60D20CEE60E20CCE60F20CAE60020AF
S11317C0C8E60120C6E60220C4E6062322E7072372
S11317D020E709231EE70A231CE703231AE704234F
S11317E018E7052316E70B2314E70C2312E70D2350
S11317F010E70E230EE70F230CE700230AE701236B
S113180008E7022306E7082304E70623FFF713BAD1
S11318100723FFF710BA0A23FFF70DBA0323FFF7D4
S11318200ABA0423FFF707BA0523FFF704BA0B2308
S1131830FFF701BA0C23FFF7FEB90D23FFF7FBB93D
S11318400E23FFF7F8B90F23FFF7F5B90023FFF7CD
S1131850F2B90123FFF7EFB90223FFF7ECB908232C
S1131860FFF7E9B90923FFF7E6B90148FFF7E5B93E
S1131870022000F0F0B5964F04460D460FCF8DB010
S113188005AE0FC697E8070086E80700002C00F0B5
S11318901D811DB98F4D28460DB0F0BD7C2200215D
S11318A0204602F053FA2B688B4A934240F0B280F0
S11318B08A4AE2648A4AA2624FF4402226462F46AC
S11318C0E26246F8043B0FCF0FC697E8070086E8AC
S11318D007006B7D012B08BF8DF82230AB7D33B13F
S11318E0012B40F0B6804FF40073ADF824302B7D0B
S11318F07C48012B0ABF0023AB688DF821304FF0E0
S1131900010108BF4FF47A73079300F0A9F97648F0
S1131910012100F0A5F9E06C012100F0A1F9EB68C8
S11319201A1F0C2AB6D8033B05A928688DF8203065
S113193001F0E8FC6B69216823F47F0323F47F43FF
S11319401BB90B6843F480330B60AA792B7968794F
S1131950EE7D120642EA032303438A6F002E40F011
S1131960838002F0E0321343EA7943EA02438B674F
S11319700F234B67204603A9FEF752FF05460028B4
S113198089D19DF8123084F840309DF8133084F8E2
S11319904130237E9DF80C009DF80D10002B6BD177
S11319A00422019301F02EFB019B9DF80F109DF87A
S11319B00E00012201F026FBA27E9DF811109DF875
S11319C01000012A94BF019B0123042201F01AFB99
S11319D0E37E3BB90123042294F8411094F84000BB
S11319E001F010FB00F0B5FE404B1A78002A61D1DB
S11319F001221A7000F0B3FE01F002FEFEF7A0FE11
S1131A00002104F12000FEF76BFE0146002854D0AB
S1131A10374D40E7374A934206D1374AE264374AA2
S1131A20A2624FF4502249E7354A934206D1354A1F
S1131A30E264354AA2624FF460223FE7334A93429C
S1131A407FF428AF324AE264324AA2624FF4702231
S1131A5034E7022B02D14FF4807346E7032B7FF463
S1131A6019AF4FF4407340E722F01F2222F01F0207
S1131A7013438B670B237CE72B46012201F0C2FA48
S1131A809DF80F109DF80E002B46042201F0BAFABF
S1131A90A37E9DF811109DF81000012B94BF2B46D6
S1131AA00123022201F0AEFAE37E002B9AD1012336
S1131AB0022291E700F053FEA0E704F12400FEF7B0
S1131AC00FFE054600283FF4E6AEA1E7124DE2E61C
S1131AD0B43D0000022000F0000001400042040078
S1131AE001000C004041050000350A00D11200201D
S1131AF0092000F0000401400052040001000D0020
S1131B00000801400062040001000E00000C0140C6
S1131B100072040001000F00012000F00C4B9842F9
S1131B2010D90C4B984210D9022201230A490B64A4
S1131B300A49D1F8003123F0807343EA0263C1F803
S1131B400031704700221346F0E70122FBE700BF93
S1131B500048E8010090D0030000C84300400E4054
S1131B6038B5114B5B68114B00221C46C9B21D7974
S1131B708D4202D11D68854212D20132052A03F139
S1131B800803F4D10A4841F2CE51FEF743FD032283
S1131B9005494B6823F0407343EA02634B6038BD48
S1131BA004EBC2025279F3E700000E40A03E0000AD
S1131BB0D03D00001F2810B5044604D903484FF453
S1131BC0B371FEF727FD0120A04010BD203E0000A8
S1131BD070B5084C41F67136256C2664FEF7AAFCF4
S1131BE00021FFF7BDFFADB2B5421CBF0023236443
S1131BF070BD00BF00000E40044BDB6B5B0604D4D9
S1131C00034AD2F8C830002BFBD1704700300E4095
S1131C100000C64308B5FFF7EFFF024B5868C0F356
S1131C20014008BD00300E40044BD3F84421D207D4
S1131C3003D4D3F840211042FBD1704700400E403A
S1131C4070B5064C41F67136256C2664FFF788FFA3
S1131C50ADB2B5421CBF0023236470BD00000E402A
S1131C6038B5C0F30323013B092B24D8DFE803F084
S1131C702A2D2323051619231C20154C0023C0F3F9
S1131C80043513B11846FFF7CFFF04F1424404F5BD
S1131C90801405EBC404A400216038BD0D4C01235D
S1131CA0EDE70D4C1023EAE70C4C4FF48033E6E7E4
S1131CB00B4C0023E3E7BDE838400A4841F66A319B
S1131CC0FEF7A8BC084C0023D9E7084C0023D6E74C
S1131CD0B0400E40E0400E40E8400E40F0400E4060
S1131CE050410E40D03D000000400E40C0400E4028
S1131CF008B5C0F30313013B092B60D8DFE803F0F8
S1131D00050B0F195F5F1F233C532E4BD3F80001C3
S1131D10C0F3042008BD2B4BD3F81401F8E7294B7A
S1131D20D3F80001C0F300600130FFF743FF01382E
S1131D30F0E7244BD3F80C01C0F30820EAE7214B69
S1131D40D3F80801F8E7204B984209D01F4B98427A
S1131D500CD041F60E511E48FEF75CFC0020D9E77A
S1131D60184BD3F8200100F00F00DEE7154BD3F831
S1131D702001C0F30110D8E7164B984208D003F5B0
S1131D80B01303F58053984206D041F63251E2E78E
S1131D900C4BD3F82801ECE70A4BD3F82801C0F325
S1131DA001200430C1E70C4B984205D1054BD3F810
S1131DB0300100F00300ADE741F64151CBE741F6B5
S1131DC06651C8E700400E408006160080162E00BB
S1131DD0D03D000090171A00A009140008B5FFF7C1
S1131DE087FF013008BD000000F00F00013808B57E
S1131DF0072844D8DFE800F0040F1943232D4335A6
S1131E00264BD3F8943003F00703023B052B3DD84F
S1131E10234AD05C08BD214BD3F8803003F007037C
S1131E20013B032B34D81F4AF3E71C4BD3F884300F
S1131E3003F00703013B032B2AD81B4AE9E7174B9E
S1131E40D3F8883003F00703013B032B20D8174A4B
S1131E50DFE7124B1B6F13F0010F0CBF07200920A3
S1131E60D8E70E4BD3F85C3103F03003202B11D0AC
S1131E70302B11D0102B14BF01200720CAE70C48C7
S1131E8042F2BA01FEF7C6FB0020C3E70520C1E712
S1131E900120BFE70420BDE70820BBE700400E4057
S1131EA0743E00007A3E00007E3E00007A3E000050
S1131EB0D03D000038B52C4B984205460AD02B4B38
S1131EC0984207D02A4B984204D02A4841F2CD6167
S1131ED0FEF7A0FB2846FFF787FF234B9D420446ED
S1131EE011D0224B9D4212D0214B9D4213D1224B43
S1131EF0D3F8804004F00704042C2DD8DFE804F064
S1131F002A11151D19001C4BD3F88440F2E71A4B13
S1131F10D3F88840EEE7174841F2FC61FEF77AFBFC
S1131F20EAE7BDE83840FEF769BBBDE83840FEF794
S1131F306BBBBDE83840FEF764BBFEF7FFFA0E4BFF
S1131F400446D3F80001C0F300600130FFF732FE0D
S1131F50B4FBF0F4204638BD064841F24E71FEF75A
S1131F6059FB0024F6E700BF03002000050024000D
S1131F7002001E00D03D000000400E4038B500F4C1
S1131F807813B3F5B01F05467FD02ED8B3F5402F94
S1131F9069D011D8B3F5802F54D006D843B1B3F526
S1131FA0003F5AD041F69A411AE0B3F5202FF9D1F7
S1131FB0BDE83840FEF7C2BAB3F5801F00F0A28036
S1131FC0B3F5A01F57D0B3F5602FEBD15B48FFF7F3
S1131FD00BFF072800F096800928E9D041F29041D0
S1131FE05748FEF717FB002036E0B3F5381F5AD0E8
S1131FF013D8B3F5001F5FD00AD8B3F5D01F5DD056
S1132000B3F5F01FCED14F48BDE83840FFF752BFBB
S1132010B3F5101FC6D14C48F6E7B3F5481F57D0A7
S1132020B3F5781F00F08280B3F5401FBAD147485A
S1132030FFF740FF464B0446D3F82801C0F30120C4
S113204004302BE0FEF77AFA414BD3F80C31C3F39A
S113205008230133B0FBF3F038BDFEF76FFA3C4BB5
S1132060D3F80831F3E7FEF769FA394BD3F81431A2
S1132070C3F30423EDE73448FFF71CFF344BD3F8D4
S1132080303103F00303D840E6E72E48FFF712FF90
S11320902F4B0446D3F8200100F00F00FFF78AFD10
S11320A0B4FBF0F0D8E72748FFF704FF284BD3F838
S11320B02031C3F30113E6E72448A5E72348FFF7DB
S11320C0F9FE234B0446D3F82801C0F30110E5E7D9
S11320D02048FFF789FE0138072824D801A353F8C4
S11320E020F000BFE71F0000272100002721000087
S11320F00B210000272100002721000005210000FA
S113210013210000144B1868A6E7BDE83840FEF719
S113211051BAFEF713FA0E4BD3F80031C3F304237C
S113212003FB000098E741F2C74159E7FEF706FABE
S113213004462846FFF752FEB2E700BF06000E0031
S1132140D03D000002001E00050024000300200012
S113215000400E40B80032003C100020014B1880B3
S1132160704700BF40100020013838B50C460328E2
S113217064D8DFE800F002441A2FB1F5007F04D3DD
S1132180324842F6BA01FEF745FA314AC4F308046C
S1132190D2F86838002BFBD12E4A136A23F4FF735C
S11321A023F001032343136238BD7F2904D9274850
S11321B042F6C701FEF72EFA254A04F07F01D2F851
S11321C06038002BFBD1234B1C6924F07F040C43A3
S11321D01C61E9E77F2904D91C4842F6E201FEF7B5
S11321E019FA1B4A04F07F01D2F86438002BFBD1A2
S11321F0184B9C6924F07F040C439C61D4E7154D73
S1132200D5F890305B0704D5104842F6F201FEF78A
S113221001FA6B6A23F0300343F010036B62C4F3DA
S1132220C311CB1C2A6B0C490F2B01EA020128BFF6
S11322300F23214341EA03712963B5E7BDE8384020
S1132240024842F60C11FEF7E5B900BFD03D00008C
S11322500020C84300400E4000F8FF0F022810B5CC
S11322600C4604D0144842F62411FEF7D3F9134B5C
S11322705B6A13F0300F1BD0202C16D0302C17D0F3
S1132280B4B10D4842F63F11FEF7C4F90C4B0B4AAA
S1132290D2F8901033EA0101FAD15B024ABFD2F8B6
S11322A0A0000120C0F3802010BD4FF40003EEE72E
S11322B04FF44003EBE700BFD03D000000400E4068
S11322C0FF33E107022808B50CD129B1094B4FF4BB
S11322D08060C3F8A80059664AB1BDE808400220EE
S11322E0FFF7BCBF044842F67511FEF793F90120CD
S11322F008BD00BF00400E40D03D000004282DE979
S1132300F04704460F4691461FD83D4B3D4A13F80B
S113231000A03D4B13F80080F1B93C4B33F810306A
S11323201366012303FA08F8D2F8903013EA080F71
S1132330FAD1B9F1000F5AD00125324A05FA0AF54B
S1132340D2F890302B42FBD151E0BDE8F047304841
S113235042F60901FEF75EB92E4B022833F81060ED
S113236047D1536A13F0300F43D12B4BDB6B5A0523
S113237004D4274842F61801FEF74CF9214A536A5F
S1132380DB0705D5536A23F0300343F0100353628F
S1132390224D1C4BA8441E664FEA8808D8F800302A
S11323A0002BFBD0B9F1000F21D05544AD002B68B0
S11323B0002BFCD0022C1AD1CFB1124F796A11F044
S11323C0010118D0012220212046FFF77BFFD7F816
S11323D09C40012200210220FFF790FFC4F30A0170
S11323E00220FFF7C1FE3E662B68002BFCD0BDE83F
S11323F0F0870027CCE72046FFF730FFE7E700BF70
S1132400823E000000400E40873E0000963E0000E1
S1132410D03D00008C3E000000300E408004F210DD
S1132420112838B50C460FD000F00F0001380728EA
S113243000F2EB80DFE810F0240066009A00E90067
S11324407D00B400E900C200042912D1FEF7B2F8FD
S11324500546A8B10021284600F094FA023C0A2C53
S113246045D8DFE804F04A473137444444443D0F3B
S11324704D00052904D1664B1D68664B9D42E9D881
S11324800025EBE70320052401221146FFF736FF60
S1132490FFF79EFB0DB1FFF7AFFB5F4B5C67FEF7E9
S11324A077F80446FEF74AF8FFF738FBFFF7B2FB6C
S11324B001462046FFF7C4FB002D5DD128460121CB
S11324C0BDE8384000F05EBA5448FFF727FB02200D
S11324D00446D9E75148FFF721FB01240320D3E741
S11324E042F27B11BDE838404D48FEF793B84FF4F3
S11324F00651F7E701200324C6E700200424C3E7BC
S11325000724C5E7062933D14548464D42F2BF1199
S1132510FEF780F8424842F2CF11FEF77BF8FEF74F
S11325200DF8FFF7FBFA404B0122C3F808260323FA
S113253021E006293D4DEDD0013C092C2BD801A307
S113254053F824F09D2500007B2500008925000018
S113255097250000972500001F25000097250000FF
S1132560972500009725000075250000304DE3E70E
S11325702C4DE1E704232B6038BD012211460020D5
S1132580FFF7BCFE0223F6E7012211461046FFF7CF
S1132590B5FE0123EFE742F2FA11A3E70023EAE7CD
S11325A0072904D0092906D042F284219AE71A4B5C
S11325B000221A67E0E7184B0122FAE74C1E072CA9
S11325C01ED8DFE804F0201D1D161D1D0F04032274
S11325D01149D1F85C3123F0300343EA0213C1F806
S11325E05C31C9E7012211460420FFF787FE01226E
S11325F0EEE7012211460220FFF780FE0222E7E700
S113260042F2E2216EE70022E2E742F2B93169E7E1
S113261034100020002D310100400E400148E80133
S1132620D03D000080400E400010C84388400E405A
S113263084400E4010B504461120FFF7D5FB042852
S113264004D1274842F2A461FDF7E4FF01220021EE
S11326500220FFF753FE63781BB9A3780BB9E37824
S113266023B11F4842F2E061FDF7D4FF237C012B24
S113267004D11B4842F2E761FDF7CCFF194A217CE3
S1132680536A23F00103022908BF43F00103536294
S1132690154B2178C3F8A014637AA18843EAC123B7
S11326A0D362136BA07A217A03F07F630343E0883B
S11326B043EAC02343EAC11303310F2928BF0F2182
S11326C043EA01731363A37B617B1B0143EA013378
S11326D0E17B0B43217B43EA0143536310BD00BFFD
S11326E0D03D000000400E400000C84370B50546D0
S11326F01120FFF779FB022804D10F4842F26271DE
S1132700FDF788FF0D4E0E4BB26B2C7813401C4323
S11327106B7844EAC324AB7844EA0364EB7844EA74
S11327200324B36BA34205D0002101220846FFF71E
S1132730E5FDB46370BD00BFD03D000000400E4015
S113274080E4FFF8EFF3108072B6704700B962B608
S11327507047EFF31180602383F31188704780F38F
S113276011887047034BD86B80F04000C0F3801091
S1132770704700BF00300E4038B542EA0323B3F57A
S1132780007F05460C463ED019D8B3F5807F36D07D
S11327900AD883B3012B21D01F4840F6F211FDF76C
S11327A039FF002213461FE040F201129342F3D195
S11327B01A4BD3F824321A0EC3F3074314E0B3F5CB
S11327C0407F24D040F20132934210D040F20122E3
S11327D09342E1D1114BD3F8283202E00F4BD3F8E6
S11327E02432C3F30722DBB22B60226038BD0B4BCB
S11327F0D3F82832DFE7094BD3F81C32F1E7074B53
S1132800D3F81C32D7E7054BD3F82032E9E7034B62
S1132810D3F82032CFE700BFC83E00000081E00FAC
S113282008B5FFF79FFF20B1024AD2F8C830002B49
S1132830FBD108BD0000C6431A4B022810B5D3F8DB
S113284030320C4612D0032813D0012814BFDBB257
S1132850C3F307231B0323F47042ECB95AB140F6C7
S113286081111148FDF7D6FE002010BDC3F30743C4
S1132870F0E71B0EEEE70D49CA6E22F470421343D3
S1132880CB660120F1E70949D1F8EC2022F470422B
S11328901343C1F8EC30F4E7002AF4D040F68D116C
S11328A0DFE700BF0081E00FC83E000000300E40AB
S11328B00378134A002B437870B514BF042600260E
S11328C0002B8378946914BF02250025002B03791B
S11328D024F03F0443EA0403C47814BF0821002110
S11328E0012C08BF43F0010333432B430B43936193
S11328F01368417923F4403343EA0143136070BD04
S113290000300E40F8B504460F46FFF72BFF78B3AE
S1132910FFF786FF174B5B68C3F301439C4227D044
S1132920154BD3F80061FDF709FE022C05460FD1C3
S1132930124BC6F3042606FB00069E4204D9104837
S11329404FF4E361FDF766FE02212846FFF778F9AC
S1132950C4F1020210239340064A13610FB1FFF73A
S11329605FFF2CB921462846BDE8F840FFF768B957
S1132970F8BD00BF00300E4000400E40002D310174
S1132980C83E000013B50246FFF7ECFEC8B152B9C9
S11329900D4B0191D3F80041FDF7D0FDC4F304229F
S11329A0019902FB0002094B1B7843B1084B9A4280
S11329B005D8022002B0BDE81040FFF7A3BF0020F5
S11329C0F8E702B010BD00BF00400E40D81200204E
S11329D0002D3101224B4AF6E85210B5596B5A6367
S11329E09A6FD207FCD41B6C13F003031EBF1D4A5D
S11329F00124C2F8B44A834204D110B9194BC3F874
S1132A00B40A10BD032B00D09BB9431E012B10D870
S1132A10134A4FF40023D362936FDB07FCD4136C87
S1132A2023F0030343F0010313640D4A536A1C03A8
S1132A30FCD50B4B9A6FD207FCD41A6C22F003021C
S1132A4002431A649A6F12F00102FBD10038054C5C
S1132A5018BF01200129C4F8B40A08BF5A63D0E79B
S1132A6000300E400000C6432DE9F04FA0F5E163AD
S1132A7089B00024B3F5966FCDE90244CDE904444E
S1132A80CDE9064406468A46934605D940F67B318D
S1132A905548FDF7BFFDA3E0B0F5E16F534B8CBF84
S1132AA00122002249D1D3F81832C3F30721DBB243
S1132AB0079104934FF416754FF4966748E0BBF101
S1132AC0000F0ED0D9F85C2022F4FE4222F002025C
S1132AD0B6F5E16F42EA012218BF02200243C9F8A9
S1132AE05C20BAF1000F26D020460021FFF7A4FE97
S1132AF0044610B940F6D831CAE701214046FFF731
S1132B009BFE044610B94FF43E61C1E7384A536E48
S1132B10BD4238BF3D4623F4FF73E72D23F0010384
S1132B2028BFE725B6F5E16F18BF43F0010343EA78
S1132B304503536654E0012452E0D3F81832190EC9
S1132B40C3F30743079104934FF496654FF4E16789
S1132B50DFF89C90D9F84C400192C4F301742346E9
S1132B6005A902A8FFF708FED9F8EC30019AC3F3CF
S1132B700128434606A903A8FFF7FEFD049BF01BAA
S1132B80079FF91A4143B1FBF5F299182CBF0123B1
S1132B9000238F421ED3EBB9069A039FD31B4343F2
S1132BA0B3FBF5F3FF182CBF01230023BA4211D362
S1132BB083B9059B029AA3EB020C00FB0CF0B0FB5B
S1132BC0F5F555192CBF01200020AB4202D3002893
S1132BD03FF475AF044840F6C931FDF71BFD0024EE
S1132BE0204609B0BDE8F08FC83E00000081E00F28
S1132BF000300E40334A08B5136FD16C11F0010F49
S1132C0003F0060344D0002B42D0132857D91438BC
S1132C1013288CBF102308232A49013BCA6C1803CC
S1132C2022F47F4240EA03231343CB64264BCA6C4D
S1132C301B88C2F303222833013202EB820003EB28
S1132C405303B3FBF0F3C86C013B072B28BF0723E6
S1132C5020F0EE6040EA036343F48013CB641B4B23
S1132C60B3F90030002B12DB03F12800C0F34E034C
S1132C700344500800EB4202B3FBF2F20B6D072A47
S1132C8028BF072223F0700343EA02120A6508BD35
S1132C90D16C01F00101194304D109280FD90A3874
S1132CA00928B6E7D26CD20702D50BB92728B0E7BA
S1132CB0074840F61E41FDF7ADFC0023ACE70423B2
S1132CC0AAE700BF00300E40D4120020D612002024
S1132CD0C83E00000C4BD3F8803910B5044633B914
S1132CE0012804D9094840F63C41FDF793FC084A01
S1132CF0136F23F0070323431367064BBDE810400B
S1132D001888FFF777BF00BF0000C643C83E000025
S1132D1000300E40D212002038B55A4B02229A637A
S1132D209B6B03F00F039342044607D0564840F6CA
S1132D301621FDF76FFC0025284638BD0389C82BF2
S1132D4004D951484FF42261FDF764FCA288238919
S1132D509A4204D94C4840F62121FDF75BFCB4F9B2
S1132D600C30C82B04DD484840F62221FDF752FC04
S1132D706378012B55D1A388C82B04D940F62621AA
S1132D804148FDF747FCE28842F210739A4204D9A5
S1132D903D4840F63321FDF73DFCE3884A2B48D9F2
S1132DA0B3F5FA7F47D340F6C312934294BF4FF072
S1132DB000524FF040523349B4F90C00CB6C23F06D
S1132DC0405323F001030028A8BF43F00103134339
S1132DD0CB64D1F8EC30A28843F44073C1F8EC30F2
S1132DE02A4B1A80CB6E43F08073CB66284BD3F802
S1132DF0800900B10420FFF76DFF264B218919805B
S1132E00254BB4F90C20A0881A80FFF7F3FEA37BAE
S1132E10A3B1012B22D01C4840F63211FDF7FAFB76
S1132E200FE0022BAFD1A3880A2BACD940F62B219B
S1132E30A6E70022BFE74FF08052BCE7114B174AC8
S1132E409A65012260881146FFF70EFE054640B9D7
S1132E500D4840F66A21FDF7DDFB6DE7094B104A8A
S1132E60EEE7084AD36B43F48063D3636078FFF7DB
S1132E70B1FDA37AA3F1200253425341044AC2F89C
S1132E80943759E700300E40C83E0000D2120020AB
S1132E900000C643D4120020D612002077402057E9
S1132EA0372110B738B50D46044640B3012829D060
S1132EB002282AD003282BD004280ED005282AD093
S1132EC0831F012B09D9082828D0092828D00A28CB
S1132ED003D10723EB40DB0704D4134840F22D4110
S1132EE0FDF798FB30200C2310FB043404F18C44D0
S1132EF0012104F5204401FA05F5256038BD40F2AE
S1132F00FF33E7E74FF6C073E4E740F6FF73E1E70A
S1132F104FF47F43DEE74FF6FF73DBE70F23D9E778
S1132F204FF44043D6E700BF183F000038B50D46C4
S1132F30044640B3012829D002282AD003282BD0E4
S1132F4004280ED005282AD0831F012B09D908286C
S1132F5028D0092828D00A2803D10723EB40DB070F
S1132F6004D4134840F2FE31FDF754FB30200C2307
S1132F7010FB043404F18844012104F5204401FACF
S1132F8005F5256038BD40F2FF33E7E74FF6C0731F
S1132F90E4E740F6FF73E1E74FF47F43DEE74FF6E3
S1132FA0FF73DBE70F23D9E74FF44043D6E700BFB5
S1132FB0183F000070B505460E461446FFF7C2FBE5
S1132FC0296881EA040202EA06044C402C60BDE848
S1132FD07040FFF7BBBB00001F2810B5044603D99F
S1132FE006485221FDF716FB054AD2F8443423F073
S1132FF003032343C2F8443410BD00BF693F0000FB
S113300000A00040F8B50D4616461F460446C8B356
S113301001283AD002283BD003283CD004280ED003
S113302005283BD0831F012B09D9082839D009284A
S113303039D00A2803D10721E940CB0704D4234817
S11330404FF4B071FDF7E6FA26B1294620466FB376
S1133050FFF728FF04EB4403072D4FEA03134FF057
S11330600F0126D8A80006FA00F281401848184437
S1133070FFF7A0FF4EBB2946204617B3BDE8F84032
S1133080FFF710BF40F2FF31D6E74FF6C071D3E728
S113309040F6FF71D0E74FF47F41CDE74FF6FF7163
S11330A0CAE70F21C8E74FF44041C5E7FFF73EFFE9
S11330B0D0E7A5F10800800006FA00F28140054837
S11330C0D5E7BDE8F840FFF731BFF8BD693F000020
S11330D004A0004008A0004010B5044618B91C48DC
S11330E09121FDF797FA23781B0613F0784F03D04C
S11330F017489221FDF78EFAE378072B03D9144879
S1133100A321FDF787FA01214FF4AA40FEF7A8FD99
S1133110B4F8013022785BBA9BB243EA02630D4AE9
S1133120136000231362D36253634FF00043D366EA
S11331304FF0FF339366084A4FF40071C2F88011D0
S1133140E3785B01DBB282F80933116010BD00BF84
S1133150BA3F000000200E4000E100E0022838B52C
S113316004460D4603D911484C21FDF753FA6B79F7
S11331701F2B03D90D484F21FDF74CFAAB786A7821
S11331809B0143EA82032A781343EA7843EA021351
S11331902A7943EAC2236A7943EA0233AA790434D6
S11331A043EA42432401024A135138BD5B40000004
S11331B000200440014B1860704700BF00008442A7
S11331C0427801790378002A827870B514BF042606
S11331D00026002AC27814BF10250025002A42794F
S11331E04FEA023242EA012242EA0302837914BF1F
S11331F020240024002BC37942EA034343EA060354
S1133200027A43EA050314BF4FF40041002123432B
S1133210002A14BF4FF4003200220B431343014A27
S1133220136070BD0020044070B506460C46154678
S113323022B90D4840F28E21FDF7ECF91CB90B4878
S1133240FEF79CFE04460A4B6D00013CB4FBF5F40A
S113325013EA04234FEA042504D0034840F2B321BF
S1133260FDF7D8F9756170BDAC4000004041050020
S1133270070080FF38B51E4B1E4D984204460ED001
S1133280A8420CD003F50063984208D003F580638C
S1133290984204D0184840F24241FDF7BBF940F689
S11332A0AA63E36041F20502002323606260134ACB
S11332B0A3606361E364A26423666367A367E3674F
S11332C00B4B9C4209D0AC4207D003F500639C42EF
S11332D003D003F580639C4201D1002323650023BE
S11332E0AC42A36502D0064A944200D1E36538BDDE
S11332F00000014000040140AC400000F9FF01005F
S1133300000C014038B52D4B984204460D4610D0B0
S113331003F5806398420CD003F58063984208D08B
S113332003F58063984204D0254840F26931FDF7E3
S113333071F92046FFF79EFFA97B2A8A236800299A
S113334042F0010214BF4FF48061002113430B4388
S11333502A7D23602368002A14BF4FF00052002204
S113336013432360AB7C1BB1EB7C43F08003A36568
S11333702B7B43F480536360D5E901122046FFF7A9
S113338053FF6B7B0BB11023E3606B7D1BB1236890
S113339043F480332360AB7D1BB1236843F40043C3
S11333A02360EB7D2A7E1B07120503F0E04302F441
S11333B0E002134323662B78E36038BD000001402C
S11333C0AC40000003695A06FCD5416303699B06BF
S11333D0FCD5C069C0B270477FB5094B6A4603F19A
S11333E01006154618685968144603C40833B342D6
S11333F02246F7D12846FFF78FFC002004B070BDA9
S1133400FE40000013B502230024684600948DF8A2
S113341004408DF80530FFF74BFA204602B010BD8A
S113342070B5164B86B001AA03F11006154618684C
S11334305968144603C40833B3422246F7D11B88A3
S113344023800F4BD3F8B42012030ED4D3F8B83032
S1133450C3F308030B48ADF80A30FDF7B1F828466A
S1133460FFF7E8F8002006B070BD074B1B884FF645
S1133470FF72934208BF4FF4AA73EBE70E410000BA
S11334800081E00F00F049020001E00F07B5084B8E
S113349018680190202301A88DF80430FFF726F95D
S11334A06420FEF75BFE002003B05DF804FB00BF60
S11334B02041000010B50C480C4C6FF00402A02110
S11334C012F0800FD3B21BBF03F00F03043BA31809
S11334D01B1802F101020CBF83F800131976332A7A
S11334E0EED1002010BD00BF00ED00E000E100E0DF
S11334F030B50F4C41612368ABB92060836011E0A3
S1133500891A9A6841611D462AB113465A698A424A
S1133510F6D955B11A46A8601346836013B15A69A7
S1133520511A596130BD0025F0E72060F5E700BF6E
S1133530F012002010B500F07FF90A4C0A4B19680C
S11335402368C31A01B10BB9206010BD4A699A42BD
S11335502EBFD21A9B1A00224A6128BF0023896811
S1133560F0E700BFDC120020F012002038B5134D44
S11335702B685B6993B1124A146802201C4400F062
S11335808FF9204600F05EF90E492A6800230B707B
S1133590D088800709D501230B7038BD022000F0C4
S11335A07FF9022000F0A2F9EEE79268002AF4D035
S11335B050690344012BEBD9EFE700BFF012002060
S11335C0DC120020E41200200C490B6800227BB1BD
S11335D083420AD183687AB1936083681BB15A69C4
S11335E041690A445A61002070471A469B68EEE715
S11335F00028EFD0022070470B60EEE7F0120020A5
S113360070B5154EFFF7A5F834780546FCB9134B91
S11336101C60134B1C60134B1C8000F0C7F8012086
S113362000F03EF900F082F90F4B0246186020B911
S11336302846FFF794F8232070BD23460B4840F238
S1133640E73100F0C9F90A4B1860012333702846AA
S1133650FFF785F80020EFE7D9120020F0120020D0
S1133660DC120020E6120020EC12002018FCFFFF00
S1133670E0120020C2072DE9F84F04460BD5464A54
S1133680138801339BB21380FFF754FF434B1B682D
S11336900BB1FFF76BFFA3077CD5FFF75AF805467C
S11336A0FFF748FF4FF0000A3C4FDFF8F89056460A
S11336B0D0463C680CB163698BB1394B0022012EB2
S11336C01A7003D1BAF1020F08BF1E70002C51D03A
S11336D0FFF74CFF2846BDE8F84FFFF740B82346F4
S11336E01A792179914288BF1C469B6813B15A69A3
S11336F0002AF5D02846FFF732F8D4F810A0BAF122
S1133700000F3BD000F098F8A269851AEB17AA4580
S113371078EB030333DA23691344A3610122236999
S1133720D3B1CAB9EB17BAEB050563EB4303002B1E
S113373004DA4FF481614846FCF76CFFFFF709F89F
S1133740294682462046FFF7D3FEA3692269134423
S1133750A3615046FFF703F8E368B4F806A0013606
S113376013B1216820469847FEF7F3FF0546FFF79B
S1133770E1FE9EE7022000F0A1F8ABE75546FEF714
S1133780E8FF83462046FFF71FFF5846FEF7E7FF92
S11337900022C4E7BDE8F88FE6120020F0120020F2
S11337A0E8120020244100000020704710B51E4B91
S11337B086B01868596803AA03C2197AD3F80900B5
S11337C011700024B3F80D200190DB7B1748ADF88D
S11337D0082001218DF80A30FEF742FA8DF80C40DA
S11337E0FFF7E2FF8DF8100003A8FFF7E9FC01A939
S11337F001208DF80440FFF7B1FC0D4A536A23F40D
S1133800FF6323F00703536240F2FF731362012046
S11338109460FFF7CFFC074B4FF08042C3F8802140
S11338201A6006B010BD00BF88410000A009140052
S11338300020044000E100E0014B9868704700BF9D
S11338400020044010B50446FEF77CFF124A93683A
S1133850516D9269520704D4CA1A032A01D88B42C3
S11338600DD1E21A022A98BFDC1C0B4BB4F1FF3FC6
S113387038BF013C5C655A6A42F004025A62FEF7A2
S113388065FF064A137833B103490B6D43F0020315
S11338900B650023137010BD00200440421000206B
S11338A08207054A00F00103516A48BF43F004034C
S11338B00B435362704700BF00200440820700F0AE
S11338C0010309D5074A0121117007490A6D22F045
S11338D0030243F004030A6503494A6A22EA030324
S11338E04B6270474210002000200440830742BF0F
S11338F0014B0422DA6170470020044010B5FEF742
S113390028FF094A93690446590703F0010003F0AC
S1133910070348BF40F002001362FFF7ABFE2046E6
S1133920BDE81040FEF71BBF0020044008B5044862
S1133930FEF724FB0346FFF737FF23FA00F008BD28
S1133940A009140008B5FCF79BFCFCF7E7FCFCF7A6
S1133950EEFCFCF7F3FCBDE80840FCF7F0BC08B54E
S1133960FCF7EEFCFCF7EDFCFCF7ECFCBDE80840D2
S1133970FCF7E9BC10B50446FCF70AFE4FF47A7272
S11339809042B0FBF2F105D23621BDE810400B485D
S1133990FCF740BE0A4BB3FBF1F30A49884201D954
S11339A03C21F2E702FB04F0B0FBF3F0032804D956
S11339B0BDE81040800800F00BB810BD984100002D
S11339C040420F00E7CD9A3B0000000000000000D9
S11339D0013800D0FCE7704753B94AB9002908BF41
S11339E000281CBF4FF0FF314FF0FF3000F074B9D6
S11339F0ADF1080C6DE904CE00F006F8DDF804E042
S1133A00DDE9022304B070472DE9F047089D044620
S1133A108E46002B4DD18A42944669D9B2FA82F27D
S1133A2052B101FA02F3C2F1200120FA01F10CFAB9
S1133A3002FC41EA030E94404FEA1C48210CBEFBF1
S1133A40F8F61FFA8CF708FB16E341EA034306FB7A
S1133A5007F199420AD91CEB030306F1FF3080F009
S1133A601F81994240F21C81023E63445B1AA4B256
S1133A70B3FBF8F008FB103344EA034400FB07F7F8
S1133A80A7420AD91CEB040400F1FF3380F00A8139
S1133A90A74240F207816444023840EA0640E41B2E
S1133AA000261DB1D4400023C5E900433146BDE8DA
S1133AB0F0878B4209D9002D00F0EF800026C5E97C
S1133AC0000130463146BDE8F087B3FA83F6002E94
S1133AD04AD18B4202D3824200F2F980841A61EB0C
S1133AE0030301209E46002DE0D0C5E9004EDDE72A
S1133AF002B9FFDEB2FA82F2002A40F09280A1EB12
S1133B000C014FEA1C471FFA8CFE0126200CB1FB66
S1133B10F7F307FB131140EA01410EFB03F088425F
S1133B2008D91CEB010103F1FF3802D2884200F2EC
S1133B30CB804346091AA4B2B1FBF7F007FB10117E
S1133B4044EA01440EFB00FEA64508D91CEB04041C
S1133B5000F1FF3102D2A64500F2BB800846A4EB77
S1133B600E0440EA03409CE7C6F12007B34022FA62
S1133B7007FC4CEA030C20FA07F401FA06F31C4391
S1133B80F9404FEA1C4900FA06F3B1FBF9F8200C9E
S1133B901FFA8CFE09FB181140EA014108FB0EF0E4
S1133BA0884202FA06F20BD91CEB010108F1FF3A34
S1133BB080F08880884240F28580A8F10208614440
S1133BC0091AA4B2B1FBF9F009FB101144EA01414E
S1133BD000FB0EFE8E4508D91CEB010100F1FF34F9
S1133BE06CD28E456AD90238614440EA0840A0FB91
S1133BF00294A1EB0E01A142C846A64656D353D067
S1133C005DB1B3EB080261EB0E0101FA07F722FA8A
S1133C1006F3F1401F43C5E9007100263146BDE8B3
S1133C20F087C2F12003D8400CFA02FC21FA03F316
S1133C30914001434FEA1C471FFA8CFEB3FBF7F097
S1133C4007FB10360B0C43EA064300FB0EF69E42BC
S1133C5004FA02F408D91CEB030300F1FF382FD255
S1133C609E422DD9023863449B1B89B2B3FBF7F6FD
S1133C7007FB163341EA034106FB0EF38B4208D9D6
S1133C801CEB010106F1FF3816D28B4214D9023E17
S1133C906144C91A46EA004638E72E46284605E735
S1133CA00646E3E61846F8E64B45A9D2B9EB020806
S1133CB064EB0C0E0138A3E74646EAE7204694E796
S1133CC04046D1E7D0467BE7023B614432E73046C9
S1133CD009E76444023842E7704700BF08B5074B60
S1133CE0044613B10021AFF30080054B1868836AC2
S1133CF003B19847204600F031F800BF00000000EF
S1133D00F441000070B50D4D0D4C641BA410002649
S1133D10A64209D10B4D0C4C00F022F8641BA410F0
S1133D200026A64205D170BD55F8043B98470136DC
S1133D30EEE755F8043B98470136F2E7A41000205B
S1133D40A4100020A4100020A81000200244034660
S1133D50934200D1704703F8011BF9E7FEE700BF67
S1133D60F8B500BFF8BC08BC9E467047F8B500BF64
S1133D70F8BC08BC9E4670472E2E2F6175746F6781
S1133D80656E2F736C5F7370696472765F696E69B8
S1133D90742E6300050000000000000040420F0084
S1133DA00501000000000000000000000000000009
S1133DB007000003050000000000000040420F005F
S1133DC005010000000000000000000000000000E9
S1133DD0433A2F55736572732F6669726D776172FA
S1133DE0652D312F53696D706C69636974795374EF
S1133DF07564696F2F53444B732F6765636B6F5FF3
S1133E0073646B2F706C6174666F726D2F656D6C6B
S1133E1069622F7372632F656D5F636D752E630026
S1133E20633A5C75736572735C6669726D7761720F
S1133E30652D315C73696D706C6963697479737431
S1133E407564696F5C73646B735C6765636B6F5FE8
S1133E5073646B5C706C6174666F726D5C636F6DC0
S1133E606D6F6E5C696E635C736C5F636F6D6D6FB9
S1133E706E2E68000403020B050C0302010A030200
S1133E80060A0907030105080602000400014000B0
S1133E90040001001000000280000800020020005D
S1133EA040787D0100000000005A62020001000019
S1133EB0C0CF6A0002000000809FD500020100000C
S1133EC0002D310102020000433A2F5573657273CD
S1133ED02F6669726D776172652D312F53696D702C
S1133EE06C696369747953747564696F2F53444BB7
S1133EF0732F6765636B6F5F73646B2F706C617492
S1133F00666F726D2F656D6C69622F7372632F65B6
S1133F106D5F656D752E6300633A5C7573657273CE
S1133F205C6669726D776172652D315C73696D7061
S1133F306C696369747973747564696F5C73646BB9
S1133F40735C6765636B6F5F73646B5C706C6174E7
S1133F50666F726D5C656D6C69625C696E635C65ED
S1133F606D5F6770696F2E6800433A2F55736572F1
S1133F70732F6669726D776172652D312F53696D88
S1133F80706C696369747953747564696F2F5344F1
S1133F904B732F6765636B6F5F73646B2F706C611A
S1133FA074666F726D2F656D6C69622F7372632F07
S1133FB0656D5F6770696F2E6300433A2F557365B3
S1133FC072732F6669726D776172652D312F536933
S1133FD06D706C696369747953747564696F2F5378
S1133FE0444B732F6765636B6F5F73646B2F706CE7
S1133FF06174666F726D2F656D6C69622F73726385
S11340002F656D5F6C646D612E6300633A5C75733C
S11340106572735C6669726D776172652D315C736C
S1134020696D706C696369747973747564696F5CC4
S113403073646B735C6765636B6F5F73646B5C70F5
S11340406C6174666F726D5C656D6C69625C696EDF
S1134050635C656D5F6275732E6800433A2F557318
S11340606572732F6669726D776172652D312F5396
S1134070696D706C696369747953747564696F2FC1
S113408053444B732F6765636B6F5F73646B2F705F
S11340906C6174666F726D2F656D6C69622F7372DB
S11340A0632F656D5F727463632E6300433A2F550B
S11340B0736572732F6669726D776172652D312F26
S11340C053696D706C696369747953747564696F4D
S11340D02F53444B732F6765636B6F5F73646B2F50
S11340E0706C6174666F726D2F656D6C69622F738D
S11340F072632F656D5F75736172742E63000001C6
S113410008070F000A00C8002000A00001000000FA
S11341100000A00068010A200706020A0407000044
S113412000020700433A2F55736572732F66697254
S11341306D776172652D312F53696D706C69636998
S1134140747953747564696F2F53444B732F676587
S1134150636B6F5F73646B2F706C6174666F726DE9
S11341602F736572766963652F736C656570746906
S11341706D65722F7372632F736C5F736C656570FA
S113418074696D65722E6300010000000500000073
S11341900002000003000000433A2F557365727358
S11341A02F6669726D776172652D312F53696D7059
S11341B06C696369747953747564696F2F53444BE4
S11341C0732F6765636B6F5F73646B2F706C6174BF
S11341D0666F726D2F736572766963652F7564659A
S11341E06C61792F7372632F736C5F7564656C6196
S10B41F0792E63004410002045
S10B41F854BFFF7F0100000029
S10F42000C420000001000202B00000005
S113420CA0A1A2A3A4A5A6A7A8A90000D41000202D
S113421C000001400E0F0B0040420F00080000008C
S113422C000000000001000000000000C0EA2101B1
S113423C00F04902C0EA210100800000C0EA21011B
S113424CFFFF01000000000000000000000000005F
S113425C000000000000000000000000000000004E
S113426C000000000000000000000000000000003E
S113427C000000000000000000000000000000002E
S113428C000000000000000000000000000000001E
S113429C000000000000000000000000000000000E
S10F42AC00000000310100000D010000C2
S90304D523
